:020000040800F2
:100000007006002089010008910100089301000892
:100010009501000897010008990100080000000000
:100020000000000000000000000000009B0100082C
:100030009D010008000000009F010008A1010008C8
:10004000A3010008A3010008A3010008A301000800
:10005000A3010008A3010008A3010008A3010008F0
:10006000A3010008A3010008A3010008A3010008E0
:10007000A3010008A3010008A3010008A3010008D0
:10008000A3010008A3010008A3010008A3010008C0
:10009000A3010008A3010008A3010008A3010008B0
:1000A000A3010008A3010008A3010008A3010008A0
:1000B000A3010008A3010008A301000871020008C1
:1000C00045020008A3010008A3010008A3010008DD
:1000D000A3010008A3010008A3010008A301000870
:1000E000A3010008A3010008A301000800F002F822
:1000F00000F03AF80AA090E8000C82448344AAF188
:100100000107DA4501D100F02FF8AFF2090EBAE885
:100110000F0013F0010F18BFFB1A43F0010318473B
:10012000B0050000D0050000103A24BF78C878C19F
:10013000FAD8520724BF30C830C144BF04680C60ED
:10014000704700000023002400250026103A28BF35
:1001500078C1FBD8520728BF30C148BF0B60704739
:100160001FB51FBD10B510BD00F031F81146FFF7E7
:10017000F7FF00F071FA00F04FF803B4FFF7F2FF59
:1001800003BC00F057F800000948804709480047C1
:10019000FEE7FEE7FEE7FEE7FEE7FEE7FEE7FEE737
:1001A000FEE7FEE704480549054A064B7047000094
:1001B000DD050008ED00000870000020700600203A
:1001C000700200207002002070477047704775462B
:1001D00000F02CF8AE4605006946534620F00700B3
:1001E000854618B020B5FFF7DDFFBDE820404FF091
:1001F00000064FF000074FF000084FF0000B21F011
:100200000701AC46ACE8C009ACE8C009ACE8C009DD
:10021000ACE8C0098D46704710B50446AFF30080C6
:100220002046BDE81040FFF7A8BF00000048704717
:100230001000002001491820ABBEFEE72600020096
:10024000704700000948008800F4806068B10748E2
:100250001438008840F400700449143908800348B9
:10026000008820F4806001490880704714540040E1
:10027000424A1088121D118800F0010222B1404A42
:1002800012783E4B1B1F1A8000F002024AB300F0A6
:10029000800282B13B4A12681278384B1B1F1A80C9
:1002A000384A1268521C374B1A60374A1278521E6D
:1002B000354B1A7060E0354A1278022A08DA2F4A64
:1002C000143A128822F480622C4B143B1A8053E0BB
:1002D0002A4A143A128842F48062284B143B1A804E
:1002E0004AE000F08002DAB1274A127842B9234A84
:1002F000143A128842F40072204B143B1A80704763
:10030000204A126812781D4B1B1F1A801D4A126862
:10031000521C1C4B1A601C4A1278521E1A4B1A703F
:1003200000F0400242B3194A1278022A07D1134A58
:10033000143A128822F48062104B143B1A80134A3C
:100340001278012A10D10D4A143A128842F48062C0
:100350000A4B143B1A801A46128842F400721A8023
:10036000064A121F1288CAE7044A121F1288074A57
:100370001278521E054B1A7000BFC0E7145400409B
:100380000C000020080000200000002001000020D8
:1003900010B52C48806940F001002A498861084660
:1003A000C06940F40010C8610846806940F0080048
:1003B00088612548006840F040702349086008467D
:1003C000006840F0406008600846006840F0405017
:1003D00008600846006840F04040086000201B4963
:1003E00008800846008840F480600880081D008866
:1003F00040F01800091D08800846008840F400708D
:1004000008800846008840F48070088078200F49F2
:100410001C3108801920091D08800C48001D008827
:1004200040F400700949091D0880081F008840F049
:100430000100091F0880202000F000F91F2000F0B3
:10044000FDF810BD00100240000C014000540040B7
:1004500010B5084B1A70084B1960012303EB4003D9
:10046000064C2370064B1B8843F48073044C238096
:1004700010BD000001000020040000200C0000203E
:100480000054004010B5531E074C2370074B1960F1
:10049000002343EA4003064C2370064B1B8843F4B9
:1004A0008073044C238010BD000000200800002051
:1004B0000C000020005400400B48806940F01400FC
:1004C000094988610948406840F44010074948607C
:1004D0000846406820F4400048600548006820F065
:1004E00003000349086070470010024000100140FB
:1004F0000008014010B500F001F810BD0CB5002057
:10050000019000903348006840F480303149086021
:1005100000BF3048006800F4003000900198401C93
:100520000190009818B90198B0F5A06FF1D1294851
:10053000006800F4003010B10120009001E00020BC
:1005400000900098012843D12348006840F0100033
:10055000214908600846006820F00300086008464A
:10056000006840F0020008601A4840681949486075
:100570000846406848600846406840F4806048602B
:100580000846406820F47C1048600846406840F403
:10059000E81048600846006840F08070086000BFBE
:1005A0000C48006800F000700028F9D00948406845
:1005B00020F00300074948600846406840F0020008
:1005C000486000BF0348406800F00C000828F9D1DB
:1005D0000CBD0000001002400020024010B513487E
:1005E000006840F001001149086008464068104961
:1005F00008400E494860084600680E4908400B490B
:1006000008600846006820F48020086008464068BA
:1006100020F4FE0048604FF41F008860FFF76AFF77
:100620004FF000600449086010BD00000010024057
:100630000000FFF8FFFFF6FE08ED00E0002809DBF0
:1006400000F01F02012191404209920002F1E022D4
:10065000C2F800117047000086B0174A07CA03AB02
:1006600007C3FFF795FEFFF727FF324603A9B42023
:10067000FFF708FF0926002500E06D1C0F488542A2
:10068000FBD332466946B420FFF7E2FE13E04FF495
:1006900000500B490861002400E0641C07488442B4
:1006A000FBD34FF4005006494861002400E0641C6D
:1006B00002488442FBD3EAE7C406000840420F0028
:1006C00000100140000000000001010100000000D6
:1006D000F0060008000000201000000028010008BB
:1006E0000007000810000020600600004401000818
:1006F00000000000000000000000000000000000FA
:040000050800018965
:00000001FF
