:020000040800F2
:1000000018040020C904000825050008250500087B
:10001000250500082505000825050008000000004A
:10002000000000000000000000000000250500089E
:10003000250500080000000025050008250500082A
:1000400025050008250500082505000825050008E8
:1000500025050008250500082505000825050008D8
:1000600025050008250500082505000825050008C8
:1000700025050008250500082505000825050008B8
:1000800025050008250500082505000800000000DA
:10009000000000000000000000000000250500082E
:1000A0002505000825050008250500082505000888
:1000B000250500082505000825050008450200085B
:1000C0003902000825050008250500082505000857
:1000D000250500089D0700082505000825050008DE
:1000E000250500082505000825050008000000007A
:1000F0000000000000000000000000000000000000
:1001000000000000000000000000000000000000EF
:10011000000000000000000025050008250500087B
:100120005FF808F180B483B000AF0346FB71084963
:1001300097F907305B09FA7902F01F02012000FAF3
:1001400002F241F823200C37BD465DF8047B70476E
:1001500000E100E080B500AF344A344B9B6943F0C6
:1001600001039361314A314BDB6943F40013D361DE
:100170002E4A2E4B9B6943F0080393612C4A2C4B6B
:100180001B6843F040731360294A294B1B6843F0F6
:1001900040631360264A264B1B6843F040531360AC
:1001A000234A234B1B6843F040431360214B00223A
:1001B0001A80204A1F4B1B889BB243F480639BB27A
:1001C00013801C4A1B4B9B889BB243F018039BB2C5
:1001D0009380184A174B9B889BB243F400739BB2E1
:1001E0009380144A134B9B889BB243F480739BB259
:1001F0009380104B78229A830E4B19221A840D4A51
:100200000C4B9B889BB243F400739BB29380094ACA
:10021000084B1B889BB243F001039BB21380202044
:10022000FFF780FF1F20FFF77DFF80BD0010024019
:10023000000C01400054004080B400AFBD465DF8A2
:10024000047B704780B483B000AF674B9B8A9BB23E
:100250007B60654B1B8B9BB23B607B6803F00103AB
:10026000002B05D0604B614A127892B21A82B5E039
:100270007B6803F00203002B44D05C4B1B7803F037
:100280000103002B24D05A4B1B68574A128A92B2A2
:10029000D2B21A70544A544B9B889BB243F4806389
:1002A0009BB29380534B1B78012B40F097804E4AB2
:1002B0004D4B1B889BB223F480639BB213804A4A48
:1002C000494B1B889BB243F400739BB2138085E0BB
:1002D000454A494B1B681B789BB21382464B1B68EF
:1002E0000133454A1360454B1B78013BDAB2434B5F
:1002F0001A703D4A3C4B9B889BB243F480639BB28F
:1003000093806BE07B6803F04003002B3BD0384BBD
:100310001B68354A128A92B2D2B21A70354B1B78DA
:10032000013BDAB2334B1A70314B1B680133304A50
:100330001360304B1B78012B10D12B4A2A4B1B88A2
:100340009BB223F480639BB21380274A264B1B8801
:100350009BB243F400739BB213803FE0254B1B78A4
:10036000002B3BD1204A204B1B889BB243F4806377
:100370009BB213801C4A1C4B9B889BB223F4806366
:100380009BB293802AE07B6803F08003002B25D08A
:100390001A4B1B78002B10D1134A134B1B889BB2AE
:1003A00043F400739BB213800F4A0F4B9B889BB2A0
:1003B00023F480639BB2938010E00B4A0E4B1B68C2
:1003C0001B789BB213820C4B1B6801330A4A1360E3
:1003D0000A4B1B78013BDAB2084B1A700C37BD464A
:1003E0005DF8047B704700BF005400400C00002003
:1003F0000400002001000020080000200000002070
:1004000080B483B000AF03463960FB711346BB7103
:100410000F4ABB7913700F4A3B681360FB795B008E
:10042000DAB20D4B1A700D4A0C4B1B889BB243F489
:1004300080639BB21380094A084B1B889BB243F42C
:1004400080739BB213800C37BD465DF8047B704708
:1004500000000020080000200C0000200054004094
:1004600080B483B000AF03463960FB711346BB71A3
:10047000114ABB791370114A3B681360FB795B002A
:10048000DBB243F00103DBB2DAB20D4B1A700D4A56
:100490000C4B1B889BB243F480639BB21380094AC8
:1004A000084B1B889BB243F480739BB213800C37BC
:1004B000BD465DF8047B7047010000200400002069
:1004C0000C0000200054004080B582B000AF104BFB
:1004D0007B60104B3B6007E03B681A1D3A607A680E
:1004E000111D796012681A603B680B4A9342F3D37E
:1004F0000A480B494FF000028842B8BF40F8042B6D
:10050000FADB00F013F800F0EBF90837BD4680BDC8
:10051000FC0A00080000002000000020000000206D
:100520001400002080B400AFFEE700BF80B500AF2C
:10053000164A164B1B6843F0010313601349134B13
:100540005A68134B13404B60104A104B1B6823F042
:10055000847323F4803313600C4A0C4B1B6823F420
:1005600080231360094A094B5B6823F4FE03536040
:10057000064B4FF41F029A60044B0022DA6200F02F
:100580000BF8044B4FF000629A6080BD00100240EF
:100590000000FFF800ED00E080B500AF00F002F8C9
:1005A00080BD00BF80B483B000AF00237B60002318
:1005B0003B60304A2F4B1B6843F4803313602D4B54
:1005C0001B6803F400333B607B6801337B603B684E
:1005D000002B03D17B68B3F5A06FF0D1254B1B68CE
:1005E00003F40033002B02D001233B6001E0002321
:1005F0003B603B68012B37D11E4A1E4B5B68536042
:100600001C4A1C4B5B6853601A4A1A4B5B68536068
:10061000184A184B5B6823F47C135360154A154B3A
:100620005B6843F498135360124A124B1B6843F003
:100630008073136000BF0F4B1B6803F00073002B27
:10064000F9D00C4A0B4B5B6823F003035360094A53
:10065000084B5B6843F00203536000BF054B5B68C7
:1006600003F00C03082BF9D10C37BD465DF8047B71
:10067000704700BF0010024080B483B000AF034653
:10068000FB71084997F907305B09FA7902F01F02FC
:10069000012000FA02F241F823200C37BD465DF834
:1006A000047B704700E100E080B400AF134A134BB5
:1006B0009B6943F014039361114A114B5B6843F04B
:1006C000030353600E4A0E4B5B6823F00C03536028
:1006D0000B4A0B4B5B6843F030035360084A084BEE
:1006E0005B6823F0C0035360064A064B1B6823F087
:1006F00003031360BD465DF8047B704700100240A1
:10070000001001400008014080B500AF204A204B96
:100710009B6943F4804393611D4A1D4B9B6943F0E1
:10072000050393611B4A1B4B5B6823F0C0035360B6
:10073000184A184B5B6843F080035360154A154B09
:100740005B6843F010035360124A124B5B6823F45A
:10075000406353600F4A0F4B5B6843F48063536000
:100760000C4A0C4B5B6823F4407353600A4BD02255
:100770001A81094A084B9B899BB243F4005343F00A
:100780002C039BB293812520FFF776FF80BD00BF2D
:1007900000100240000801400038014080B400AF62
:1007A000284B1B889BB203F02003002B0ED0254A58
:1007B000244B9B889BB201339BB29380214A214BEF
:1007C0009B899BB243F080039BB293811D4B1B8896
:1007D0009BB203F04003002B0BD01A4A194B9B89A4
:1007E0009BB223F040039BB29381164B6E229A80FA
:1007F00024E0144B1B889BB203F08003002B1DD018
:10080000114B1B78002B11D0104B1B6801330F4A82
:1008100013600C4A0D4B1B681B789BB293800A4BEC
:100820001B78013BDAB2084B1A7007E0054A054B0A
:100830009B899BB223F080039BB29381BD465DF8F8
:10084000047B7047003801400200002010000020A7
:1008500080B483B000AF03463960FB71134AFB7963
:100860001370134A3B681360124A124B1B889BB2E9
:1008700023F040039BB213800E4A0D4B1B681B787C
:100880009BB29380094B1B78013BDAB2074B1A707D
:10089000084A084B9B899BB243F080039BB293812B
:1008A0000C37BD465DF8047B704700BF0200002096
:1008B000100000200038014080B485B000AF78609F
:1008C0000023FB6002E0FB680133FB60FA687B6891
:1008D0009A42F8D31437BD465DF8047B704700BFD9
:1008E00080B59AB000AF07F1440300221A600433C8
:1008F00000221A60043300221A60043300221A60B6
:10090000043300221A60043300221A6004330022E8
:100910001A60043300221A800233FF2387F8443020
:10092000FF2387F84530FF2387F84630FF2387F8F9
:100930004730FF2387F84830FF2387F84930FF23EB
:1009400087F84A30FF2387F84B30FF2387F84C3075
:10095000FF2387F84D30FFF7FDFBFFF7A5FEFFF7FC
:10096000D3FE07F1240300221A60043300221A6028
:10097000043300221A60043300221A600433002278
:100980001A60043300221A60043300221A60043310
:1009900000221A800233012387F82530022387F8CA
:1009A0002630032387F82730042387F828300523CF
:1009B00087F82930062387F82A30072387F82B3059
:1009C000082387F82C30092387F82D303B1D00229F
:1009D0001A60043300221A60043300221A600433C0
:1009E00000221A60043300221A60043300221A60C5
:1009F000043300221A60043300221A800233F723E2
:100A00003B71F8237B710223BB710323FB71092324
:100A100087F86730F723FB70762387F86630092361
:100A200087F865303348FFF747FF334B4FF40072C8
:100A30001A618823FB7097F86620FB1C1046194644
:100A40000122FFF7DDFC4FF47A70FFF735FF97F8CE
:100A5000662007F14403104619461A22FFF700FDED
:100A60004FF47A70FFF728FF07F144031A20194664
:100A7000FFF7EEFE42F21070FFF71EFFF423FB704B
:100A8000FB783B71FF237B7197F866203B1D104676
:100A900019460222FFF7B4FC4FF47A70FFF70CFFFF
:100AA000F423FB7097F86620FB1C104619460122C0
:100AB000FFF7A6FC4FF47A70FFF7FEFE97F866206A
:100AC00007F14403104619460922FFF7C9FC4FF409
:100AD0007A70FFF7F1FE07F1440309201946FFF78A
:100AE000B7FE054B4FF400725A610248FFF7E4FE6F
:0C0AF00098E700BFA08601000010014044
:0400000508000000EF
:00000001FF
