:020000040800F2
:10000000580D00204D0B0008490B0008490B000853
:10001000490B0008490B0008490B000800000000CC
:10002000000000000000000000000000490B000874
:10003000490B000800000000490B0008490B0008AC
:10004000490B0008490B0008490B0008490B000840
:10005000490B000865280008E10B0008E90C0008BE
:10006000F10D0008F90E000801100008490B000806
:10007000490B0008490B0008490B0008490B000810
:10008000490B0008490B0008490B0008490B000800
:10009000490B0008490B0008490B0008091100082A
:1000A000490B0008490B0008490B0008490B0008E0
:1000B000490B0008490B0008490B0008490B0008D0
:1000C000490B0008490B0008490B0008212E0008C5
:1000D000752E000891300008B9300008E1300008A2
:1000E00021120008490B0008490B0008490B0008C1
:1000F000490B0008490B0008490B0008490B000890
:10010000490B0008490B0008490B0008C52E0008E0
:100110000931000831310008490B0008490B00087B
:10012000490B0008490B0008490B0008490B00085F
:10013000490B0008490B0008490B0008490B00084F
:10014000490B0008490B0008490B0008490B00083F
:100150005FF808F12DE9F04F082885B007468B4677
:100160009246994600F2B480042901D9FB2087E029
:1001700001224BB202FA03F010F0160FF6D019F07C
:10018000060F40F09480B9F1000F7DD0914200F04D
:10019000908002297BD05FFA89F103914FEA4718DA
:1001A00008F1080808F580742046102102F038F89C
:1001B000204602F017F805460028F9D108F500702E
:1001C0001F2102F02DF8012000FA07F0C343414E31
:1001D0009AB201923188019B78003218029019403E
:1001E000F01995800575318008F54075284601F0B5
:1001F000F9FF0028FAD10399404621F00F0343EAA2
:100200000B0102F00DF8BAF1000F0CD132484FF695
:10021000F071B0F800A00AF1010293B28B4208BF5E
:100220004FF44043038008F580604FEA1A2101F043
:10023000F7FF5FFA8AF108F5A06001F0F1FF2046B0
:10024000012101F0EDFF204601F0CCFF0028FAD19A
:1002500009F0010909FA07F2B38B318842EA030970
:10026000019A029B1140F218F319A6F81C903180F4
:1002700090801875284601F0B5FF0028FAD0F8B232
:1002800040B205B0BDE8F08FCDF80C9086E709F0DC
:100290002003DAB2A2B909F010005FFA89F3C1B203
:1002A000039300293FF47AAF1B063FF577AFFA209E
:1002B000E6E719F0210FFAD05FFA89F403946DE7AD
:1002C0005FFA89F2039212063FF568AFFA20D7E78A
:1002D000FF20D5E7BC000020000000200828F8B56A
:1002E000064629D84701083707F5807528461021AA
:1002F00001F096FF284601F075FF04460028F9D169
:1003000007F500701F2101F08BFF012101FA06F1B2
:100310000A4B07F54075188803EB460220EA0101F5
:100320009E19198094803475284601F05BFF0028DF
:10033000FAD1012358B2F8BDFF23FBE7BC0000202F
:1003400008282DE9F041074657D84FEA401808F130
:100350000808404601F046FF00F00F00012840D198
:1003600008F54076304601F03DFF13283DD108F5F1
:1003700080742046022101F053FF204601F032FF35
:100380000028FAD1304601F02DFF1428204630D045
:1003900001F028FF0028F5D12046102101F040FF90
:1003A000204601F01FFF05460028F9D108F500702E
:1003B0001F2101F035FF012101FA07F1104B1888C8
:1003C00003EB470220EA0101DF19198095803D7592
:1003D000304601F007FF0028FAD1FC2358B2BDE8EF
:1003E000F081FB2358B2BDE8F081FD2358B2BDE88F
:1003F000F081012358B2BDE8F081FF23EEE700BF92
:10040000BC00002008282DE9F047074666D84FEACF
:10041000401A0AF1080A504601F0E4FE00F00F000D
:10042000012853D10AF580742046082101F0F8FE16
:10043000204601F0D7FE0028FAD1DFF8A4804FF063
:10044000010909FA07F3B8F81C20B8F8001042FABD
:1004500007F26FEA030C1FFA8CF909EA0103A8F806
:100460000030D3072FD40AF540760AF5007A3046DB
:1004700001F0B8FE00282DD0504601F0B3FE00F088
:100480000800C2B2002AF2D02046102101F0C8FEB6
:10049000204601F0A7FE05460028F9D11F2150464D
:1004A00001F0BEFEB8F8001008EB470309EA0109A5
:1004B0004744A8F800909D803D75304601F092FEBB
:1004C0000028FAD1F32040B2BDE8F087FB2040B20B
:1004D000BDE8F087012040B2BDE8F087FF20F2E7D9
:1004E000BC00002008282DE9F84F04468B4615462D
:1004F00000F29A804FEA401808F10808404601F0DF
:1005000071FE00F00F00012840F09280002D00F0F5
:10051000938008F54077384601F064FE172801D033
:100520001C2871D1594E338843FA04F3DA0736D4C4
:1005300008F5F85001F056FE4FF0010A0AFA04FAE5
:1005400082021FFA82F9A94528BFA946204601F078
:10055000F9FE0546384601F045FE172801D01C2853
:1005600032D1B08B1AEA000F2BD0A94526D82046ED
:1005700059464A4608F5807801F0E8FF40462021B8
:1005800001F04EFE404601F02DFE0028FAD13188E0
:1005900048464AEA010AA6F800A0BDE8F88F08F527
:1005A0000079484601F01EFE00F01001CAB2002A90
:1005B0002ED100F00800C3B2002B41D10020BDE8CD
:1005C000F88FA945C2D8D2E708F5807948461021AE
:1005D00001F026FE484601F005FE05460028F9D147
:1005E00008F500701F2101F01BFE328806EB440362
:1005F00022EA0A0A3419A6F800A09D80257538461B
:1006000001F0F0FD0028FAD16FF00600BDE8F88F88
:100610001021484601F004FE012101FA04F133885B
:1006200023EA0103338083E74FF0FF30BDE8F88F02
:100630006FF00400BDE8F88F6FF00D00BDE8F88F93
:1006400008F580784046102101F0EAFD404601F0AF
:10065000C9FD05460028F9D148461F2101F0E0FDFB
:10066000012101FA04F1328806EB440022EA01027A
:100670003419328085802575384601F0B3FD002895
:10068000FAD16FF00C00BDE8F88F00BFBC0000206D
:100690002DE9F04F082883B00446009115465DD837
:1006A00046010836304601F09DFD00F00F08B8F114
:1006B000010F56D1002D57D006F5F05001F092FDF4
:1006C00008FA04F8800283B2AB4228BF2B46DFF859
:1006D0002C91019306F5407706F5F85A204601F073
:1006E000B3FE0546384601F07DFD01461729204638
:1006F00014D01C293BD1C5B901F024FE83465046D5
:1007000001F070FDBBEB802F55D0B9F81C2018EA22
:10071000020FE3D0284603B0BDE8F08FB9F81C20E3
:1007200012EA080F17D0002DF4D0019A2046AA42F1
:1007300038BF1546ADB200992A4606F5807601F01D
:100740008FFF3046402101F06BFD304601F04AFD3D
:100750000028FAD1DEE7002DC0D0E6E74FF0FF30E9
:10076000D9E76FF00400D6E76FF00D00D3E706F588
:1007700080794846102101F053FD484601F032FDD2
:1007800005460028F9D106F500701F2101F048FD4B
:100790001A48038800EB440123EA08080419A0F86A
:1007A00000808D802575384601F01CFD0028FAD1A7
:1007B0006FF00600AFE706F580794846102101F09A
:1007C0002FFD484601F00EFD05460028F9D106F53B
:1007D00000701F2101F024FD0848038800EB44014C
:1007E00023EA08080419A0F800808D802575384692
:1007F00001F0F8FC0028FAD1DAE700BFBC000020C5
:100800002DE9F84F082804468B4690469946BDF8D6
:10081000285000F2868046010836304601F0E2FC9E
:1008200000F00F00022805D0042803D06FF0040068
:10083000BDE8F88FB8F1000F00F08280D9F80030E1
:10084000002B00F08180002D6FD006F540773846F0
:1008500001F0C8FC422801D022286AD1042249466E
:1008600006F5406001F034FD06F58050290A01F0DC
:10087000D7FCE9B206F5885001F0D2FC06F5F85035
:1008800001F0B0FC4FF0010A0AFA04FA81028AB2C0
:10089000DFF8BC90424538BF9046204601F052FD3B
:1008A0000546384601F09EFC002836D0B9F81C00F9
:1008B0001AEA000F27D0A8453FD82046594642469D
:1008C00006F5807401F042FE2046202101F0A8FCCC
:1008D000204601F087FC0028FAD106F50076304664
:1008E00001F080FC00F0100300F00801D8B2CAB299
:1008F00060B9002AF3D03046082101F091FC6FF076
:100900000C00BDE8F88F4545C7D3D6E73046102127
:1009100001F086FC4046BDE8F88F6FF00300BDE8AB
:10092000F88F4FF0FF30BDE8F88F6FF00A00BDE898
:10093000F88F6FF00600BDE8F88F0020BDE8F88F53
:100940006FF00D00BDE8F88F6FF00B00BDE8F88F79
:10095000BC0000202DE9F04F082887B00446029122
:100960000192039300F2DF804FEA401808F1080873
:10097000404601F037FC00F00F03022B834604D001
:10098000042B02D06FF0040036E00198002800F03C
:10099000D0806C4E6700F1198A88002A2FD000257C
:1009A0000BF0070B00213019BBF1020F0175DFF8C6
:1009B00094914FD0BBF1040F3BD020462946B94457
:1009C00001F0D8FE08F58078A9F80450404640218F
:1009D00001F026FC404601F005FC0028FAD1F6198A
:1009E000B388581B82B2B2802AB156490C19237DB4
:1009F00043F001002075284607B0BDE8F08F4FF0A6
:100A0000010A0AFA04FA08F54079204601F01CFDB3
:100A10000546484601F0E6FB002800F08780B38BCE
:100A20001AEA030F02D0002DBAD1E4E7002DECD072
:100A3000B6E7B944B9F80450002D52D008F58078D3
:100A4000019920468D4228BF0D462A46029901F0A1
:100A500007FEBBE7B944B9F804505DB108F58078EA
:100A6000019920468D4228BF0D462A46029901F081
:100A7000F7FDABE7204604A9082208F5807801F0CD
:100A8000EFFD4046402101F0CBFB404601F0AAFBC0
:100A90000028FAD1DDF80CA09DF812009DF817107F
:100AA0009DF815309DF816509DF814208AF8020024
:100AB0009DF810C09DF811E09DF81390109803EB7D
:100AC000022201EB0525ADB2F11933198AF800C0F5
:100AD0008AF801E08AF80390028080228D801A75DE
:100AE000BEE7204604A9022208F5807801F0B8FD8F
:100AF0004046402101F094FB404601F073FB002882
:100B0000FAD19DF810509DF8112040F2EA5102EB05
:100B1000052085B2F3198D429D800DD8094A8020A9
:100B2000131918758CE74FF0FF3065E76FF003007D
:100B300062E76FF00D005FE72046FFF7CFFB6FF431
:100B40007A7059E7BC000020FEE700BF1F49204B28
:100B500070B499421BD2DA1C0C1D151B1D4825F0E0
:100B60000302161D05680423B3420D60C2F3800220
:100B70000DD022B142680823B342226007D01D582D
:100B80001A1D5D5084580833B3428C50F7D1124877
:100B90001249884217D2CB1C041D1A1B22F00302F3
:100BA00003461018002183421960C2F380020AD064
:100BB0001AB184422346216005D01A1D59600833BA
:100BC00083425160F9D170BC00F098BE0000002053
:100BD000BC0000202C450008BC0000205409002067
:100BE00040F21443C4F2010370B51D681A683D4C0D
:100BF00042F0010018602188012915D02389012BBA
:100C00001DD0228A012A26D0218B01292FD0228CA7
:100C1000012A38D0208D012841D0238E012B4AD0C3
:100C2000208F012853D070BD6668002EE6D00020CA
:100C3000034629460246B0472389012BE1D1294EBC
:100C4000F668002EDDD00020024629460346B04754
:100C5000228A012AD8D123484669002ED4D0002008
:100C6000294602460346B047218B0129CFD11D4BAF
:100C7000DE69002ECBD00020024629460346B0474D
:100C8000228C012AC6D1174E766A002EC2D00020CF
:100C9000294602460346B047208D0128BDD111499F
:100CA000CE6A002EB9D00020034629460246B0473E
:100CB000238E012BB4D10B4A566B002EB0D00020EE
:100CC000294602460346B047208F0128ABD1054C88
:100CD000E46B002CA7D00020294602460346A0471B
:100CE00070BD00BFDC00002040F21443C4F20103D9
:100CF00070B51D681A683D4C42F0020018602188EA
:100D0000022915D02389022B1DD0228A022A26D03F
:100D1000218B02292FD0228C022A38D0208D022844
:100D200041D0238E022B4AD0208F022853D070BD91
:100D30006668002EE6D00020034629460246B047EA
:100D40002389022BE1D1294EF668002EDDD0002048
:100D5000024629460346B047228A022AD8D12348B0
:100D60004669002ED4D00020294602460346B047EB
:100D7000218B0229CFD11D4BDE69002ECBD0002064
:100D8000024629460346B047228C022AC6D1174E96
:100D9000766A002EC2D00020294602460346B0479C
:100DA000208D0228BDD11149CE6A002EB9D0002075
:100DB000034629460246B047238E022BB4D10B4A84
:100DC000566B002EB0D00020294602460346B0479D
:100DD000208F0228ABD1054CE46B002CA7D000205B
:100DE000294602460346A04770BD00BFDC00002034
:100DF00040F21443C4F2010370B51D681A683D4CFB
:100E000042F0040018602188042915D02389042B9E
:100E10001DD0228A042A26D0218B04292FD0228C8F
:100E2000042A38D0208D042841D0238E042B4AD0A8
:100E3000208F042853D070BD6668002EE6D00020B5
:100E4000034629460246B0472389042BE1D1294EA7
:100E5000F668002EDDD00020024629460346B04742
:100E6000228A042AD8D123484669002ED4D00020F3
:100E7000294602460346B047218B0429CFD11D4B9A
:100E8000DE69002ECBD00020024629460346B0473B
:100E9000228C042AC6D1174E766A002EC2D00020BA
:100EA000294602460346B047208D0428BDD111498A
:100EB000CE6A002EB9D00020034629460246B0472C
:100EC000238E042BB4D10B4A566B002EB0D00020D9
:100ED000294602460346B047208F0428ABD1054C73
:100EE000E46B002CA7D00020294602460346A04709
:100EF00070BD00BFDC00002040F21443C4F20103C7
:100F000070B51D681A683D4C42F0080018602188D1
:100F1000082915D02389082B1DD0228A082A26D01B
:100F2000218B08292FD0228C082A38D0208D082820
:100F300041D0238E082B4AD0208F082853D070BD73
:100F40006668002EE6D00020034629460246B047D8
:100F50002389082BE1D1294EF668002EDDD0002030
:100F6000024629460346B047228A082AD8D1234898
:100F70004669002ED4D00020294602460346B047D9
:100F8000218B0829CFD11D4BDE69002ECBD000204C
:100F9000024629460346B047228C082AC6D1174E7E
:100FA000766A002EC2D00020294602460346B0478A
:100FB000208D0828BDD11149CE6A002EB9D000205D
:100FC000034629460246B047238E082BB4D10B4A6C
:100FD000566B002EB0D00020294602460346B0478B
:100FE000208F0828ABD1054CE46B002CA7D0002043
:100FF000294602460346A04770BD00BFDC00002022
:1010000040F21443C4F2010370B51D681A683D4CE8
:1010100042F0100018602188102915D02389102B68
:101020001DD0228A102A26D0218B10292FD0228C65
:10103000102A38D0208D102841D0238E102B4AD072
:10104000208F102853D070BD6668002EE6D0002097
:10105000034629460246B0472389102BE1D1294E89
:10106000F668002EDDD00020024629460346B04730
:10107000228A102AD8D123484669002ED4D00020D5
:10108000294602460346B047218B1029CFD11D4B7C
:10109000DE69002ECBD00020024629460346B04729
:1010A000228C102AC6D1174E766A002EC2D000209C
:1010B000294602460346B047208D1028BDD111496C
:1010C000CE6A002EB9D00020034629460246B0471A
:1010D000238E102BB4D10B4A566B002EB0D00020BB
:1010E000294602460346B047208F1028ABD1054C55
:1010F000E46B002CA7D00020294602460346A047F7
:1011000070BD00BFDC00002040F21443C4F20103B4
:1011100070B51C68A00603D4610624D5402400E005
:10112000202440F21440C4F2010002683B4D44EA1E
:10113000020101602B88A3425FD02889A04252D0CF
:101140002A8AA24245D02B8BA34238D02A8CA242B5
:101150002BD0298DA1421ED0288EA04211D0298FDC
:10116000A14204D070BD220650D58024D9E72B4C73
:10117000E46B002CF6D00020014602460346A0474F
:1011800070BD264A566B002EE9D00020014602466B
:101190000346B047E3E7214BDE6A002EDCD0002097
:1011A000014602460346B047D6E71C4E766A002E3B
:1011B000CFD00020014602460346B047C9E7174892
:1011C000C669002EC2D00020014602460346B04741
:1011D000BCE712494E69002EB5D0002001460246F8
:1011E0000346B047AFE70D4EF668002EA8D00020AA
:1011F000014602460346B047A2E76E68002E9CD027
:101200000020014602460346B04796E714F4807F6B
:101210000CBF4FF400744FF4807482E7DC000020B0
:10122000F8B540F21443C4F201031E68720504D4F9
:10123000330526D54FF4006401E04FF4806440F29A
:101240001440C4F2010002683E4D44EA020101600C
:101250002B88A34267D02889A0425AD02A8AA2426A
:101260004DD02B8BA34240D02A8CA24233D0298D63
:10127000A14226D0288EA04219D0298FA1420CD09D
:10128000F8BDF50458D4B40459D416F4804F0CBFFB
:101290004FF400444FF48044D1E72A4CE46B002C17
:1012A000EED00020314602460346A047F8BD254A4D
:1012B000576B002FE1D00020314602460346B84765
:1012C000DBE7204BDF6A002FD4D0002031460246F6
:1012D0000346B847CEE71B4F7F6A002FC7D00020D8
:1012E000314602460346B847C1E71648C769002F92
:1012F000BAD00020314602460346B847B4E7114948
:101300004F69002FADD00020314602460346B84752
:10131000A7E70C4FFF68002FA0D0002031460246FF
:101320000346B8479AE76F68002F94D000203146F3
:1013300002460346B8478EE74FF480547FE74FF4E8
:1013400000547CE7DC000020CB0710B425D48B07C9
:101350002ED44B0738D40B0742D4CB064CD48B0683
:1013600056D44B0660D40B066AD4CB0572D48B05D9
:101370007BD44B0500F186800B0500F19080CB04F7
:1013800000F19A808B0400F1A4804B0400F1AE8040
:10139000090400F1B88010BC7047046802F00F0324
:1013A00024F00F0404600468234303608B07D0D546
:1013B000036802F00F0423F0F0030360036843EABC
:1013C000041303604B07C6D5036802F00F0423F42F
:1013D00070630360036843EA042303600B07BCD512
:1013E000036802F00F0423F470430360036843EAC8
:1013F00004330360CB06B2D5036802F00F0423F474
:1014000070230360036843EA044303608B06A8D596
:10141000036802F00F0423F470030360036843EAD7
:10142000045303604B069ED5036802F00F0423F0BB
:1014300070630360036843EA046303600B0694D59A
:10144000036823F070430360036843EA0273036098
:10145000CB058CD5446802F00F0324F00F044460E0
:101460004468234343608B0583D5436802F00F042F
:1014700023F0F0034360436843EA041343604B05E1
:101480007FF57AAF436802F00F0423F47063436082
:10149000436843EA042343600B057FF570AF43685C
:1014A00002F00F0423F470434360436843EA0433BB
:1014B0004360CB047FF566AF436802F00F0423F46A
:1014C00070234360436843EA044343608B047FF521
:1014D0005CAF436802F00F0423F470034360436879
:1014E00043EA045343604B047FF552AF436802F074
:1014F0000F0423F0706343604368090443EA046304
:1015000043607FF548AF416821F070434360416814
:1015100041EA027242603EE7C3680C30D2074CBF1A
:10152000194323EA01010160704700BF30B46C4CDD
:10153000C2F3007354F8233022F07044520F012993
:1015400000F0B1804D08012D38D08D08012D00F03C
:10155000AC80CD08012D00F0AA800D09012D00F00E
:10156000A8804D09012D00F0A6808D09012D00F005
:10157000A480CD09012D00F0A2800D0A012D00F0FC
:10158000A0804D0A012D00F09E808D0A012D00F0F3
:101590009C80CD0A012D00F09A800D0B012D00F0EA
:1015A00098804D0B012D00F096808D0B012D00F0E1
:1015B0009480C90B012914BF10250F2572B1012A8F
:1015C00034D0032A44D0042A21D0186820EA040029
:1015D00018601A6814431C6030BC7047072D0BD983
:1015E000AA00203A0F2101FA02F1426822EA010220
:1015F000426041684160E8E7AD000F2101FA05F162
:10160000026822EA0102026001680160DDE7072D3D
:1016100027D9AA000F21203A01FA02F2416821EAF3
:101620000201416041680A434260CEE7072D24D998
:10163000AA00203A0F2505FA02F5042101FA02F268
:10164000416821EA0501416041680A434260BCE704
:10165000072D22D9AA00203A0F2505FA02F50B2101
:10166000ECE7AD000F2202FA05F2016821EA02015F
:10167000016001680A430260A7E7AD000F2101FA8B
:1016800005F1042202FA05F5026822EA010202606D
:10169000016845EA0102026097E7AD000F2101FAF7
:1016A00005F10B22EEE7002588E7022586E70325F2
:1016B00084E7042582E7052580E706257EE70725E0
:1016C0007CE708257AE7092578E70A2576E70B25E0
:1016D00074E70C2572E70D2570E70E256EE700BF55
:1016E000C44000084FF4405008B5FF21C4F2010087
:1016F00001F068FCC0B208BD01464FF44050C4F28E
:10170000010001F05FBC00BF4FF40060C4F20100B3
:1017100010210122FFF700BF4FF40060C4F2010066
:1017200010210022FFF7F8BE70B540F20404C2F2A7
:10173000000486B02146002000F05AFA214601201C
:1017400000F056FA04A9082000F0A8FB44F2DC00DF
:1017500004A9C0F6000001F093FD6079E6782579D0
:10176000029044F2F40021786278A3780096019503
:10177000C0F6000001F084FD607AA179009044F287
:101780001C10E279237AC0F6000001F079FD607C3C
:10179000A17B009044F23010E27B237CC0F6000075
:1017A00001F06EFD607BA17A009044F24410E27A71
:1017B000237BC0F6000001F063FD607DA17C0090FA
:1017C00044F25810E27C237DC0F6000001F058FD81
:1017D00044F26C10C0F6000001F06AFD06B070BD66
:1017E0004FF4224040F6010138B5C0F20101C0F2C9
:1017F0004A4001F077F801F01DFA44F6D353C1F2E4
:101800006203A3FB00203222810902FB01F001F0F8
:1018100039F84FF400640420C4F20104C1F200005E
:101820004FF4804501F04CF8C1F20005102103226D
:101830002046FFF789FD284601F028F8284601F0E8
:101840003FF84FF4605520464FF400714FF0C0420E
:10185000FFF76CFEC4F2010520464FF480614FF0A3
:101860000052FFF763FE002228464FF4E13101F0F9
:1018700073FC42F20C01284601F0F4FC4FF01020FA
:1018800001F004F84FF0102001F01AF82046202152
:101890004FF0C042FFF74AFE204680214FF0C04281
:1018A000FFF744FE402120464FF00052FFF73EFE76
:1018B00001F0C0F94FF44054C4F20104410804227D
:1018C000204601F041FB00224FF40071204601F058
:1018D00021FB204601F082FB01F0ACF94DF6836359
:1018E000C4F21B33A3FB002144F24020C0F60000E9
:1018F000890CBDE8384001F0C3BC00BF2DE9F041C0
:101900008D4988B08A68CB680868496804AC0FC400
:10191000FFF766FF89488A4900F044F989488A49F7
:1019200000F050F9012004A900F0B8FA013003D109
:101930002BE09DF8083063B90F2002A900F0AEFA41
:101940000130F6D1814801F0B3FC9DF80830002B3E
:10195000F2D0FFF7E9FE7E4F0DF10A084FF4427016
:1019600000F040FC1C281BD8DFE800F08E1A1A1A81
:101970001A1A1A1A1A1A1A1A1A1A1A1A1A1A1A8160
:101980001A1A1AA11A1A1A1A3600724801F090FC93
:10199000FEE70020FEF7A2FC6F48294601F070FC2C
:1019A0004FF44A7000F01EFC064648BB01216B480C
:1019B00001F066FC0120022140F6B8323346FEF702
:1019C000C9FB0128054600F09B80002DC6DA294698
:1019D000614801F055FCC1E70021614801F050FC6D
:1019E0000020FEF70FFD0128054600F09A80002D2B
:1019F000D2DB4FF44A7000F0F5FB06460028D5D044
:101A00002228ABD1012000F01FFD0028A6D0B0F5A0
:101A1000006F34BF03464FF400639AB20120CDF843
:101A200000804B4903ABFEF795FF051E7EDDAEB28D
:101A3000002E93D0002401E0A6428FD0BDF80A000A
:101A4000321B3919009092B2012003ABFEF7D8FE89
:101A5000051E04EB05018CB2EEDA01212A4641484D
:101A600001F00EFC29463C4801F00AFC76E7002113
:101A700041F288323C4801F003FC0020FEF760FC94
:101A800001280546B3D18BE70021384801F0F8FB67
:101A90000020012141F288320346FEF75BFB054638
:101AA0000028A4D10146324801F0EAFB78E74FF460
:101AB000027000F097FBC20729D4002000F0C4FC9C
:101AC00000283FF46DAFB0F5006F28BF4FF4006001
:101AD00086B21F4900203246FEF7DAFD051E86DD7C
:101AE0000024321B3919002092B2FEF7FBFC051EC0
:101AF00004EB050084B2FFF64CAFA642F1D14FE7EC
:101B0000014640F6B8321B4801F0BAFB26E7002137
:101B1000194801F0B5FB4FF40270012100F080FB81
:101B2000CBE70021154801F0ABFB39E701212A463C
:101B3000134801F0A5FB48E7CC400008191700083E
:101B400009170008E5160008F91600086C4200089D
:101B50005001002050420008884200081842000846
:101B60009441000800420008B0410008C841000844
:101B7000D84100082842000884410008A441000818
:101B8000E4410008704700BF704700BF704700BFC6
:101B9000704700BF007870470170704700207047A1
:101BA000704700BF20B119B1034B596118617047EC
:101BB00002490348F8E700BF1C000020911B000801
:101BC0008D1B0008074B1A8802F4007292B202B90A
:101BD000FEE718B111B1D961986170470249034815
:101BE000F9E700BF1C000020A11B00089D1B000896
:101BF00070B50C46052804D8DFE800F0062D5464C3
:101C00006B7EFF2358B270BD06224FF4106000F0C7
:101C10005FFB04F10E0104224FF4807000F058FBCA
:101C200004F10A0104224FF4A06000F051FBA11D51
:101C300004224FF4706000F04BFB394B207DA67CF2
:101C4000E57C617DA27D98701E705D70D9701A71FF
:101C5000002358B270BD06224FF4106000F000FB64
:101C600004F10E0104224FF4807000F0F9FA04F13F
:101C70000A0104224FF4A06000F0F2FAA11D042230
:101C80004FF4706000F0ECFA254A00239078167843
:101C90005578D17812792075A674E5746175A275AE
:101CA00058B270BD0C7834F03A05AAD1284600F03D
:101CB00099FA40EA0402D1B2284600F0B1FA2B4664
:101CC00058B270BD002000F08DFA0023207058B289
:101CD00070BD4FF4D850097800F0A2FA61884FF433
:101CE000C850090A00F09CFA4FF4D050A17800F0D7
:101CF00097FA002358B270BD4FF4D85000F072FA32
:101D000020704FF4C85000F06DFA05464FF4D050E3
:101D100000F068FA002300EB0520608058B270BD27
:101D20001C01002030B587B0054606224FF4106034
:101D30000C4604A900F094FA4FF4807001A9042223
:101D400000F08EFA4FF4A06002A9042200F088FA95
:101D500004224FF4706003A900F082FA8021002071
:101D600000F05EFA002000F03DFA4FF4106004A984
:101D7000062200F0ADFA4FF4807001A9042200F0B1
:101D8000A7FA4FF4A06002A9042200F0A1FA4FF4D0
:101D9000706003A9042200F09BFA002D3AD0297844
:101DA0006B78AA78CB18E8789B182A7918188318CA
:101DB0006A7903F0FF03A8799B18EA791818831849
:101DC0005AB2102A67DC41F6087000F029FA6978E7
:101DD00041F6287000F024FAA97841F6487000F026
:101DE0001FFAE97841F6687000F01AFA297941F68D
:101DF000887000F015FA697941F6A87000F010FAC1
:101E0000A97941F6C87000F00BFA41F6E870E9795B
:101E100000F006FA002C3AD060782178A2780B18EE
:101E2000E0789B18227918188318627903F0FF0371
:101E3000A0799B18E279181883185AB2102A2ADC64
:101E400041F6086000F0ECF9617841F6286000F096
:101E5000E7F9A17841F6486000F0E2F9E17841F64F
:101E6000686000F0DDF9217941F6886000F0D8F96A
:101E7000617941F6A86000F0D3F9A17941F6C86014
:101E800000F0CEF941F6E860E17900F0C9F90021EF
:101E900048B207B030BDFF21FAE700BF70B50C466D
:101EA00086B00F2800F2A080DFE810F0E9002201E0
:101EB000290139014701540162016F017D0131009F
:101EC0001000A0007A004A00D400E0000D784B78A2
:101ED000012D14BF1022502214BF0825482514BF1D
:101EE0001826582614BF3821782114BF002040201E
:101EF000012B08D0E378A178012B00F06C81012937
:101F000014BF014611464FF4385000F089F94FF4E0
:101F1000385000F067F900F07F014FF4385000F0BE
:101F20007FF94FF4385000F05DF960F07F02D1B2D4
:101F30004FF4385000F074F9002040B206B070BD84
:101F40004FF438500C7800F04DF900F04001CAB25F
:101F5000002A49D0012C00F0C70023D040F03801FE
:101F60004FF4385000F05CF94FF4385000F03AF973
:101F700000F07F014FF4385000F052F94FF4385020
:101F800000F030F960F07F03D9B24FF4385000F020
:101F900047F94FF4385000F025F910F0380F23D0EE
:101FA0000020CAE740F030014FF4385000F038F913
:101FB0004FF4385000F016F900F07F014FF438501C
:101FC00000F02EF94FF4385000F00CF960F07F016A
:101FD000C9B24FF4385000F023F94FF4385000F0F4
:101FE00001F910F0300FDBD1FF20A6E74FF4385095
:101FF00000F0F8F8C0F3801200F0380020282270BA
:1020000000F0E080382800F0DD8000236370A0F14C
:102010001003DAB2102A00F2DB80012101FA03F387
:1020200003F0013222F08073002B00F0D180A17008
:102030000838C2B2182A00F2C880012303FA00F05F
:1020400000F0013121F48072002A00F0BE80E370BC
:10205000002072E74FF4385000F0C4F810F0300F51
:102060000CBF002301232370002066E74FF4385093
:1020700000F0B8F800F00100207000205DE74FF498
:10208000106004A9062200F0EBF84FF4807001A95B
:10209000042200F0E5F84FF4A06002A9042200F049
:1020A000DFF804224FF4706003A900F0D9F8802112
:1020B000002000F0B5F8002000F094F84FF4106014
:1020C00004A9062200F004F94FF4807001A904224B
:1020D00000F0FEF84FF4A06002A9042200F0F8F826
:1020E0004FF4706003A9042200F0F2F8002024E706
:1020F00009B101F108012046FFF714FE1DE74FF476
:10210000A85000F06FF805464FF4B85000F06AF898
:1021100005F0F00303EB0020208000200DE70C8881
:102120004FF4A85004F0F00100F07AF84FF4B850E2
:10213000210A00F075F80020FFE60C884FF4B0503B
:10214000E1B200F06DF84FF4C050210A00F068F8D9
:102150000020F2E64FF4B05000F044F805464FF48A
:10216000C05000F03FF805EB002121800020E4E69C
:102170000A884FF49850110A00F052F84FF4A0501A
:10218000217800F04DF80020D7E64FF4985000F089
:1021900029F805464FF4A05000F024F800EB052084
:1021A00020800020C9E60E4B00229978104621704D
:1021B000D97861701979A1705979E1709B79627150
:1021C0002371BAE60121617021E70020E070B4E6D6
:1021D0000021A1702CE701290CBF3146294692E667
:1021E0001C00002038B540F21C04C2F20004A368B1
:1021F0000546984720698047E169C5F3074088474D
:10220000E269C5F307209047E369E8B29847A569FA
:10221000A847054660698047E1688847284638BD79
:1022200070B540F21C04C2F20004A36805460E46D5
:10223000984720698047E169C5F307408847E2690C
:10224000C5F30720904745F00403D8B2E1698847F9
:102250003046E269904760698047E368984770BDFF
:10226000F8B51A4D0646AB6817460C4698472869DC
:102270008047C6F30740E9698847C6F30720EA6943
:102280009047EB69F0B29847D7B1013FB8B2A9695E
:10229000261800F001078847B442207010D02FB1F3
:1022A000AA69904704F8010FB44209D0AB69984776
:1022B0006070A8698047611C0234B4424870F5D14F
:1022C0006A699047EB689847F8BD00BF1C00002082
:1022D000F8B51B4D0446AB6816460F46984728696B
:1022E0008047C4F30740E9698847C4F30720EA69D7
:1022F000904744F00400EB69C0B29847DEB1013E5C
:10230000B1B23C46EA697F18207801F00106904797
:10231000BC4210D02EB114F8010FEB699847BC42B3
:1023200009D06078661CE96988470234EA697078E8
:102330009047BC42F5D168698047EB689847F8BD83
:102340001C0000202DE9F04F400100F1080303F5C7
:1023500004513C4C85B003F50059CDB24FF0000B51
:102360000A0A4FEA192A02955FFA89F903925E4632
:10237000254601E0864260D0A768B84720698047BB
:10238000E36958469847E16950468847E2694846FC
:102390009047A769B847074660698047E368984750
:1023A0003902A2681FFA81F890472769B847E369A4
:1023B00000209847E16903988847E26902989047AE
:1023C000A0698047636907469847E168884708EB3A
:1023D000070290B20028CDD0AE680090B0472869BF
:1023E0008047EB6958469847E96950468847EA694B
:1023F00048469047AE69B047064668698047EB6833
:1024000098473102AA688EB2904728698047EB69E5
:1024100000209847E96903988847EA69029890473D
:10242000A86980476B6901909847E9688847019AD5
:102430000098B618B6B286429ED1304605B0BDE8C7
:10244000F08F00BF1C0000202DE9F04F400100F18B
:10245000080303F51C513C4C85B003F51859CDB267
:102460004FF0000B0A0A4FEA192A02955FFA89F920
:1024700003925E46254601E0864260D0A768B847D1
:1024800020698047E36958469847E1695046884784
:10249000E26948469047A769B847074660698047A0
:1024A000E36898473902A2681FFA81F890472769C4
:1024B000B847E36900209847E16903988847E269D3
:1024C00002989047A0698047636907469847E1688A
:1024D000884708EB070290B20028CDD0AE68009084
:1024E000B04728698047EB6958469847E9695046E4
:1024F0008847EA6948469047AE69B047064668692A
:102500008047EB6898473102AA688EB290472869E5
:102510008047EB6900209847E96903988847EA6992
:1025200002989047A86980476B6901909847E968CD
:102530008847019A0098B618B6B286429ED13046B6
:1025400005B0BDE8F08F00BF1C0000202DE9F04F62
:10255000154685B0002A7ED0404C8200561CA368E8
:102560008DE80600F60098474FF0000B06F510576F
:10257000206980474FEA172AE16958468847E2698F
:1025800050469047E36907F0F8009847A0698047F4
:10259000616902908847E2689047A368984706F50A
:1025A0001456206980474FEA1628E1695846884743
:1025B000E26940469047E36906F0F8009847A06951
:1025C0008047616903908847E2689047DDF808C05A
:1025D000039B019903EB0C208A1CD3001FFA80FC9B
:1025E00003EB0C202A460099CDF808C0FFF770FED7
:1025F000DDF808C0A0686544804721698847E26922
:1026000058469047E3695046984747F00400E1690F
:10261000ADB200F0FC008847E269280A9047636980
:102620009847E0688047A168884722699047E36936
:1026300058469847E1694046884746F00400E269F9
:1026400000F0FC009047E8B2E36998476169884769
:10265000E068D946804705B0BDE8F08F1C00002037
:102660002DE9F04F154685B0002A7ED0404C8200FF
:10267000561CA3688DE80600F60098474FF0000B43
:1026800006F52057206980474FEA172AE169584626
:102690008847E26950469047E36907F0F800984799
:1026A000A0698047616902908847E2689047A36803
:1026B000984706F52456206980474FEA1628E169B5
:1026C00058468847E26940469047E36906F0F800BB
:1026D0009847A0698047616903908847E2689047FE
:1026E000DDF808C0039B019903EB0C20CA1CD30042
:1026F0001FFA80FC03EB0C202A460099CDF808C095
:10270000FFF7AEFDDDF808C0A06865448047216989
:102710008847E26958469047E3695046984747F032
:102720000400E169ADB200F0FC008847E269280AC4
:10273000904763699847E0688047A16888472269A5
:102740009047E36958469847E1694046884746F014
:102750000400E26900F0FC009047E8B2E3699847A2
:1027600061698847E068D946804705B0BDE8F08FC9
:102770001C0000202DE9F04F40F21C0483B0C2F28F
:1027800000044001A36800F10805009198474FF04C
:10279000000B216905F5205688474FEA162AE269A1
:1027A000584690475046E769B847E36906F0F80095
:1027B0009847A0698047616907468847E268904763
:1027C000A368984705F52455206980474FEA1528E6
:1027D000E16958468847E26940469047E36905F059
:1027E000F8009847A0698047616901908847E268CE
:1027F00090470098019BA268191801EB07279047A2
:1028000023699847E16958468847E26950469047EE
:1028100046F00400E369BFB200F0FC009847E169AC
:10282000380A884762699047E0688047A3689847FC
:1028300021698847E26958469047E36940469847CE
:1028400045F00400E16900F0FC008847F8B2E26955
:10285000904763699847E068D946804703B0BDE870
:10286000F08F00BF064A10B541F208031468C4F2A5
:1028700002031A681CB1002001460346A04710BDA0
:102880002401002001387FF4FDAF704738B5C0F354
:10289000044385B205FA03F544F2A021C0F6000115
:1028A000000F51F820401020226845EA02032360FF
:1028B000FFF7E8FF216821EA0505256038BD00BF64
:1028C000C0F3044382B202FA03F244F2A021C0F63C
:1028D0000001000F01EB8003D86801680A43026021
:1028E000704700BF4FF48053C4F202032DE9F00398
:1028F0001D6841F2040445F001061E60C4F20204A2
:1029000027680025CFF2FF053D4025601E6841F293
:10291000080526F0847727F480361E601F68C4F20D
:10292000020527F480261E602768C1F3072C27F4D0
:10293000FE0626602F68032407F41F0941F22C06C7
:10294000C0F20104C5F80090ACF10408C4F202061C
:10295000B04F0C40B8F10C0F94BF65460825D6F86F
:1029600000C0012C4FF0000CC6F800C082B03D60E2
:1029700077D073D21C681D4644F001041C602B689C
:102980009B07FCD541F20403C4F202031C681D46F8
:1029900024F003041C601C681C602B6813F00C0FEF
:1029A000FBD1CD0707D54FF48055C4F202052C6842
:1029B00024F001032B60CC0107D54FF48055C4F2FD
:1029C00002052C6844F080732B604FF40053C4F26E
:1029D00002031D684FF45854C0F26E1445F02005F0
:1029E000A0421D6060D81C6824F007041C601C68AD
:1029F0001C6041F20403C4F202031C68904224F4F8
:102A00007F5424F030041C6024D082426AD9B2FB87
:102A1000F0F300FB1320E8B9DA0500F10181180694
:102A200000F1FC80590600F103819A0600F1FE8056
:102A3000D80600F1F980190700F1F4805A0700F177
:102A4000B88013F0020140F0A680D80748BF0B46BB
:102A500000F1A28002B0BDE8F0037047B4F1011F9D
:102A6000B3D14FF48055C4F202052A682C4622F4F3
:102A700080332B602A6822F400332B602A6842F4EA
:102A800080332B6002E0002B40F095802568019A8E
:102A9000C5F34043551C0195019AB2F5A06FF2D1E0
:102AA000002B40F08880FEE74FF4D844C0F2DC24CD
:102AB000A0420ED94FF42244C0F24A44A04298D812
:102AC0001C6824F007041C601C6844F002041C60AD
:102AD0008FE71C6824F007041C601C6844F00104A4
:102AE0001C6086E7C90337D5B0FBF2F102FB110485
:102AF000002C3ED11A68023942F4803018601A68FE
:102B0000890422F478121A60186801F4701141EAFD
:102B100000021A6041F20403C4F2020318684FF481
:102B2000805218601968C4F2020241F480501860A3
:102B30001168184641F08071116012681A6822F01D
:102B4000030119601A6842F002011960036803F07A
:102B50000C02082AFAD17DE74000B0FBF2F102FB3B
:102B60001102002A7FF476AF1868890420F47412E9
:102B7000C9E74000B0FBF2F102FB1102002A7FF42A
:102B800069AF1868023940F440321A601868890445
:102B900020F47012B7E701231F4841F20402C4F287
:102BA0000202C318116893F8D80141EA00131360B8
:102BB00050E70223F0E741F20403C4F202031D6868
:102BC0001C4625F003021A601D6845F001021A60D8
:102BD000236803F00C05042DFAD13A6844F240242E
:102BE000C0F20F04CD0704FB02F207D54FF4805367
:102BF000C4F202031D6825F001041C60CC017FF5BE
:102C0000E4AE4FF48053C4F202031D6825F08074D3
:102C10001C60DAE63C000020A04200080723BBE766
:102C20000823B9E70323B7E70423B5E70523B3E790
:102C30000623B1E741F20403C4F202031A6810B498
:102C400002F00C00042813D008281AD04FF4905139
:102C50001E4AC0F27A0141F20400C4F20200036885
:102C6000C3F303101218137921FA03F010BC704754
:102C7000164A44F240231168C0F20F0303FB01F12E
:102C8000E9E718681968C0F383430233C80314D511
:102C90000E4A41F22C00146844F24021C4F20200B2
:102CA000C0F20F01006801FB04F100F00F000130D9
:102CB000B1FBF0F103FB01F1CDE74FF41062C0F27C
:102CC0003D0202FB03F1014AC5E700BF3C000020C2
:102CD00041F20403C4F202031A6810B402F00C00BB
:102CE00004281AD0082821D04FF49051214AC0F26C
:102CF0007A0141F20403C4F202031868C0F303101E
:102D0000101800791B6821FA00F1C3F30220121891
:102D1000137921FA03F010BC7047164A44F240239D
:102D20001168C0F20F0303FB01F1E2E718681968AC
:102D3000C0F383430233CA0314D50E4A41F22C0078
:102D4000146844F24021C4F20200C0F20F0100688E
:102D500001FB04F100F00F000130B1FBF0F103FBC7
:102D600001F1C6E74FF41062C0F23D0202FB03F12D
:102D7000004ABEE73C00002041F20403C4F2020313
:102D80001A6810B402F00C0004281AD0082821D0C8
:102D90004FF49051214AC0F27A0141F20403C4F287
:102DA00002031868C0F30310101800791B6821FA99
:102DB00000F1C3F3C2201218137921FA03F010BCFA
:102DC0007047164A44F240231168C0F20F0303FB18
:102DD00001F1E2E718681968C0F383430233C903BD
:102DE00014D50E4A41F22C00146844F24021C4F27A
:102DF0000200C0F20F01006801FB04F100F00F00B7
:102E00000130B1FBF0F103FB01F1C6E74FF41062B2
:102E1000C0F23D0202FB03F1004ABEE73C00002085
:102E200043F20803C4F201031A6810B554060DD525
:102E300043F20C01C4F2010109681B680C480468E4
:102E40001CB1002001460346A04710BD900607D5DF
:102E50004FF44054C4F201041B6823682360EDE77B
:102E6000D106EBD5196821F010001860E6E700BF25
:102E70002801002043F60803C4F200031A6810B5C5
:102E800054060DD543F60C01C4F2000109681B6815
:102E90000B4844681CB1002001460346A04710BD02
:102EA000900606D54FF46054C4F2000423682360F2
:102EB000EEE7D106ECD5196821F010001860E7E7BD
:102EC0002801002043F60843C4F200031A6810B535
:102ED00054060DD543F60C41C4F2000109681B6885
:102EE0000B4884681CB1002001460346A04710BD72
:102EF000900606D54FF47054C4F200042368236092
:102F0000EEE7D106ECD5196821F010001860E7E76C
:102F100028010020B1F5007F03680DD023F4007173
:102F200001600268436812F0040F14BF43F0040309
:102F300023F004034360704743F4007101600268AA
:102F400042F480730360704738B50368044623F089
:102F50008705256023684FF44050C4F201001A43EE
:102F6000844222600D4622D0FFF7B2FEB0FBF5F19D
:102F70004A1C5008431E022B17D9042B0CD9082BCE
:102F80001AD9102B16D9202B18D9402B18D9802BE1
:102F90008CBF3821302100E00821226822F038005F
:102FA000206023681943216038BD0021F5E7FFF751
:102FB000E3FEDBE71821F0E71021EEE72021ECE744
:102FC0002821EAE700F108031A689207FCD5C160DE
:102FD0001968CA07FCD5C068704700BF036843F092
:102FE00040010160704700BF064A40F6585311681F
:102FF000C2F20003002918BF0B46181810601846CB
:10300000704700BF340100204FF0FF30704700BF11
:103010004FF400534B600020704700BF0120704701
:103020000020704700207047F8B5171E2DDD0C46B4
:10303000CB43CE194FF4605014F8011BF218C4F2C0
:10304000010002F0010500F015F9B4421DD04DB1A8
:1030500014F8011B4FF46050C4F2010000F00AF9AB
:10306000B44212D025464FF4605015F8011BC4F24B
:10307000010000F0FFF84FF460506178C4F20100E5
:103080006C1C00F0F7F8B442ECD13846F8BD00BF34
:103090004FF46053C4F2010306481A68196810B56A
:1030A000046821EA020119601CB1002001460346B0
:1030B000A04710BD380100204FF48843C4F200033C
:1030C00006481A68196810B5446821EA02011960B7
:1030D0001CB1002001460346A04710BD3801002066
:1030E0004FF49043C4F2000306481A68196810B5FB
:1030F000846821EA020119601CB1002001460346E0
:10310000A04710BD380100204FF49843C4F20003DB
:1031100006481A68196810B5C46821EA02011960E6
:103120001CB1002001460346A04710BD3801002015
:103130004FF4A043C4F2000306481A68196810B59A
:10314000046921EA020119601CB10020014603460E
:10315000A04710BD38010020F8B54FF46053C4F209
:103160000103984204460F4616464DD04FF488405E
:10317000C4F20000844268D04FF49041C4F20001D0
:103180008C4268D04FF49842C4F20002944235D089
:103190001020C2F21000FFF779FB256906F44053B6
:1031A00025F4405020612361E16806F4B05621F413
:1031B000B05222F00C05E560E660FFF789FD04F1EE
:1031C0000C0500EB800101EB8100BF0048F21F53AA
:1031D000B0FBF7F1C5F2EB13A3FB01026420520927
:1031E00002FB101108013230A3FB0003C3F34311AB
:1031F00041EA02122B682B68A260F8BD0820C2F2D7
:103200001000FFF743FBC8E74FF48040C1F2000015
:10321000FFF73CFB43F61003C4F20103186806F401
:10322000405220F4405143F60C051960C4F20105E8
:103230001A602B6806F4B05623F4B05020F00C024C
:103240002A602E60FFF798FDBBE70220C2F2100053
:10325000FFF71CFBA1E70420C2F21000FFF716FBEA
:103260009BE700BFC26842F20C030B4042EA030135
:10327000C160704703681B06FCD54160704700BF02
:103280000FB40A4B13B51C6824B1A06910B92046CD
:1032900000F0B4FC05AB2046A168049A019300F04D
:1032A0003BF8BDE81C4004B0704700BFB8000020E8
:1032B0000D4B10B50446186818B182690AB900F0C0
:1032C0009DFC013C084814F8011F006829B1826880
:1032D00000F0F4FD421CF5D110BD82680A21BDE862
:1032E000104000F0EBBD00BFB8000020936810B59F
:1032F000013B002B936005DA9469A34208DBCBB253
:103300000A2B05D01368C8B203F8011B136010BD67
:10331000BDE8104000F0AABA2DE9F0479CB00D4678
:1033200014460393064618B183690BB900F066FC96
:103330007C48854201D1756808E07B498D4201D106
:10334000B56803E0794A954208BFF568AB8903F098
:10335000080001B251B12A6942B100272023302070
:1033600009978DF829308DF82A003CE0304629462F
:1033700000F0D6FA0028F0D04FF0FF30CEE00398EE
:103380000768021D002F03927DDB07970134207828
:103390002E2800F08A80664F21783846032200F0FC
:1033A00077FD38B1C71B402101FA07F1049B0134B6
:1033B0000B43049314F8011B5E4806228DF8281075
:1033C00000F066FD002800F094805B4A002A40F07F
:1033D0008780039FFB1D23F0070008300390099AA4
:1033E00002EB0801099121460F4611F8012B2AB979
:1033F000B7EB040A15D04FF000090CE0252AF3D1F1
:10340000F6E7304614F809102A46FFF76FFF01303F
:103410007CD009F10109D145F3DB099B03EB0A00DC
:1034200009903978002971D000244FF0FF320494BC
:103430000794059206948DF853401A9407F10109F8
:103440003E4F4C4638462178052200F021FD09F117
:103450000109049B30B1C41B012707FA04F73B4361
:103460000493EDE7D90602D520208DF853001A0702
:1034700002D52B218DF8531022782A2A3FF47FAFF2
:10348000079B274605E0794243F002030791049326
:103490007CE73C46217801373039092903D80A24D2
:1034A00004FB0313F5E7079371E762782A2A09D131
:1034B000039802340368021D002B0392B8BF4FF03B
:1034C000FF330BE0671C00233C462178013730397D
:1034D000092903D80A2404FB0313F5E705935AE7E7
:1034E00003A90091304604A92A46154BAFF300808A
:1034F00007E003A8009004A930462A46104B00F0CC
:1035000091F8B0F1FF3F80467FF469AFAB8903F0DB
:10351000400002B2002A7FF42FAF09981CB0BDE82A
:10352000F08700BFC4440008E444000804450008D4
:10353000964400089A4400080000000090440008E7
:10354000ED3200082DE9F047154699468A680B6967
:1035500080469A42A8BF13462B6091F843000C4660
:10356000DDF820A008B1591C29602668B20602D5F2
:103570002A68931C2B60206810F0060618D094F877
:10358000437020683E1C18BF012683061AD5A11976
:10359000302281F8432094F84530023681F84430D7
:1035A00010E04046617E4A46D047013006D00136E1
:1035B000E1682A688B1A9E42F3DBE0E74FF0FF30A8
:1035C000BDE8F0870027B74209DAE119404691F8D3
:1035D00043104A46D0470130F0D00137F3E7216865
:1035E0002868E66801F00602042A08BFC0EB060559
:1035F0002369A6680CBF25EAE57500259E42C4BF75
:10360000C3EB0603ED180026AE4207DA4046A17E62
:103610004A46D0470130D1D00136F5E70020BDE859
:10362000F08700002DE9F0430C46257E85B06E2D15
:103630009046074699460C9904F1430200F0AA808F
:1036400012D8632D24D009D8002D00F0BB80582D4E
:1036500040F0CB8084F84550824D57E0642D20D057
:10366000692D40F0C2801CE0732D00F0AF8009D8B6
:103670006F2D2FD0702D40F0B880256845F02006C2
:1036800026603FE0752D25D0782D40F0AE8039E0E2
:10369000086804F14206021D0A60016884F84210BD
:1036A000A7E020680B6810F0800F02D01E1D0E608E
:1036B00008E003F1040510F0400F0D6002D0B3F9EB
:1036C000001000E0196800293CDA2D20494284F8F6
:1036D000430037E025680E6815F0800F02D0331DD7
:1036E0000B6007E006F1040015F0400F086001D000
:1036F000318800E03168267E5A4D6F2E14BF0A23B0
:1037000008231BE07820584D84F8450020680B689A
:1037100010F0800F03F104060E6003D1410601D5BD
:10372000198800E01968C60744BF40F020002060F7
:1037300019B9206820F0200323601023002084F8AA
:10374000430001E0474D0A236668002EA66003DBB4
:10375000206820F00400206001B96EB104F142003D
:10376000B1FBF3FE03FB1E11695C064600F801196C
:1037700071460029F4D100E01646921B082B226105
:103780003CD12368D80739D56068904236DC511C9B
:10379000616033E026680B6816F0800F05D01E1DAF
:1037A0000E601968606908600CE003F1040016F00F
:1037B000400F086003D018686369038002E0616904
:1037C0001E68316000232361164617E00E68321D23
:1037D0000A603668304600F004FC63682061984255
:1037E00088BF23612069606005E004F1420684F827
:1037F000425001232361002184F84310CDF800904A
:103800003846214603AA4346FFF79CFE013002D109
:103810004FF0FF3022E000252269954207DA384652
:10382000715D4246C8470130F2D00135F4E72168A6
:10383000890705D4E06803998842B8BF08460DE0BF
:103840000025E068039BC21A9542F3DA3846617E90
:103850004246C8470130DBD00135F2E705B0BDE88C
:10386000F08300BFA1440008B244000870B50E46C2
:103870001446054618B183690BB900F0BFF9254815
:10388000844201D16C6808E023498C4201D1AC68C4
:1038900003E0224A944208BFEC68A089A36900F0C3
:1038A00008010AB2A3600AB123695BB92846214620
:1038B00000F036F830B1A689092046F04002A28116
:1038C00028600BE0206821696269401A9042F6B2D4
:1038D00007DB2846214600F099F810B14FF0FF367B
:1038E00015E0A3682268591EA16002F8016B6369A4
:1038F00001309842226004D0A189CB0707D50A2E57
:1039000005D12846214600F081F80028E6D130464E
:1039100070BD00BFC4440008E4440008044500082A
:10392000364A70B5054610680C46164618B18169CE
:1039300009B900F063F9324B9C4202D132685468F5
:103940000CE03048844203D12C4B1868846805E0B1
:103950002D4A944202D1294C2168CC68A18901F0FA
:10396000080318B208BB01F0100213B213B94FF0EC
:10397000FF3070BD01F0040108B290B1616B41B13C
:1039800004F14402914202D0284600F09FF900233E
:103990006363A189236921F024000022A081626071
:1039A0002360A18941F00800A08122694AB9A38956
:1039B00003F42071B1F5007F03D02846214600F0C2
:1039C000C9F9A08910F0010205D0636900225942AB
:1039D000A260A16107E000F0020319B209B96069B1
:1039E00000E01046A060206930B9A28902F080038F
:1039F00018B20028BBD170BD002070BDB8000020F7
:103A0000C4440008E4440008044500080B692DE99B
:103A1000F04105460C46002B3BD018B1816909B92D
:103A200000F0ECF84848844201D16C6808E0474A4D
:103A3000944201D1AC6803E0454B9C4208BFEC685E
:103A4000A18931B301F0080002B2002A61D1626895
:103A500041F40060002AA08102DC236C002B18DDF9
:103A6000E66AB6B101F4805100200AB22F682860DE
:103A70000AB1626D10E001232846216AB047024670
:103A8000013009D12B683BB11D2B01D0162B1BD166
:103A90002F600020BDE8F081A68906F0040001B285
:103AA00029B16368666BD21A0EB1206C121A216AB2
:103AB0000023E66A2846B047411C0DD12A685AB156
:103AC0001D2A09D0162A07D0A1894FF0FF3041F0F6
:103AD0004003A381BDE8F081A389002221696260CF
:103AE00003F48052216011B221B1421C01D12B6834
:103AF00003B96065616B2F600029CAD004F14400EE
:103B0000814202D0284600F0E1F800206063BDE861
:103B1000F0812669002EBCD0890723680CBF61693B
:103B20000021C6EB03082660A160B8F1000FB0DDEC
:103B3000A76A2846216A32464346B8470028C3DDB3
:103B40003618C0EB0808F0E7C4440008E444000855
:103B500004450008F8B5074600F14C0494B1A56887
:103B60006668013E0CD4B5F90C303BB1B5F90E00D6
:103B7000431C03D038462946FFF748FF6835F0E775
:103B80002468EBE7F8BD0000002310B5044603608D
:103B90004360836081814366C281036143618361C5
:103BA0001946082200F15C0000F080F9044805493C
:103BB000054A064B24626062A162E262236310BD83
:103BC000593F00087B3F0008B73F0008DB3F000873
:103BD00070B568254D430E4605F10C0100F00EF955
:103BE000044640B100F10C00002184E84200A060CE
:103BF0002A4600F05BF9204670BD000070B585696B
:103C00000446002D22D1124B012683628661C564D1
:103C10000565456500F01EF86060204600F01AF862
:103C2000A060204600F016F80421E0602A46606893
:103C3000FFF7AAFFA06809213246FFF7A5FFE06859
:103C400012210222BDE87040FFF79EBF70BD00BF89
:103C5000553B0008F8B51C4B07461E68B06910B903
:103C60003046FFF7CBFF4C36B4687168013904D495
:103C7000B4F90C5085B16834F8E732680AB1366897
:103C8000F2E738460421FFF7A3FF30600028F6D1A1
:103C90000C243C60044615E04FF6FF730120A08120
:103CA000E38165662560A560656025616561A56144
:103CB00004F15C002946082200F0F8F86563A5636A
:103CC000A564E5642046F8BD2845000830B5002904
:103CD0003CD051F8042C0B1F1D49002AB8BF9B187B
:103CE0000A6812B95A600B6030BD93420ED219684F
:103CF0005818904203D15A588918426819601448DC
:103D00005A60036030BD994203D80A4651680029C1
:103D1000F9D1146815199D420AD118682318D018D2
:103D20008842136012D108681B1813604B680CE0BE
:103D300002D90C23036030BD18681C188C4203D1D3
:103D40000C684968001918605960536030BD00BFA5
:103D50004C010020F0B58B890C4603F002010AB239
:103D600091B0054652BBB4F90E1000290ADAA189B8
:103D7000002701F0800210B2B84214BF40264FF471
:103D800080660EE001AA00F057F90028EFDB029FE1
:103D900007F47040B0F50056734253EB06074FF43A
:103DA00080662846314600F029F870B9A18901F4EF
:103DB000007210B2E8B941F00203A38104F1470197
:103DC000012221602161626113E0A1890A4B41F067
:103DD0008002AB62A2812060206166614FB12846FB
:103DE000B4F90E1000F03AF918B1A08940F00103BF
:103DF000A38111B0F0BD00BF553B000870B5CD1CCC
:103E000025F0030508350C2D38BF0C25002D06467E
:103E10002DDB8D422BD31D4B1B681C469CB12268A9
:103E2000501B0DD40B2802D92060241817E0A342A0
:103E300003D16068154A10601DE0616859601AE09E
:103E400023466468EAE72946304600F075F8431CCB
:103E500001460CD0CC1C24F003048C4201D1256017
:103E600009E03046611A00F067F80130F7D10C2004
:103E70003060002070BD04F10B01231D21F007000C
:103E8000C31A02D05A42E25070BD70BD4C010020EE
:103E900010B5C9B2034682189342184604D004787C
:103EA00001338C42F8D100E0002010BD8218034697
:103EB000934202D003F8011BFAE7704770B50E4633
:103EC0001446054618B183690BB9FFF797FE1748EA
:103ED000844201D16C6808E015498C4201D1AC687C
:103EE00003E0144A944208BFEC68A368581E0028F7
:103EF000A06014DAA36998420ADB20680670226881
:103F000011780A2902D0084601320DE0284601E066
:103F1000284631462246BDE87040FFF7A7BC21681D
:103F20000E70226812F8010B226070BDC4440008B4
:103F3000E44400080445000838B5064C0023054653
:103F400008462360FFF750F8431C02D1216801B1F5
:103F5000296038BD5009002010B50C46B1F90E108B
:103F600000F09EF8002803DB626D1318636510BD36
:103F7000A38923F48051A18110BD2DE9F0411D4694
:103F80008B890C4603F4807116460AB207462AB1A3
:103F9000B4F90E100022022300F070F8A089B4F9E1
:103FA0000E1020F48053A381384632462B46BDE8DC
:103FB000F04100F01FB810B50C46B1F90E1000F03A
:103FC0005DF8431CA38903D123F48052A28110BD64
:103FD00043F48051A181606510BDB1F90E1000F06D
:103FE0001BB8034613F8012B002AFBD1181A01381D
:103FF0007047000038B5074C054600202060084691
:1040000011461A46FFF710F8431C02D1236803B18A
:104010002B6038BD5009002038B5064C00230546FA
:1040200008462360FEF7F0FF431C02D1216801B16E
:10403000296038BD5009002038B5074C00230546DB
:10404000084611462360FEF7E3FF431C02D12168B6
:1040500001B1296038BD00BF5009002038B5064CB9
:104060000023054608462360FEF7D8FF431C02D113
:10407000216801B1296038BD5009002038B5074CCE
:10408000054600202060084611461A46FEF7C8FF84
:10409000431C02D1236803B12B6038BD50090020B6
:1040A00038B5074C054600202060084611461A46E0
:1040B000FEF7B8FF431C02D1236803B12B6038BD63
:1040C00050090020040001401C00014002020202CD
:1040D0000202020202020202020202020D0A3D3D37
:1040E0003D202573204E455420434F4E46203D3DF4
:1040F0003D0D0A004D41433A20253032583A2530D3
:1041000032583A253032583A253032583A25303232
:10411000583A253032580D0A000000005349503AF1
:104120002025642E25642E25642E25640D0A0000AA
:104130004741523A2025642E25642E25642E25649D
:104140000D0A00005355423A2025642E25642E2581
:10415000642E25640D0A0000444E533A2025642E37
:1041600025642E25642E25640D0A00003D3D3D3D4D
:104170003D3D3D3D3D3D3D3D3D3D3D3D3D3D3D3D6F
:104180003D3D0D0025643A436F6E6E656374656452
:104190000D0A000025643A436C6F736557616974BA
:1041A0000D0A000025643A436C6F7365640D0A00C4
:1041B00025643A4C697374656E2C20706F7274209C
:1041C0005B25645D0D0A000025643A4C425453742B
:1041D0006172740D0A00000025643A4F70656E65C7
:1041E000640D0A0025643A207265637666726F6D0D
:1041F000206572726F722E20256C640D0A0000001B
:1042000025643A2073656E64746F206572726F72F4
:104210002E20256C640D0A0025643A4C42555374D7
:104220006172740D0A00000025643A4F70656E6576
:10423000642C20706F7274205B25645D0D0A000091
:1042400048434C4B203D2025644D487A0D0A000020
:1042500057495A4348495020496E697469616C69ED
:104260007A6564206661696C2E0D0000556E6B6E78
:104270006F776E20504859204C696E6B20737461C3
:104280007574732E0D000000534F434B4554204569
:1042900052524F52203A20256C640D0A0000000053
:1042A000281002400C10024010100240141002406E
:1042B000181002401C10024020100240002401404F
:1042C000000200102200000000280140000400103D
:1042D000220000000000024001000000000011095F
:1042E0000004024002000000000011090008014023
:1042F0000400001000000311000C01400800001031
:104300000000031100100140100000100000031114
:1043100000140140200000100000031100180140AB
:104320004000001000000311001C0140800000103C
:1043300000000311002001400001001000000311E3
:1043400000540040200010202F3000000058004092
:104350004000102031320000002800400080003072
:10436000133900000030014000100010330000003D
:10437000003800400040002034000000003C0040B5
:104380000080002043000000002C014000080010C5
:104390000000290800000040010000202C0000005F
:1043A00000040040020000202D0000000008004032
:1043B000040000202E000000000C00400800002037
:1043C00042000000001000401000002046000000E5
:1043D000001400402000002047000000003401408D
:1043E0000020001000000000004C014008001010E8
:1043F00000000000005001401000101000000000FC
:10440000005401402000101000000000001800407F
:104410004000002000000000001C00408000002040
:10442000000000000020004000010020000000000B
:1044300000380140004000103500000000440040FA
:104440000200102036000000004800400400102048
:1044500037000000004C004008001020440000001D
:10446000005000401000102045000000002C0040CB
:1044700000080020100000000F0E0D0C000B0A09B0
:104480000800000004100240201002402C100240DE
:10449000232D302B2000686C4C006566674546472D
:1044A00000303132333435363738394142434445B0
:1044B000460030313233343536373839616263641F
:1044C0006566000000000000000000000000000021
:1044D00000000000000000000000000000000000DC
:1044E00000000000000000000000000000000000CC
:1044F00000000000000000000000000000000000BC
:1045000000000000000000000000000000000000AB
:10451000000000000000000000000000000000009B
:0C452000000000004300000054000020D8
:10452C0000C000000008DC00ABCDC0A8017BFFFF81
:10453C00FF00C0A801010000000001000102573576
:10454C0035303000851B0008891B00088D1B0008C6
:10455C00911B0008951B0008991B0008080000001F
:10456C00000000000102030401020304060708090D
:10457C000204060800000000C4440008E4440008DB
:10458C0004450008000000000000000000000000CE
:10459C00000000002445000800000000000000009E
:1045AC0000000000000000000000000000000000FF
:1045BC0000000000000000000000000000000000EF
:1045CC0000000000000000000000000000000000DF
:0C45DC000000000000000000540000205F
:0400000508000000EF
:00000001FF
