:020000040800F2
:10000000801A0020270100082501000825010008AA
:100010002501000825010008250100080000000056
:1000200000000000000000000000000025010008A2
:100030002501000800000000250100082501000836
:1000400025010008250100082501000825010008F8
:1000500025010008250100082501000825010008E8
:1000600025010008250100082501000825010008D8
:1000700025010008250100082501000825010008C8
:1000800025010008250100082501000800000000E6
:100090000000000000000000000000002501000832
:1000A0002501000825010008250100082501000898
:1000B0002501000825010008250100082501000888
:1000C0002501000825010008250100082501000878
:1000D0002501000825010008250100082501000868
:1000E0002501000825010008250100080000000086
:1000F0000000000000000000000000000000000000
:1001000000000000000000000000000000000000EF
:100110000000000000000000250100082501000883
:100120005FF808F1FEE708B50C4A0D4B0D498B420C
:1001300004D252F8040F43F8040BF8E70A480B49BD
:100140004FF000028842B8BF40F8042BFADB00F001
:100150000FF8BDE8084001F085BD00BF787B0008BE
:1001600000000020100A0020100A00208016002045
:10017000314B82B01A6842F001021A6059682F4A66
:100180000A405A601A6822F0847222F480321A609F
:100190001A6822F480221A605A6822F4FE025A6019
:1001A0004FF41F029A600022DA62009201921A68EC
:1001B00042F480321A601A6802F400320192009A06
:1001C00001320092019A1AB9009AB2F5A06FF2D1E9
:1001D0001A6812F4003218BF01220192019A012A12
:1001E00005D0174B4FF000629A6002B070475A6812
:1001F0005A605A685A605A685A605A6822F47C12E7
:100200005A605A6842F498125A601A6842F0807232
:100210001A601968084A8901FBD5516821F0030169
:100220005160516841F0020151605A6802F00C02BD
:10023000082AFAD1D5E700BF001002400000FFF8FD
:1002400000ED00E0134910B54B68134A03F00C03AE
:10025000042B01D0082B01D0104B10E04B684868EC
:10026000C3F38343C00341BFC86A0C4C00F00F00C6
:1002700001304CBFB4FBF0F0094802334343136034
:100280004B68C3F30313134419791368CB4013600D
:1002900010BD00BF001002400000002000127A00D4
:1002A00000093D000E4B1A6842F001021A605968BD
:1002B0000C4A0A405A601A6822F0847222F4803292
:1002C0001A601A6822F480221A605A6822F4FE0228
:1002D0005A604FF41F029A600022DA62704700BF32
:1002E000001002400000FFF80C4BB0F5803F1A6888
:1002F00022F480321A601A6822F480221A6003D035
:10030000B0F5802F04D070471A6842F4803202E0C2
:100310001A6842F4A0221A60704700BF0010024021
:10032000034A136823F0F80343EAC00010607047E3
:1003300000100240014B1860704700BF00004242AD
:10034000034A536823F474131943084350607047F9
:1003500000100240014B1860704700BF600042422D
:10036000044AD36A23F4803323F00F03194308436C
:10037000D062704700100240034A536823F0030321
:1003800018435060704700BF00100240024B58688D
:1003900000F00C00704700BF00100240034A536891
:1003A00023F0F00318435060704700BF0010024074
:1003B000034A536823F4E06318435060704700BF5A
:1003C00000100240034A536823F4605343EAC0001C
:1003D0005060704700100240044B1A7809B1104376
:1003E00001E022EA00001870704700BF09100240C7
:1003F000014B1860704700BFD8004242034A53685F
:1004000023F4404318435060704700BF001002407F
:10041000064B002201281A701A7002D0042802D05C
:1004200070471870704705221A70704720100240FC
:10043000014B1860704700BF80044242024A136AB1
:1004400018431062704700BF00100240014B186053
:10045000704700BF3C0442421D4A10B5536803F088
:100460000C03042B01D0082B01D01A4B10E0536869
:100470005168C3F38343C90341BFD16A154C01F0EE
:100480000F0101314CBFB4FBF1F1134902334B436F
:10049000036053681149C3F30313CC5C0368E34062
:1004A00043605468C4F302240C5D23FA04F48460AE
:1004B0005468C4F3C2240C5DE340C3605268C2F3C5
:1004C00081320A44127CB3FBF2F3036110BD00BF1A
:1004D0000010024000127A0000093D0014000020C4
:1004E000044B5A6909B1104301E022EA0000586147
:1004F000704700BF00100240044B9A6909B11043D5
:1005000001E022EA00009861704700BF001002403D
:10051000044BDA6909B1104301E022EA0000D86116
:10052000704700BF00100240044BDA6809B1104365
:1005300001E022EA0000D860704700BF00100240CE
:10054000044B1A6909B1104301E022EA0000186166
:10055000704700BF00100240014B1860704700BF99
:1005600040044242014B1860704700BF4C004242B9
:10057000014B1870704700BF071002404209012A62
:10058000074B01D11B6803E0022A0CBF1B6A5B6AA0
:1005900000F01F0023FA00F000F00100704700BFD8
:1005A0000010024007B5002301933120FFF7E6FF5A
:1005B000019B01330193019BB3F5A06F01D000288B
:1005C000F3D03120FFF7DAFF003018BF012003B06D
:1005D0005DF804FB024A536A43F08073536270472C
:1005E00000100240034B9B68184214BF01200020FA
:1005F000704700BF00100240014B1870704700BFE9
:100600000A10024008B5154B98420BD101214FF456
:100610008050FFF789FFBDE8084000214FF480506B
:10062000FFF782BF0E4B984208D101214FF4804062
:10063000FFF786FF00214FF480400AE0094B984203
:100640000BD101214FF40040FFF77AFF00214FF456
:100650000040BDE80840FFF773BF08BD003001400F
:1006600000380040003C004003880A8810B503F4BD
:1006700041544B8813438A881343CA8813430A8919
:1006800013434A8913438A891343CA891343234373
:100690009BB20380838B23F400631B041B0C8383B6
:1006A0000B8A038210BD838BF0B523F47B6323F0A8
:1006B0000F031B041B0C8383022303848B68868B2C
:1006C000022B87B005460C46B6B223D08B8801A812
:1006D000002B14BF02270127FFF7BEFEE388019914
:1006E000B3F5007F1CBF7F01B1FBF7F14FF00A02A9
:1006F00008BF090A4A43A368B2FBF3F305330A2291
:100700009BB2B3FBF2F303F001021202C3F34F03F7
:1007100092B200E00022991E89B2FE2924BF002275
:1007200002231343E28813439BB22B842388A288BD
:100730001E43638846F4006633431343A289134380
:100740009BB2AB8307B0F0BD00230380438083805E
:10075000C380038143818381C38107230382704760
:1007600000230222038043808380C38082608381D0
:100770007047038819B19BB243F0400303E023F0B4
:1007800040031B041B0C03807047838B19B19BB281
:1007900043F4806303E023F480631B041B0C838316
:1007A00070470123090903FA01F1838889B29BB2DA
:1007B0000AB1194301E023EA01018180704783886F
:1007C0009BB20AB1194301E023EA0101818070471D
:1007D00081817047808980B270474FF6FF639942EC
:1007E00003880BBF23F480739BB21B0443F4807314
:1007F00008BF1B0C03807047838819B19BB243F07C
:10080000040303E023F004031B041B0C83807047E4
:10081000038823F400631B041B0C038003889BB232
:1008200019430180704703889BB243F480530380CF
:100830007047038819B19BB243F4005303E023F4DB
:1008400000531B041B0C03807047012914BF008B4D
:10085000808A80B27047008A80B270470388B1F501
:10086000804F15BF23F480439BB21B0443F48043A5
:1008700018BF1B0C038070470389194214BF012065
:1008800000207047C94389B20181704710B5848840
:100890000389012201F00F009BB202FA00F0184018
:1008A000A4B205D009098A40144214BF01200020D7
:1008B00010BD01F00F01012303FA01F1C94389B210
:1008C00001817047044B0246196809B90349196050
:1008D000186802441A607047100A00208016002031
:1008E0004FF0FF3070474FF0FF3070474FF4005328
:1008F0004B600020704701207047002070470020A7
:10090000704710467047FEE738B505460C4CA368A3
:10091000984723699847E369C5F307409847E36917
:10092000C5F307209847E369E8B29847A369984759
:10093000054663699847E3689847284638BD00BF75
:100940004800002070B505460E460D4C45F00405E4
:10095000A368984723699847E369C5F30740984718
:10096000E369C5F307209847E369E8B29847E3696C
:100970003046984763699847E368BDE87040184778
:10098000480000202DE9F0410646124C0F46A368AE
:100990001546984723699847C6F30740E369984787
:1009A000C6F30720E3699847F0B2E3699847013D31
:1009B0007E1E3D44AE4207D0A369984706F8010F5A
:1009C000F11B01F047F9F5E763699847E368BDE873
:1009D000F0411847480000202DE9F0410746124C2D
:1009E0000D46A368164647F00407984723699847C1
:1009F000C7F30740E3699847C7F30720E3699847BF
:100A0000F8B2E3699847013E6F1E3544AF4204D007
:100A1000E36917F8010F9847F8E763699847E368B7
:100A2000BDE8F041184700BF480000204001F8B57C
:100A300000F1080606F50057002406F5045638466E
:100A4000FFF762FF000285B23046FFF75DFF2844E2
:100A500085B24DB13846FFF757FF000284B23046E9
:100A6000FFF752FF204484B2AC42E8D12046F8BDE3
:100A70004001F8B500F1080606F51857002406F500
:100A80001C563846FFF740FF000285B23046FFF79C
:100A90003BFF284485B24DB13846FFF735FF0002D1
:100AA00084B23046FFF730FF204484B2AC42E8D134
:100AB0002046F8BD2DE9F0478A46914622B38700CB
:100AC0007E1CF60006F510584046FFF71DFF06F5A0
:100AD000145605463046FFF717FF00EB052084B299
:100AE000023720024C444A46514600EBC700A4B2EC
:100AF000FFF772FF210A4046FFF724FFE1B23046BC
:100B0000BDE8F047FFF71EBFBDE8F0872DE9F047CD
:100B10008A46914622B387007E1CF60006F52058CF
:100B20004046FFF7F1FE06F5245605463046FFF72E
:100B3000EBFE00EB052084B2033720024C444A460A
:100B4000514600EBC700A4B2FFF71CFF210A404644
:100B5000FFF7F8FEE1B23046BDE8F047FFF7F2BE1E
:100B6000BDE8F0874001F8B500F1080606F520570A
:100B700038460D46FFF7C8FE06F5245604463046B3
:100B8000FFF7C2FE284400EB0424A4B2210A384631
:100B9000FFF7D8FEE1B23046BDE8F840FFF7D2BE1D
:100BA0000828F8B5054628D84401083404F58077AC
:100BB00010213846FFF7C6FE3846FFF7A5FE064669
:100BC0000028F9D11F2104F50070FFF7BBFE0C4B84
:100BD000012202FA05F11A8804F5407422EA0102A2
:100BE0001A8003EB45021D445680AE742046FFF781
:100BF0008BFE0028FAD10120F8BD4FF0FF30F8BD80
:100C0000140A002008282DE9F041044688461746BA
:100C10001D4665D8042967D801238B4013F0160FB1
:100C200062D015F0060F63D185B1012902D00229E7
:100C300003D00BE015F0210F07E0A90601D52A0625
:100C400056D5EB0602D515F0800F51D0204666012F
:100C5000FFF7A6FF083625F00F0141EA08013046EC
:100C6000FFF770FE57B94FF6F071234A17887B1CC7
:100C70009BB28B4208BF4FF440431380390A06F5FC
:100C80008060FFF75FFEF9B206F5A06006F5807799
:100C9000FFF758FE01213846FFF754FE3846FFF7AC
:100CA00033FE0028FAD1154A05F00105538BA54003
:100CB0001D43012303FA04F11388558323EA01033A
:100CC000138002EB440322445880907406F540766A
:100CD0003046FFF719FE0028FAD060B2BDE8F08177
:100CE0004FF0FF30BDE8F0816FF00400BDE8F08107
:100CF0006FF00500BDE8F08128000020140A0020F4
:100D0000082870B505462CD8440108342046FFF762
:100D1000FBFD00F00F00012826D104F54076304697
:100D2000FFF7F2FD132822D104F58074022120463A
:100D3000FFF708FE2046FFF7E7FD0028FAD130460E
:100D4000FFF7E2FD14280AD02046FFF7DDFD00285A
:100D5000F5D12846FFF724FF6FF0030070BD012096
:100D600070BD4FF0FF3070BD6FF0040070BD6FF0CC
:100D7000020070BD08282DE9F04107460D46904657
:100D800057D8440108342046FFF7BEFD00F00F009D
:100D9000012852D104F540763046FFF7B5FD1328FF
:100DA0004FD12B786A7802EB0321AA78013B02EB42
:100DB000012203EB0223033347D8B8F1000F48D0D8
:100DC0000422294604F54060FFF706FE4FEA182189
:100DD00004F58050FFF7B6FD04F580755FFA88F1E1
:100DE00004F58850FFF7AEFD04212846FFF7AAFD61
:100DF0002846FFF789FD0028FAD1184B5B8B3B4151
:100E0000DA0728D404F500743046FFF77DFD172873
:100E10000CD02046FFF778FD0307F5D520460821C2
:100E2000FFF790FD6FF00C00BDE8F0810120BDE8F8
:100E3000F0814FF0FF30BDE8F0816FF00400BDE8B5
:100E4000F0816FF00200BDE8F0816FF00B00BDE8AB
:100E5000F0816FF00A00BDE8F08100BF140A0020A5
:100E6000082870B5054634D8440108342046FFF7F9
:100E70004BFD00F00F0001282ED104F580760821EB
:100E80003046FFF75FFD3046FFF73EFD0028FAD100
:100E9000134B012202FA05F11A8822EA01021A8094
:100EA0005B8B2B41DA0719D404F5407604F5007406
:100EB0003046FFF729FD50B12046FFF725FD030717
:100EC000F6D52846FFF76CFE6FF00C0070BD0120D0
:100ED00070BD4FF0FF3070BD6FF0040070BD00BFFB
:100EE000140A002008282DE9F84F06468A461446C1
:100EF00074D8450108352846FFF706FD00F00F00BD
:100F000001286FD1002C71D005F540794846FFF7D4
:100F1000FBFC172801D01C286CD1384F3B8833418B
:100F2000D9071ED505F500784046FFF7EDFCC2064F
:100F30000BD510214046FFF705FD012303FA06F209
:100F40003B8823EA02033B800BE0030702D4002026
:100F5000BDE8F88F3046FFF723FE6FF00C00BDE8C8
:100F6000F88F05F5F850FFF7CFFC800280B284427D
:100F700028BF04464FF0010808FA06F83046FFF78C
:100F800055FD83464846FFF7BFFC172805D01C28AF
:100F900003D03046FFF704FE2CE07B8B13EA080FEA
:100FA00002D0A34502D2D2E7A345E7D3514630464B
:100FB000224605F58075FFF77DFD20212846FFF7C5
:100FC000C1FC2846FFF7A0FC0028FAD13B88204648
:100FD00048EA0308A7F80080BDE8F88F4FF0FF301B
:100FE000BDE8F88F6FF00400BDE8F88F6FF00D00DA
:100FF000BDE8F88F6FF00600BDE8F88F140A0020F6
:101000002DE9F74F08288046009117465BD8440128
:1010100008342046FFF778FC00F00F06012E55D16A
:10102000002F56D004F5F050FFF76EFC834606FA09
:1010300008F604F5407904F5F85A4046FFF718FD24
:1010400005464846FFF760FC17282AD01C2822D105
:10105000B5B14FEA8B2080B2874228BF0746BD4218
:10106000284628BF384687B2009940463A4604F5DC
:101070008074FFF74BFD40212046FFF763FC1BE027
:101080004046FFF7D3FC01905046FFF73DFC019925
:10109000B1EB802F05D14046FFF782FD6FF00600CF
:1010A00019E00E4B598B314203D0002DD1D1284687
:1010B00011E0002DC1D0CCE72046FFF725FC002829
:1010C000FAD1384607E04FF0FF3004E06FF004003B
:1010D00001E06FF00D0003B0BDE8F08F140A0020AE
:1010E0002DE9F84F08280746894614469A46BDF868
:1010F000286072D8450108352846FFF705FC00F046
:101100000F00022801D004286BD1002C6DD0DAF832
:101110000030002B6DD0002E6FD005F54078404692
:10112000FFF7F2FB422801D022286AD1042251465F
:1011300005F54060FFF750FC310A05F58050FFF7D8
:1011400001FCF1B205F58850FFF7FCFB05F5F850FE
:10115000FFF7DAFB800280B2844228BF04460126F2
:10116000DFF8B4B0BE403846FFF760FC8246404628
:10117000FFF7CAFB002848D0BBF81A30334202D030
:10118000A24502D245E0A245EDD349463846224663
:1011900005F58076FFF78EFC20213046FFF7D2FB65
:1011A0003046FFF7B1FB0028FAD105F50075284657
:1011B000FFF7AAFBC20606D528461021FFF7C2FB9F
:1011C0002046BDE8F88F0307F1D528460821FFF730
:1011D000B9FB6FF00C00BDE8F88F4FF0FF30BDE8B1
:1011E000F88F6FF00400BDE8F88F6FF00D00BDE8D8
:1011F000F88F6FF00B00BDE8F88F6FF00A00BDE8C4
:10120000F88F6FF00600BDE8F88F6FF00300BDE8BF
:10121000F88F0020BDE8F88F140A00202DE9F04F68
:10122000082887B0054601919246994600F2CB8086
:10123000470107F1080B5846FFF766FB00F00F0364
:10124000022B024602D0042B40F0C080BAF1000FFE
:1012500000F0BF80644B6E00981940889846D0B962
:101260000123AB400BF54077284603920293FFF72A
:10127000FFFB04463846FFF747FB002800F0AC8030
:10128000B8F81A00029B039A184201D024B9A6E0CC
:10129000002CE9D000E0002402F00702002708EB50
:1012A0000500022A8774504B0BF5807702D0042A80
:1012B00036D06AE033445B88002B5AD104A9284613
:1012C0000822FFF723FC40213846FFF73BFB384656
:1012D000FFF71AFB0028FAD19DF810309DF8142072
:1012E00089F800309DF811309DF8161089F801300A
:1012F0009DF8123089F802309DF8133089F80330D8
:101300009DF8153003EB0223109A13809DF81720E7
:1013100008EB060302EB01225A8008EB050326E0E6
:1013200033445B882BBB04A928460222FFF7EEFB5F
:1013300040213846FFF706FB3846FFF7E5FA00285C
:10134000FAD19DF810209DF8113003EB02239BB2D7
:1013500008EB0602538040F2EA52934205D9284630
:10136000FFF71EFC6FF47A703AE01F4B2B4480228B
:101370009A7408EB06035C880199544528BF5446CB
:1013800028462246FFF7C2FB07E021462846019384
:10139000FFF7E8FB019B33445C8040213846FFF7B0
:1013A000D1FA3846FFF7B0FA0028FAD146447388DC
:1013B0001B1B9BB2738093B10B4B1D44AB7C43F062
:1013C0000103AB740BE04FF0FF3009E06FF0040055
:1013D00006E06FF00D0003E06FF0030000E0204630
:1013E00007B0BDE8F08F00BF140A0020082810B530
:1013F000144654D8072955D8DFE801F004181F23F4
:101400002C333C471378012B05D1284903FA00F00F
:101410004A8B104308E0002B44D1244901234A8B16
:1014200003FA00F022EA000048832CE01F4B5B8B9C
:1014300043FA00F000F001001AE0400100F5F85016
:1014400002E0400100F5F0500830FFF75DFA80023D
:10145000208018E011781F2924D8400100F502707F
:101460000FE0400100F50270FFF74EFA00F01F0098
:10147000207008E011781F2914D8400100F5305081
:101480000830FFF75FFA012010BD400100F5305031
:101490000830FFF739FA00F01F00207002E04FF02B
:1014A000FF3010BD6FF0090010BD00BF140A00200E
:1014B000082870B5154674D80139062974D8DFE8B4
:1014C00001F004090F1C24335F004001117800F57E
:1014D000B05003E04001117800F5A850083020E03A
:1014E0004001118800F10804090A04F59050FFF743
:1014F00029FA297804F5985013E04001042229467E
:1015000000F60840FFF768FA38E04001118800F162
:101510000804090A04F58050FFF714FA297804F545
:101520008850FFF70FFA29E0400100F10804204637
:10153000FFF7EAF900F00F00012802D06FF0040075
:1015400070BD04F53C50FFF7DFF980BB04F58075F2
:1015500022212846FFF7F6F904F500742846FFF724
:10156000D3F958B12046FFF7CFF90307F6D5204647
:101570000821FFF7E7F96FF00C0070BD012070BD86
:10158000400100F108042046FFF7BEF900F00F0605
:10159000012ED3D104F53C502978FFF7D3F930461A
:1015A00070BD4FF0FF3070BD6FF0090070BD6FF07F
:1015B000010070BD082870B5044616467CD80C2979
:1015C0007DD8DFE801F0070E1217222A7C394A4D38
:1015D00051586C0040010830FFF796F920F00F00D9
:1015E00047E0400100F5B05002E0400100F5A8508E
:1015F00008303CE04501083505F59050FFF784F9C7
:1016000005F59850FFF780F93070600104223146EB
:1016100000F60840FFF7B6F93FE04401083404F54E
:101620008050FFF771F9054604F58850FFF76CF913
:1016300000EB0520308030E0440108342046FFF7FD
:1016400063F900F00F05012D02D06FF0040070BDAA
:1016500004F53C50FFF758F917E0FFF7E7F9308041
:101660002046FFF705FA3080600100F54270FFF771
:101670004BF9307011E040010830FFF745F90128BF
:10168000054605D12046FFF7F3F93080284670BDA6
:101690000C4800EB440043883380012070BD4001BA
:1016A0000830FFF731F900F00F000128CDD1054BCC
:1016B0001C44A37C337070BD4FF0FF3070BD6FF0E1
:1016C000010070BD140A002038B50446094D0221FE
:1016D0002846FFF7D1F80028F8D0A4B2AC81054C19
:1016E00001212046FFF7C8F80028F8D0A089C0B231
:1016F00038BD00BF00300140034A13885B06FCD5AB
:10170000014B80B2988070470038014008B5411EF7
:1017100011F8010F10B1FFF7EFFFF9E708BD70B541
:10172000012186B04FF48050394CFEF7E5FE0121CF
:101730000420FEF7E1FEA0230325ADF80030694642
:10174000182320468DF803308DF8025000F0D3F8AE
:101750004023ADF800306946482320468DF8033019
:101760008DF8025000F0C7F8102369462046ADF806
:1017700000308DF803308DF80250264E00F0BBF893
:101780004FF48273ADF806304FF400730025ADF8C6
:101790000E3001A907233046ADF81430ADF81050D3
:1017A000ADF80450ADF80850ADF80A50ADF80C5043
:1017B000ADF81250FEF758FF01213046FEF7D9FF71
:1017C000154A1648936943F4804343F00503936137
:1017D00040F6C41263686560636843F492636360B3
:1017E0000F4B1A819A8992B242F00C029A819A891F
:1017F00092B242F400529A819A8992B242F0200247
:101800009A81084B20225A60FFF780FF06B070BD16
:10181000000801400030014000100240C07800087C
:101820000038014000E100E008B5264B984206D19F
:1018300001210420FEF778FE002104203CE0224B29
:10184000984206D101210820FEF76EFE00210820F3
:1018500032E01E4B984206D101211020FEF764FEB3
:101860000021102028E01A4B984206D101212020A7
:10187000FEF75AFE002120201EE0164B984206D1AA
:1018800001214020FEF750FE0021402014E0124BC1
:10189000984206D101218020FEF746FE00218020DB
:1018A0000AE00E4B98420BD101214FF48070FEF7F5
:1018B0003BFE00214FF48070BDE80840FEF734BEC7
:1018C00008BD00BF00080140000C014000100140AD
:1018D0000014014000180140001C0140002001409C
:1018E00008B501210846FEF71FFEBDE808400021AB
:1018F0000120FEF719BECA782DE9F041D40648BF91
:101900008C780E8802F00F0348BF234316F0FF0FB8
:101910001ED0016800244FF0010E4FF00F0C0EFA9C
:1019200004F737EA06050FD1A5000CFA05F821EAFD
:10193000080103FA05F5282A41EA050101D14761AA
:1019400002E0482A08BF07610134082CE7D1016092
:10195000FF2E20D9416800244FF0010E4FF00F0CEC
:1019600004F108050EFA05F535EA06070FD1A700C0
:101970000CFA07F821EA080103FA07F7282A41EAD6
:10198000070101D1456102E0482A08BF0561013421
:10199000082CE5D14160BDE8F0814FF6FF7303806C
:1019A000022383700423C37070478368194214BFF5
:1019B000012000207047806880B27047C3681942D8
:1019C00014BF012000207047C06880B270470161D9
:1019D0007047416170470AB10161704741617047CA
:1019E000C160704741F480338361816183618369A1
:1019F00083697047054A136823F07F031B041B0C9F
:101A0000194341EA00101060704700BF0000014018
:101A1000014B1860704700BF1C0020420028164A86
:101A200030B500F44015B4BFD3695368B5F5401F15
:101A300084B206D1556823F0706325F07065556057
:101A40000EE0C20255BF420D03221201C0F303454E
:101A50004CBFAA4004FA02F223EA020343F0706387
:101A600019B1420D120194402343034A0028B4BF28
:101A7000D361536030BD00BF0000014001F003039B
:101A800001F0FC0101F1804101F5803110B59B00AE
:101A90008C680F229A4024EA02028A608A68984081
:101AA0001043886010BD014B18607047DC00204275
:101AB00010210148FFF78DBF0008014010210148A7
:101AC000FFF785BF00080140FFF7FEBDFF20FFF7CD
:101AD000FBBD07B50549002000F0CAFB6946082098
:101AE00000F0C5FA03B05DF804FB00BF2A00002037
:101AF000FFF715BE10B5044600F0F4FB00230138D3
:101B0000834206DAE25C215CE1542254013301385D
:101B1000F6E710BD80EAE073F0B4A3EBE0734E1E6D
:101B200000240A2793FBF7F507FB1533303306F83B
:101B3000013F621C2B460DB11446F3E70028BEBFDF
:101B40002D238B54A21C00238B540846F0BCFFF7B6
:101B5000D1BF2DE9F04144010834054604F5407039
:101B60000F469046FEF7D0FE1328064646D002D810
:101B700000284DD05CE0172802D01C282FD057E059
:101B800004F500742046FEF7BFFEC30703D501210C
:101B90002046FEF7D7FE2846FEF76AFF002847D00A
:101BA000B0F5006F28BF4FF4006086B23246394668
:101BB0002846FFF725FA00283EDD0027F21B92B2E7
:101BC0001E492846FFF78EF9041E03DA2846FEF761
:101BD000E7FF30E02744BFB2B742EFD128E0294603
:101BE000174800F06BFB2846FFF73AF90128044636
:101BF00021D12946134800F061FB1CE042462946EA
:101C0000114800F05BFB2846FFF77AF8BDE8F08149
:101C100029460E4800F052FB334642460121284631
:101C2000FEF7F0FF854207D12946094800F046FB40
:101C30000120BDE8F0812046BDE8F081300A002097
:101C40008878000897780008A3780008BA78000818
:101C5000C8780008014B5854704700BF300A002074
:101C6000704770477FB56A466D46154B03F1100605
:101C7000144618685968083303C4B3422246F7D1A2
:101C8000FFF74DFD0F49104800F044F80F49104888
:101C900000F06AF82946012000F0E9F9013000D18E
:101CA000FEE7FFF716FF0B4941F288320020FFF7ED
:101CB00050FF011EF7DA084800F000FBF3E700BF11
:101CC00078780008BD1A0008B11A0008C91A00087F
:101CD000CD1A00085C0E0020D47800087047007808
:101CE0007047017070470020704770477047704719
:101CF0007047054B00B121B9044A9A60044ADA6082
:101D000070479860D960704748000020EF1C0008B9
:101D1000F11C0008054B00B121B9054A1A61054ABA
:101D20005A61704718615961704700BF4800002030
:101D3000ED1C0008DD1C0008084B10B51C881A4675
:101D4000E40500D4FEE700B121B9054B9361054BD2
:101D5000D36110BD9861D96110BD00BF480000205B
:101D6000DF1C0008E31C0008084B10B51C881A464D
:101D7000A40500D4FEE700B121B9054B9361054BE2
:101D8000D36110BD9861D96110BD00BF480000202B
:101D9000E71C0008EB1C00087FB5062204A94FF4DD
:101DA0001060FEF7EFFD04220DEB02014FF480708E
:101DB000FEF7E8FD02A904224FF4A060FEF7E2FD61
:101DC000042203A94FF47060FEF7DCFD802100209F
:101DD000FEF7B8FD0020FEF797FD04A906224FF498
:101DE0001060FEF7F9FD04220DEB02014FF4807044
:101DF000FEF7F2FD02A904224FF4A060FEF7ECFD0D
:101E0000042203A94FF47060FEF7E6FD07B05DF809
:101E100004FB70B505460C46FFF7BEFF0DB9DCB9F3
:101E200031E06E1E32460735002312F8011F0B44C5
:101E3000AA425BB2F9D1102B02DD4FF0FF3070BD2A
:101E40000125E80016F8011F00F5F8500435FEF7EB
:101E500079FD212DF5D1E2E7651E2A4607340023DE
:101E600012F8011F0B44A2425BB2F9D1102BE4DC43
:101E70000124E00015F8011F00F5F0500434FEF7CE
:101E800061FD212CF5D1002070BD10B5044600F095
:101E9000F0014FF4A850FEF755FD210A4FF4B85059
:101EA000BDE81040FEF74EBD10B54FF4A850FEF748
:101EB0002BFD04464FF4B850FEF726FD000204F057
:101EC000F00480B2204480B210BD10B50446C1B207
:101ED0004FF4B050FEF736FD210A4FF4C050BDE874
:101EE0001040FEF72FBD10B54FF4B050FEF70CFDBB
:101EF00004464FF4C050FEF707FD04EB002080B20B
:101F000010BD08B54FF43850FEF7FEFC00F001009C
:101F100008BD08B54FF43850FEF7F6FC10F0300F4E
:101F200014BF0120002008BD08B54FF43850FEF75B
:101F3000EBFC00F07F014FF43850FEF703FD4FF447
:101F40003850FEF7E1FCBDE8084060F07F01C9B2FF
:101F50004FF43850FEF7F6BC08B50378012B4378F0
:101F60000CBF40210021012B03D141F03801C9B23F
:101F70000EE0C378012B837806D1012B0CBF41F012
:101F8000180141F0080103E0012B08BF41F01001E6
:101F90004FF43850FEF7D6FCBDE80840FFF7C4BF49
:101FA00010B504464FF43850FEF7AEFCC0F3801372
:101FB00000F038002028237001D0382801D10123F7
:101FC00000E000236370A0F11003DBB2102B09D8EE
:101FD000012202FA03F303F0013323F080730BB103
:101FE000A27001E00023A3700838C0B2182807D8F7
:101FF000012303FA00F000F0013020F4807000B9F2
:102000000023E37010BD10B504464FF43850FEF7BE
:102010007BFCC0F38003C0F34000E370A07010BDF0
:1020200010B504464FF43850FEF76EFC430619D540
:1020300000F0C701012C0CBF41F0300141F0380124
:102040004FF43850FEF77EFCFFF76EFF4FF4385028
:10205000FEF75AFC012C02D110F0300F01E010F015
:10206000380F02D14FF0FF3010BD002010BD38B541
:102070000C460F2864D8DFE800F0080B17131A1F6E
:10208000222E3B494C501D54595CFFF785FE11E050
:1020900009B10831FFE72046BDE83840FFF7B9BE77
:1020A0000888FFF7F2FE05E0FFF7FEFE1EE0088855
:1020B000FFF70BFF002038BDFFF715FF16E009887A
:1020C0004FF49850090AFEF73DFC21784FF4A050D8
:1020D000FEF738FCEEE74FF49850FEF715FC054686
:1020E0004FF4A050FEF710FC00EB05202080E1E744
:1020F000154B00209A780A70DA784A701A798A703B
:102100005A79CA709B7948710B7138BDFFF70CFF83
:10211000D0E70846FFF720FFCCE70846FFF740FF6F
:10212000C8E70878BDE83840FFF77ABFFFF7F1FE4F
:1021300001E0FFF7E6FEC0B2FF2801D02070B9E74A
:102140004FF0FF3038BD00BF4800002010B50446F6
:10215000014606224FF41060FEF73EFC042204F113
:102160000E014FF48070FEF737FC042204F10A01DF
:102170004FF4A060FEF730FC0422A11D4FF4706004
:10218000FEF72AFC054BA27C1A70E27C5A70227D75
:102190009A70627DDA70A27D1A7110BD180E00204F
:1021A00010B50446014606224FF41060FEF7EAFB24
:1021B000042204F10E014FF48070FEF7E3FB0422C9
:1021C00004F10A014FF4A060FEF7DCFB0422A11D1C
:1021D0004FF47060FEF7D6FB054B1A78A2745A785C
:1021E000E2749A782275DA781B796275A37510BD4E
:1021F000180E002038B530F03A0405460AD12046C2
:10220000FEF782FB45EA0001C9B22046FEF79AFBC1
:10221000204638BD4FF0FF3038BD0020FEF774BBBC
:1022200010B5044601784FF4D850FEF78BFB618857
:102230004FF4C850090AFEF785FBA1784FF4D0503F
:10224000BDE81040FEF77EBB38B505464FF4D850C8
:10225000FEF75AFB28704FF4C850FEF755FB0446B2
:102260004FF4D050FEF750FB00EB0420688038BDDF
:1022700010B50C4605281ED8DFE800F003070B1048
:1022800014190846FFF762FF0FE00846FFF788FFC2
:102290000BE00878BDE81040FFF7ACBFFFF7BDFFCB
:1022A000207002E00846FFF7BBFF002010BD084683
:1022B000FFF7CAFFF9E74FF0FF3010BD0FB410B5BC
:1022C000074B82B004AC54F8042B1868234681688D
:1022D000019400F035F802B0BDE8104004B070473A
:1022E0009004002020F0030110F00300C0F1000072
:1022F00051F8043B00F1040C4FEACC0C6FF00002E3
:102300001CBF22FA0CF213434FF0010C4CEA0C2CC8
:102310004CEA0C4CA3EB0C0222EA030212EACC12A8
:1023200004BF51F8043B0430F4D0C2F1000102EACA
:102330000102B2FA82F2C2F11F0200EBD200704732
:102340002DE9F04FC1B01C460891164605460A908B
:1023500002F0B8FE03680E9418461793FFF7C2FF09
:1023600016901DB1AB6B002B00F0BD830898B0F93F
:102370000C2093B2990407D4416E42F4005321F427
:102380000051838141669BB21A0740F1E482089AAA
:102390001269002A00F0DF8203F01A030A2B00F012
:1023A000E88200231A46B0460DF1C00ADFF85C94BB
:1023B000129319930B9325932493CDF88CA0149228
:1023C000159298F800304446EBB1252B02D11AE063
:1023D000252B03D014F8013F002BF9D1C8EB0405DD
:1023E0008DB1249B259A01332A44072BCAF800801B
:1023F000CAF804502592249300F330830AF1080AA6
:102400000B9B2B440B932378002B00F0EA814FF0B9
:10241000FF3B5D4600231A468DF86F3019460C933A
:102420000793637804F1010808F10108A3F1200083
:10243000582800F24086DFE810F0DC053E063E0634
:10244000E5053E063E063E063E063E063E065900B1
:10245000AA053E066600AA033E06C603CD03CD03C9
:10246000CD03CD03CD03CD03CD03CD03CD033E0678
:102470003E063E063E063E063E063E063E063E063C
:102480003E06DD0357053E0657053E063E063E0660
:102490003E06A2053E063E06BC043E063E063E063D
:1024A0003E063E06E4043E063E0611053E063E0696
:1024B0003E063E063E063E063E063E063E063E06FC
:1024C00044058D0457055705570595048D043E06B0
:1024D0003E069D043E06A8044A046D00B0053E0673
:1024E000B8053E0621043E063E06ED050E9C236817
:1024F00018460C932346002803F104030E9306DAD2
:102500000C9B5B420C93079B43F00403079398F8E2
:10251000003089E7AB460E9A0027079830217823D0
:10252000BB4514688DF8701002F104024FF00005ED
:102530008DF871308DF86F7040F00201C0F2D185D6
:1025400020F0800141F00201079154EA05010E924A
:102550001193AC4800F0318130AE230943EA057392
:10256000290904F00F020D461C46835C06F8013D64
:1025700054EA0503F1D130AB9B1B0D930D9B5B45DA
:10258000B8BF5B4609930023139317B1099B01332E
:102590000993079B13F002030F9302D0099B0233A8
:1025A0000993079B13F08403109340F018810C9B50
:1025B000099A9D1A002D40F31281102D2599249A15
:1025C000914F27DD189650461024BA46089E2F4694
:1025D0000A9D04E0103F102F00F1080016DD0132C3
:1025E000894B1031072A2591249280E81800F1DDEB
:1025F00023AA3146284603F049FD002840F0F88020
:10260000103F102F30A82599249AE8DC3D46574604
:102610008246189E01326C18072A25942492CAF823
:102620000070CAF8045000F3D0809DF86F700AF172
:10263000080A77B1249B013401330DF16F010122A7
:10264000072B259424938AE8060000F31E820AF1E2
:10265000080A0F9B6BB1249B023401331CA9022290
:10266000072B259424938AE8060000F31A820AF1C6
:10267000080A109B802B00F02A810D9BC3EB0B07EF
:10268000002F33DD614A102F249B0F9222DD22465A
:102690004FF0100B0A9D089C04E0103F102F0AF128
:1026A000080A16DD01331032072B259224938AE89D
:1026B000000AF2DD23AA2146284603F0E7FC0028A1
:1026C00040F09680103F102F0DF1C00A259A249BF0
:1026D000E8DC144601330F9A3C44072B25942493DD
:1026E0008AE8840000F3C5810AF1080A079BDD052A
:1026F00000F18E80249B0D9901330C44072B259407
:10270000CAF80060CAF80410249300F3E0810AF1CB
:10271000080A079B580736D50C9B099A9D1A002D6D
:1027200031DD102D249B384F22DD22461026DDF8A6
:1027300028B0089C04E0103D102D0AF1080A16DDAF
:10274000013331491032072B259224938AE8420045
:10275000F1DD23AA2146584603F098FC002847D112
:10276000103D102D0DF1C00A259A249BE8DC14467B
:1027700001332C44072B25942493CAF80070CAF81F
:10278000045000F38D840B9B0C9A09998A42ACBFCC
:102790009B185B180B93002C40F057810023249367
:1027A0000DF1C00A0DE60027BB458DF86F70C0F231
:1027B000A284079B23F080030793BBF1000F00F076
:1027C0006784002400250027C6E623AA08990A98F2
:1027D00003F05CFC60B99DF86F700DF1C00A259C98
:1027E00027E7259B23B10A9823AA089903F04EFCFA
:1027F000089B9B89590600F10F870B9841B0BDE8F3
:10280000F08F00BF2079000840790008EC780008BC
:10281000119B652B40F3BB8014981599002200236F
:1028200004F02AFE002800F06781249BB0490133A0
:1028300001340122072B259424938AE8060000F333
:102840008B860AF1080A1D9B129A934203DB079BB1
:10285000D8077FF55EAF249B16990133179A0C4475
:10286000072B2594CAF80020CAF80410249300F31B
:1028700031870AF1080A129B5D1E002D7FF749AFD0
:102880009C4A102D249B0F9240F3178110260A9F1B
:10289000DDF820B005E00AF1080A103D102D40F3E4
:1028A0000C8101331034072B25942493CAF800902F
:1028B000CAF80460EFDD23AA5946384603F0E6FB68
:1028C000002895D10DF1C00A259C249BE5E70C9BBF
:1028D000099A9F1A002F7FF7D0AE864A102F249BAB
:1028E0000F922BDD52462146BA46102537460A9CE8
:1028F000089E06E0AAF1100ABAF1100F02F10802D0
:1029000018DD01331031072B25912493C2F8009074
:102910005560EFDD23AA3146204603F0B7FB0028BF
:102920007FF466AFAAF1100ABAF1100F30AA259908
:10293000249BE6DC3E460C465746924601330F9AEE
:102940003C44072B259424938AE8840000F3D68422
:102950000AF1080A91E608990A9801F0F3F80028AC
:1029600040F05A86089B9B8903F01A030A2B7FF4D8
:1029700018AD0899B1F90E30002BFFF612AD2346C1
:1029800032460A9801F0A8F841B0BDE8F08F129BDA
:10299000249D012B04F1010405F1010540F35D8440
:1029A0000123072D2594CAF800602495CAF8043045
:1029B00000F36E840AF1080A169A0135179B144435
:1029C000072D25942495CAF80030CAF8042000F396
:1029D0006D840AF1080A002314981599002204F066
:1029E0004BFD129B002800F02A835E1E002E40F350
:1029F0003583404B102E0F9340F36984CDF834801B
:102A00001027B046DDF828B0089E07E00AF1080A52
:102A1000A8F11008B8F1100F40F3568401351034B6
:102A2000072D25942495CAF80090CAF80470EDDDAE
:102A300023AA3146584603F029FB00287FF4D8AE7C
:102A40000DF1C00A259C249DE2E723AA08990A9863
:102A500003F01CFB00283FF4A1AEC9E623AA0899A5
:102A60000A9803F013FB00287FF4C2AE0DF1C00AF0
:102A7000C6E423AA08990A9803F008FB00287FF40B
:102A8000B7AE0DF1C00A259C30E623AA08990A9832
:102A900003F0FCFA00287FF4ABAE0DF1C00A259CD0
:102AA000D7E523AA08990A9803F0F0FA00287FF4E2
:102AB0009FAE0DF1C00A259CDBE501330F9A2C4433
:102AC000072B259424938AE824007FF720AE23AABD
:102AD00008990A9803F0DAFA00287FF489AE259C59
:102AE0000DF1C00A15E60A9802F084F93EE400BF31
:102AF0003C790008EC7800081D9D002D40F33B85D3
:102B0000139B129A9342A8BF1346002B1D460DDD5E
:102B1000249B2C440133072B2594CAF80060CAF883
:102B20000450249300F314860AF1080A139B002D25
:102B3000A8BF5B1B002B1D4640F32D83C64A102DFA
:102B4000249B0F9240F3FB8422461027DDF828B027
:102B5000089C05E00AF1080A103D102D40F3EE84B0
:102B600001331032072B25922493CAF80090CAF83B
:102B70000470EFDD23AA2146584603F087FA0028A7
:102B80007FF436AE0DF1C00A259A249BE4E798F84D
:102B9000003008F101042A2B00F04F87A3F1300028
:102BA000092898BF002500F2E18614F8013B05EBE7
:102BB000850500EB4505A3F130000928F5D945EA64
:102BC000E575A04632E4079B43F08003079398F82D
:102BD000003029E4A3F1300000231C4618F8013B23
:102BE00004EB840400EB4404A3F130000928F5D978
:102BF0000C941BE41193AB46002A40F06487079BBA
:102C000043F010030793079B9F0640F18A820E9CB6
:102C1000073424F00704D4E9002304F108011D4619
:102C200014460E91002A73F10003C0F27483BBF1C5
:102C3000000F9DF86F70C0F29482079B23F0800311
:102C4000079354EA050338D0002D08BF0A2C39D366
:102C500030AE204629460A22002304F07DFC3032A3
:102C600006F8012D2046294600230A2204F074FCB0
:102C700004460D4654EA0503EBD17CE41193AB46C0
:102C8000002A40F01C87079A12F0200300F0C7804A
:102C90000E9C0027073424F0070303F10801BB450D
:102CA0000E91D3E900458DF86F70C0F25A8222F080
:102CB0008003079354EA0503C6D1BBF1000F00F06F
:102CC000E881002440AE303406F8414D53E41193BE
:102CD000AB46002A40F0E786079A12F0200375D031
:102CE0000E9C0027073424F0070303F10801BB45BD
:102CF0000E91D3E900458DF86F700BDB22F0800355
:102D0000079354EA050306D1BBF1000F00F00586D6
:102D100000240025002730AEE20842EA4572E908A7
:102D200004F007030D461446303354EA050206F852
:102D3000013DF1D1079AD2077FF51DAC302B3FF44E
:102D40001AAC3022731E06F8012C30AAD21A0D924A
:102D50001E4613E41193AB46002A3FF454AF8DF89E
:102D60006F1050E7079B43F04003079398F800303B
:102D7000FFF75ABB98F800306C2B00F0A18407983D
:102D800040F010000790FFF74FBB002A40F08F86FD
:102D9000079B9F0640F10D830E9A134604330E9352
:102DA0000B9B1168DD171A462B46C1E90023FFF77C
:102DB00008BB1193AB46002A40F06286079B43F0A4
:102DC00010030793079A12F0200389D1079911F095
:102DD000100200F0B0820E98BBF1000F02460468AA
:102DE0008DF86F3002F104024FF00005C0F25485F7
:102DF00021F08001079154EA05010E9284D01F460C
:102E000089E71193AB46002A40F03686079B43F0D2
:102E100010030793079A12F020037FF439AF079944
:102E200011F0100200F08A810E98BBF1000F0246EB
:102E300004688DF86F3002F104024FF00005C0F213
:102E4000288521F08001079154EA05010E921F4662
:102E50007FF4FAAE31E700BFEC7800081193AB467F
:102E6000002A40F01186079BC0489C0640F1DC8098
:102E70000E9C073424F0070303F108020E92D3E9F5
:102E80000045079A12F0010700F0398154EA050362
:102E90003FF489AC9DF8442000278DF87120079AF3
:102EA0003023BB458DF870308DF86F7042F002030F
:102EB000C0F2F58422F0800343F002030793FFF78A
:102EC0004BBB0E9911930A68002301201F468DF811
:102ED0006F309B4613930B1D09908DF898200E932D
:102EE0000D9026AEFFF755BB1193AB46002A40F07C
:102EF000D685079B0E9C1D0704F1070440F114833F
:102F000024F0070303F108020E921A685B6814921A
:102F10001593159B149D23F00044284621464FF03D
:102F2000FF32934B04F0DAFA002840F0758228460D
:102F300021464FF0FF328E4B04F0B2FA002840F0E9
:102F40006B82149815990022002304F09FFA002840
:102F500040F0A8849DF86F700799864E21F080019B
:102F6000854B0791119903224FF0000B09924729D5
:102F7000D8BF1E460D92CDF84CB0FFF706BB079B9D
:102F800043F00803079398F80030FFF74DBA98F81C
:102F9000003001222B21FFF747BA079B43F02003A3
:102FA000079398F80030FFF73FBA0E9AAB461668C1
:102FB000002511938DF86F50141D002E00F04284EF
:102FC000BBF1000FC0F2B7835A462946304602F0E3
:102FD000A7FB002800F0BE84AB46831B0D9323EAB9
:102FE000E3730E940993CDF84CB09DF86F70FFF722
:102FF000CCBA98F8003000297FF416AA01222021CB
:10300000FFF712BA079B43F00103079398F80030CB
:10301000FFF70ABA1193AB46002A40F04C85079B94
:1030200056489C063FF524AF079BD90640F1B58171
:103030000E9A00251346043314680E9321E7013BD2
:10304000013501361C44072DCAF8006024952594EB
:10305000CAF8043000F345810AF1080A199A0135CB
:1030600014441FAB072D25942495CAF80420CAF8F0
:1030700000307FF74CAB23AA08990A9803F006F8B2
:1030800000287FF4B5AB0DF1C00A259CFFF741BBCA
:103090005F464FF0000BCDF834B030AEFFF76EBA9C
:1030A00023AA08990A9802F0F1FF00287FF4A0AB48
:1030B000259CFFF768BB1193002A40F0E984119A20
:1030C000002A3FF48EAB002301211F4609918DF8A1
:1030D00098208DF86F309B4613930D9126AEFFF725
:1030E00058BA26480791119354EA05030E924FF0FF
:1030F00000077FF431AA00240025FFF72DBABBF1A9
:10310000000F8DF86F70C0F2348222F080030793B5
:1031100054EA05037FF420AABBF1000F7FF451AB02
:10312000B6E7079BDE0640F15B810E9A13461C68EA
:103130000433E5170E9322462B4673E5079911F0E9
:10314000400740F06D820E9ABBF1000F13461468E1
:103150008DF86F7003F104034FF0000580F24F818A
:103160000E9354EA05037FF46FADABE50C790008CC
:10317000FFFFEF7F00790008FC7800082079000845
:1031800023AA08990A9802F081FF00287FF430AB47
:10319000259C0DF1C00A139A1D9B32441746129AC2
:1031A000934249DB079AD20746D412990E44F51B85
:1031B000CB1A9D42A8BF1D46002D2E460DDD249A38
:1031C0002C440132072A2594CAF80070CAF804502A
:1031D000249200F34F830AF1080A002EB4BF1D4663
:1031E0009D1B002D7FF795AA8A4A102D249B0F92D4
:1031F0007FF763AC10260A9FDDF820B005E00AF1E6
:10320000080A103D102D7FF758AC01331034072BFE
:1032100025942493CAF80090CAF80460EFDD23AA2D
:103220005946384602F032FF00287FF4E1AA0DF13A
:10323000C00A259C249BE4E7249A1698013217992A
:103240000444072A2594CAF80010CAF804002492FE
:1032500000F3EB820AF1080AA7E7079BDF073FF5B7
:103260009FAB0123072D2594CAF800602495CAF866
:1032700004307FF7F1AE23AA08990A9802F006FFFE
:1032800000287FF4B5AA0DF1C00A259C249DE5E62F
:1032900023AA08990A9802F0F9FE00287FF4A8AA48
:1032A0000DF1C00A259C249DFFF786BB23AA08992F
:1032B0000A9802F0EBFE00287FF49AAA0DF1C00AEA
:1032C000259C249DFFF787BB4646DDF834800135F9
:1032D0000F9B3444072D259424958AE848007FF7F6
:1032E000BBAE23AA08990A9802F0D0FE00287FF40A
:1032F0007FAA259C249D0DF1C00AAFE623AA089958
:103300000A9802F0C3FE00287FF472AA0DF1C00AE9
:10331000259CFFF7B2B964424FF02D0765EB4505D8
:10332000BBF1000F8DF86F70FFF68EAC079B23F09A
:103330008003079388E4079911F0400716D00E9890
:10334000BBF1000F03468DF86F2003F104030488DE
:103350004FF00005C0F2AB8121F08001079154EAE3
:1033600005010E933FF4D0AC1746D4E40E9ABBF19E
:10337000000F134614688DF86F7003F104034FF0CB
:103380000005C0F29481079A0E9322F08002079202
:1033900054EA05027FF4BFACB6E4079B0E9A13F023
:1033A000400F134600F054810433148800250E9317
:1033B00067E5079BDE060BD4079B5D0608D50E9AD2
:1033C000136804320E92BDF82C201A80FEF7F9BF64
:1033D0000E9A136804320E920B9A1A60FEF7F1BF30
:1033E000079B0E9A13F0400F13463FF4A0AEB2F9BC
:1033F00000400433E5170E9322462B4612E4079A49
:103400000E9322F08002079254EA05027FF41CAC6E
:1034100053E400BFEC780008149C22462046159C1B
:103420002346214604F05AF8002840F0DF82119B21
:10343000BBF1FF3F23F020030D9300F03982472BAF
:1034400000F03881079B43F480731093159B1F1E77
:10345000149B0993B7BF3B46002303F100472D237C
:103460000F93119B662B00F02682462B00F0F5800F
:103470000D9B21A8452B18BF5D461EA908BF0BF167
:103480000105049003911DA802213B460290099A70
:10349000019500910A9800F04FFC119B0646672B9E
:1034A00040F02A82079BDA0740F17282741909986A
:1034B00039460022002303F0DFFF002840F0558149
:1034C000219B9C4206D930215A1C21921970219BC4
:1034D0009C42F9D89B1B12930D9B472B00F0318126
:1034E000119B652B40F31782119B662B1D9B139339
:1034F00000F02282139A12998A42C0F2F081079B4F
:10350000DB0700F14F8222EAE2730D9267221192EB
:103510000F9A002A40F0EB800993109B9346079383
:103520009DF86F70FFF731B824F0070423681493F7
:103530006368159304F108030E93EAE4144601331B
:103540000F9A2C44072B259424938AE824003FF7F4
:1035500017AE0AF1080A1EE623AA08990A9802F093
:1035600095FD00287FF444A90DF1C00A259CFFF7C2
:103570006AB90E9AB8E5249BBA4901330134012295
:10358000072B259424938AE8060000F383800AF130
:10359000080A2DB9129B1BB9079BD9077FF5B9A85B
:1035A000249B16990133179A0C44072B2594CAF8CB
:1035B0000020CAF80410249300F3DC810AF1080A01
:1035C0006D42002D40F3A980A74A102D0F9240F3C1
:1035D0001F8122461027DDF828B0089C05E00AF17B
:1035E000080A103D102D40F3128101331032072BD1
:1035F00025922493CAF80090CAF80470EFDD23AA3C
:103600002146584602F042FD00287FF4F1A80DF152
:10361000C00A259A249BE4E74FF0FF30FFF7EEB88D
:103620000E98BBF1000F03468DF86F2003F10403E1
:1036300004884FF00005C0F2BE8121F0800107919F
:1036400054EA05010E9317467FF4FEAAFFF735BB37
:103650000433146800250E9313E421A81EA90490D6
:1036600003911DA803210290099A3B46CDF804B0AE
:1036700000910A9800F060FB5D460646119B7419A4
:10368000462B7FF414AF3378302B00F098811D9DCA
:103690002C440CE723AA08990A9802F0F7FC0028AA
:1036A0007FF4A6A80DF1C00A1D9D259C71E70E931D
:1036B000FFF730BBBBF1000F08BF4FF0010BC1E6B5
:1036C000079B08F1010843F02003079398F80030A6
:1036D000FEF7AABE23AA08990A9802F0D7FC002890
:1036E0007FF486A80DF1C00A259CFFF7C4B80993A2
:1036F000109B2D2707938DF86F704FF0000BFEF78E
:1037000045BF23AA08990A9802F0C0FC00287FF45C
:103710006FA8259C249B0DF1C00A129901330C441B
:10372000072B25942493CAF80060CAF804107EF78A
:10373000EEAFFFF7CCB93046FEF7D4FDAB460346FB
:103740004CE41D9BD81C12DB9B4510DB1393D1E688
:1037500023AA08990A9802F099FC00287FF448A847
:103760000DF1C00A259CFFF7E1B92346B2E6119A94
:10377000023A1192013B9DF84420002B1D93B8BFE3
:103780005B428DF87C20B4BF2D222B22092B8DF8B3
:103790007D2040F3FF800DF18B000446334A82FB0D
:1037A0000321DA17C2EBA10101EB8102A3EB420274
:1037B000303209290B4604F8012DEFDC2146303365
:1037C000DAB201F8012D884240F266810DF17E01E6
:1037D000234601E013F8012B984201F8012BF9D19F
:1037E000431C1B1B0DF17E0213441FAA9B1A129A45
:1037F0001993012A13440D9340F30D810D9B169AE2
:10380000134400220D93139223EAE37380E61446D7
:1038100001330F9A2C44072B259424938AE8240023
:103820003FF76FAF0AF1080A77E723AA08990A98C9
:1038300002F02CFC00287EF4DBAF0DF1C00A1D9BCA
:10384000259CB2E45B46062B28BF06230D9323EA92
:10385000E373B346374613960E940993044EFEF76E
:1038600094BE00BF3C790008EC7800086766666685
:103870003479000823AA08990A9802F007FC002866
:103880007EF4B6AF1D9B129A259CD31A0DF1C00A87
:10389000A3E40E921F4664E40E92FFF73BBA07932F
:1038A000FEF75ABE2D231F468DF86F30FFF754BB2D
:1038B0004FF0060BC6E521A81EA9049003911DA890
:1038C00003210290099A3B46CDF804B000910A9872
:1038D00000F032FA5D46064600EB0B04D3E6169A7A
:1038E000129B1344139A0D93002A40F39E80672283
:1038F00023EAE37311920BE6119B472B7FF4D6ADBD
:10390000079BDC073FF5BAAE219B9B1B12930D9BD7
:10391000472B3FF416AF1D9B2CE7079B5F46DB0749
:1039200005D540AE302306F8413DFEF724BECDF864
:1039300034B030AEFEF722BE002B40F38C80BBF1DA
:10394000000F4AD1079AD10747D41A4623EAE373F6
:103950000D92DDE52BEAEB73CDF834B00993834685
:103960000E9413909DF86F70FEF70FBEA0460025D1
:10397000FEF75CBD23AA08990A9802F087FB00288D
:103980007EF436AF0DF1C00A1D9D259C249B17E6E1
:10399000219B9FE5303330228DF87F308DF87E20DB
:1039A00020AB22E7169A139B134467220D931192C2
:1039B00023EAE373ACE50E931746FFF7D2BB0998F1
:1039C00039460022002303F057FD00287FF45FAE44
:1039D000C5F101051D952C4469E5139B169A9D18A8
:1039E00005EB0B030D9323EAE37391E50799384E3A
:1039F00021F08001374B0791119903224FF0000B02
:103A000009924729D8BF1E460D92CDF84CB09DF8BB
:103A10006F70FEF7BABD079B13F001037FF4EEAEA3
:103A200013930D9B23EAE37372E5139B0D9AC3F185
:103A300001031A4413460D9259E70E9898F8013085
:103A400005680430002D0E90A046BEF6EDAC4FF098
:103A5000FF35FEF7E9BCBBF1000F02D1079BDA0787
:103A600007D5169B5D1C05EB0B030D9323EAE3734F
:103A70004EE501230D934BE58DF86F10FFF7C6B9A6
:103A80008DF86F10FFF79AB98DF86F10FFF7EBB94B
:103A90008DF86F10FFF713BB0DF17E03A5E68DF8CF
:103AA0006F10FFF726BA8DF86F10FFF715B98DF874
:103AB0006F10FFF76DB98DF86F10FFF7B0BA8DF882
:103AC0006F10FFF7E0B88DF86F10FFF798B800BFE0
:103AD0000879000804790008F0B50C468989ADF230
:103AE0006C4D656E21F00201666AADF80C10E1695B
:103AF000E789199500250791099606951AAE4FF4A6
:103B0000806569460096049602950595ADF80E709D
:103B10000646FEF715FC051E07DB3046694601F038
:103B2000D5F8002818BF4FF0FF35BDF80C305B0604
:103B300003D5A38943F04003A38128460DF26C4DC1
:103B4000F0BD00BF38B5304B054618680C4610B1C3
:103B5000836B002B38D0B4F90C2093B218070CD526
:103B60002069A8B113F001021ED0636900225B42F4
:103B7000A361A260F0B1002038BDD9063BD558073B
:103B800025D4206942F00803A3819BB20028E9D123
:103B900003F42072B2F5007FE4D02846214601F0FC
:103BA000CFFAA3892069DDE7990758BF6269A2604F
:103BB0000028E0D1B4F90C301A06DDD543F04003FB
:103BC000A3814FF0FF3038BD01F014F9C3E7216B3A
:103BD00051B104F14003994204D0284601F062F942
:103BE000B4F90C20002323632069002322F024026F
:103BF00084E80900C6E742F0400209232B604FF039
:103C0000FF30A28138BD00BF900400202DE9F04FA5
:103C100003690F6983B09F4200F38980013F01F17E
:103C2000140600F1140A56F827305AF827200133F9
:103C3000B2FBF3F8BB00009306EB03095344019376
:103C4000B8F1000F3BD000231C46B446D6465CF8C2
:103C500004BBDEF800501FFA8BF208FB02324FEA79
:103C60001B4B130C08FB0B3392B2A41A1FFA83FBF5
:103C7000AAB22244CBEB154404EB224492B242EAAE
:103C80000442E1454EF8042B4FEA24444FEA134323
:103C9000DDD2009B5AF803308BB9019C231F9A4553
:103CA0000CD254F8043C4BB9A4F1080302E01A68A2
:103CB000043B1AB99A4507F1FF37F8D30761044668
:103CC00002F04AF800282EDB00235546194608F179
:103CD000010856F8042B2B6890B2081A120C99B2FE
:103CE000C2EB1343421803EB224392B242EA03426F
:103CF000B14545F8042B4FEA2341EAD25AF8272070
:103D00000AEB87037AB91A1F92450BD253F8042C99
:103D100042B9083B02E01A68043B1AB99A4507F118
:103D2000FF37F8D32761404603B0BDE8F08F00208D
:103D300003B0BDE8F08F00BF2DE9F04F016C99B0E2
:103D4000814692469B46259C49B1426C0123934093
:103D50008B604A6001F01AFE0023C9F84030BBF1C5
:103D6000000FD84633DB00232360A34B1A4608EA32
:103D70000303934214D0002200235046594603F017
:103D80007BFB054648B3249A01231360269B002B36
:103D900000F0C58099481860013819B0BDE8F08F6F
:103DA00042F20F73249A1360BAF1000F00F0A28060
:103DB0009348269B002BF0D0C378002B00F0B180F5
:103DC00000F10803269A136019B0BDE8F08F0123B3
:103DD0002BF000482360C346C7E716AA17AB019231
:103DE000009352465B46484602F06AF85FEA185470
:103DF000099040F08880169D179C2C4404F23243B1
:103E0000202B40F38A82C3F1400304F2124008FAE7
:103E100003F82AFA00F040EA080003F04FF8012303
:103E2000013CA1F1F8710F930022764B02F008FFDC
:103E30006BA3D3E9002303F0B7F86BA3D3E9002306
:103E400002F000FF064620460F4603F047F868A33D
:103E5000D3E9002303F0A8F802460B463046394662
:103E600002F0F0FE06460F4603F04EFB00220390E0
:103E700000233046394603F009FB002840F0298230
:103E8000039E162E00F222825F49524601EBC601C4
:103E90005B46D1E9000103F017FB002800F04282E5
:103EA000731E039300230D932C1B631E049300F1D8
:103EB0002B8200230693039B002BC0F21C82049AE2
:103EC0000C9311461944002304910B93229B092B58
:103ED00029D8052B40F35286043B22930025229BD0
:103EE000023B032B00F22F86DFE813F027032002AA
:103EF00032035304424B454AC8F31300002814BF51
:103F00001846104655E7CBF3130343F07F510F9546
:103F10005046A4F2FF3441F44011169D84E73C481A
:103F20003BE7C31C4EE70021C9F8441048462291E4
:103F300001F004FD4FF0FF33229A07930E93012303
:103F400008902392C9F840000A93179B002BC0F2F7
:103F5000CA80039A0E2A00F3C6802B4B03EBC203E0
:103F600018CBCDE90434239B002BC0F2FC825646CB
:103F70005F46DDE904AB304652465B46394603F006
:103F80003DF903F0C1FA044602F0A8FF52465B4631
:103F900003F00AF802460B463046394602F050FE5E
:103FA000079E089F04F13005012E3D7002460B4626
:103FB00007F101055ED00022164B02F0F5FF00224A
:103FC000002306460F4603F057FA002878D1CDF8B3
:103FD0001890DDF81CA0DDF820B0DDE9048928E0A8
:103FE00061436F63A787D23FB3C8608B288AC63FFF
:103FF000FB799F501344D33F0000F07F3D790008C8
:104000005C7900080000F83F6079000850790008EA
:104010003C790008000024400022C34B02F0C4FF9A
:104020000022002306460F4603F026FA002840F03F
:10403000B38342464B463046394603F0DFF803F07F
:1040400063FA044602F04AFF42464B4602F0ACFFD8
:1040500002460B463046394602F0F2FD04F13006C6
:1040600005F8016BCBEB0506564502460B46D3D14E
:10407000DDF818901046194602F0E4FD06460F469A
:1040800002460B46DDE9040103F000FA40B9DDE920
:10409000040132463B4603F0EFF988B1E3070FD540
:1040A00015F8014C6B1E089A04E09A4200F02C842B
:1040B00013F8014D392C03F10105F6D001341C70C1
:1040C0000999484601F062FC0022039B2A70249A59
:1040D00001331360269B002B00F0A88308981D6015
:1040E00019B0BDE8F08F0A9A002A00F01281229AD6
:1040F000012A40F35A82079B0B9A5F1EBA42C0F214
:104100009883D71B079B002BC0F28C84069D079BCE
:10411000069A01211A440692049A48461A440492C7
:1041200001F0CCFC064665B1049900290B4608DD78
:10413000A942A8BF2B46069AED1AD21ACB1A0692AC
:1041400004930B9B002B40F3FD820A9A002A00F097
:104150000382002F00F0008231463A46484601F0C3
:1041600055FDDDF82480014642460646484601F0EA
:10417000AFFC41460446484601F008FC0B9BDB1BA4
:104180000B9340F0E8810121484601F097FC0C9B1D
:104190008046002B00F01B8201461A46484601F07B
:1041A00035FD229B8046012B40F3F9820027D8F889
:1041B000103008EB8303186901F032FCC0F12000D5
:1041C000049A104410F01F0000F0F881C0F12003A1
:1041D000042B40F3CB84069BC0F11C0003440693E0
:1041E0001346034405440493069B002B05DD21463A
:1041F0001A46484601F05AFD0446049B002B05DD93
:1042000041461A46484601F051FD80460D9B002B61
:1042100040F07D82079B002B40F396820A9B002B87
:1042200040F0F681DDF820A0079F554604E02146C6
:10423000484601F0B5FB044641462046FFF7E6FC40
:10424000303005F8010BCAEB0503BB424FF00A0200
:104250004FF00003EBDB089B079A8246012AACBFB4
:104260009B1801331D464FF0000B214601224846A2
:1042700001F01CFD4146099001F06EFD002840F35D
:104280000E8315F8012C6B1E089904E08B4200F098
:10429000798213F8012D392A03F10105F6D0013294
:1042A0001A704146484601F071FB002E3FF408AFFA
:1042B000BBF1000F05D0B34503D05946484601F085
:1042C00065FB3146484601F061FBF9E601230D9399
:1042D000EAE5DDF80C80404602F000FE02460B469F
:1042E0003046394603F0C8F800287FF4C9AD08F11C
:1042F000FF330393C4E5069A039BD21A5B420B93E8
:10430000002306920C93E1E55B420693002304939D
:10431000D1E50B9F069D0A9E05E7C3F120080AFA26
:1043200008F07AE50D90BFE50000244000230A93D1
:10433000039B239A13440E930133002B079340F3FE
:104340008582079C26460021172EC9F844100BD9F8
:10435000012204235B0003F11400B042114602F174
:104360000102F7D9C9F84410484601F0E7FA0E2CCB
:104370000890C9F840003FF6E8AD002D3FF4E5ADE8
:104380005746D8460399CDE91078002940F3938227
:10439000924B01F00F020E1103EBC203F006D3E9BA
:1043A000004540F14E828E4B5046D3E908235946D2
:1043B00002F024FF82468B4606F00F064FF00308FA
:1043C00086B1874FF10709D5D7E900232046294652
:1043D00002F0EAFD04460D4608F10108761007F1E7
:1043E0000807EFD122462B465046594602F006FFF9
:1043F00006460F460D9B43B100227A4B30463946A4
:1044000003F044F8002840F02383404602F066FDA4
:1044100032463B4602F0C8FD734B002202F012FC0C
:10442000079B0446A1F15075002B00F0E181039B2E
:104430001393079B12930A9B002B00F09882129A09
:10444000664B002003EBC20353E90223674902F0E5
:10445000D5FE22462B4602F0F3FB82468B463046C1
:10446000394603F051F8044602F038FD02460B4687
:104470003046394602F0E4FB3034089DE4B206468B
:104480000F462C7002460B4650465946013503F044
:104490001BF800284ED132463B460020514902F01D
:1044A000CFFB02460B465046594603F00DF8002854
:1044B00040F00E83129A012A40F3B481129B089AAD
:1044C000134498460FE032463B460020454902F02F
:1044D000B7FB52465B4602F0D9FF002840F0F88255
:1044E000454500F09F81504659460022404B02F05E
:1044F0005BFD00223E4B82468B463046394602F039
:1045000053FD0F46064602F0FFFF044602F0E6FCAC
:1045100002460B463046394602F092FB3034E4B294
:1045200005F8014B52465B4606460F4602F0AEFFC9
:104530000028C8D0139B0393C2E500230A93239B52
:10454000002B40F388811E461C460E930793FAE623
:1045500001230A93F3E709940B9A0999484601F05D
:1045600055FB04460FE6079B002B3FF700AD40F0DC
:10457000D982DDE9040100221E4B02F015FD5246EE
:104580005B4602F097FFDDF81C804646002800F0ED
:10459000F180239B089DDB4303934146484601F08D
:1045A000F5F9002E3FF48CAD8BE60F9A002A00F04F
:1045B000418203F233430B9F069DA9E51C20069B15
:1045C000054403440693049B034404930CE6229B96
:1045D000012B40F381820C9F0120F1E560790008F6
:1045E000387A00080000F03F00001C400000E03F67
:1045F0000000244000001440314600230A224846AF
:1046000001F0CEF90E9B0646002B40F397820793EC
:10461000002D05DD31462A46484601F047FB064697
:10462000002F40F07B810696079B089A013BD31828
:10463000099317460AF00103C246DDF818B00A9341
:1046400051462046FFF7E2FA31460546204601F082
:1046500083FB5A4604905146484601F09DFBC268D0
:10466000804605F13003002A49D1014620460793D0
:1046700001F072FB41460690484601F087F9069A20
:10468000079B2AB9229919B90A99002900F03682A4
:1046900004990029C0F2E48005D1229919B90A9938
:1046A000002900F0DD80002A00F34C81099A07F10F
:1046B000010897423B70454600F053812146002394
:1046C0000A22484601F06CF95E45044631464FF037
:1046D00000034FF00A0248460BD001F061F9594639
:1046E000064600230A22484601F05AF94746834607
:1046F000A6E701F055F9474606468346A0E701467E
:104700004846069301F042F90122069BC0E7414664
:10471000204601F021FB0028BFF67CAD2146039C1A
:104720000023013C0A224846039401F039F90A9B10
:104730000446002B7FF460AF0E9B002B40F3F68104
:1047400007936FE5099C1EE5229B022B7FF766AD60
:10475000079B002B40F07A8141460522484601F034
:104760001FF901468046204601F0F6FA0028099418
:104770007FF70FAF039A08993123013203920B7030
:104780004D1C0AE7039A312301320392089A1370F1
:1047900087E501230A93CBE5DDF8189090E4BAF1A0
:1047A000000F7FF403ADCBF31303002B40F04081E7
:1047B0002BF000473F0D3F0537B1069B0127013322
:1047C0000693049B013304930C9B0120002B3FF4C0
:1047D000F7ACECE4404602F081FB32463B4602F087
:1047E000E3FB0022BF4B02F02DFA0446A1F1507505
:1047F000304639460022BC4B02F022FA22462B46B4
:1048000006460F4602F060FE8046002840F0068112
:10481000224605F100433046394602F037FE08B122
:104820004646B6E6DDE910ABFFF78FBB0898FFF709
:10483000B4BA0B9B0C9AFB1A1A440B970C920027E4
:1048400060E4DDE910AB4FF00208B9E51C46002139
:10485000C9F8441088E5012423940E940794F6E7E0
:10486000002AD046CDF818B09A4611DD2146012223
:10487000484601F01BFA4146044601F06DFA002853
:1048800040F34981BAF1390F00F0078105F1310A8F
:10489000B34687F800A07D1C069E099401E504D16B
:1048A0001AF0010F01D0ECE4154615F8013C6A1E20
:1048B000302BF9D0F5E4039B5C42002C00F0C18062
:1048C000DDE91001894B04F00F0203EBC203D3E9C9
:1048D000002302F069FB241106460F4600F02B81ED
:1048E000834D4FF00208E20709D5D5E90023304691
:1048F000394602F059FB06460F4608F101086410DC
:1049000005F10805EFD175E5089930220A70039A80
:1049100015F8014C01320392FFF7D0BB716848468D
:1049200001F00CF80546336906F10C019A1C92005F
:104930000C3000F03BFF29460122484601F0B6F951
:10494000069071E6392BCDF818B0D04600F0A5805E
:1049500003F1010AB34687F800A07D1C069E099466
:104960009FE45A46D046B3469A4616467DE4129BCB
:104970005E4903F1FF3A01EBCA012246D1E9000189
:104980002B4602F011FBCDE914013946304602F006
:10499000BBFD044602F0A2FA0B46024639463046F9
:1049A00002F04EF9129B0F4608993034012B06464F
:1049B0000C7001F101051FD0129B089AA846134400
:1049C0009B4600224B4B3046394602F0EDFA0F462B
:1049D000064602F099FD044602F080FA02460B46B4
:1049E0003046394602F02CF9303408F8014BC34503
:1049F00006460F46E5D1554400223F4BDDE9140140
:104A000002F020F932463B4602F040FD00284CD02F
:104A1000139B039315F8014CFFF744BB4FF00008BC
:104A20004646A7E6069B079A9D1A0023FFF770BB30
:104A30000027C9E6169B0B9FC3F13603069DFFF7BF
:104A400067BBDDE910674FF00208D3E40994A0E5E5
:104A5000079B002B3FF4BEAE0E9B002B7FF7E2AE10
:104A60000022244B3046394602F09EFA06460F4695
:104A700008F1010002F032FA32463B4602F094FAA5
:104A80000022184B02F0DEF8039A0E9B013A04460E
:104A90001392A1F150751293CDE43922B3460994D3
:104AA000069E3A707D1CFFF7EEBBDDE91423002063
:104AB000114902F0C5F832463B4602F005FD08B93F
:104AC000B0E6154615F8013C6A1E302BF9D031E5E9
:104AD000139B0393FFF7E6BABAF1000F7FF47BADA7
:104AE00061E600BF00001C4000001440607900082F
:104AF000387A0008000024400000E03F392BCDF850
:104B000018B0D046DDF810B09A46C6D0BBF1000F01
:104B10003FF7BCAEBCE67FF4BBAE1AF0010F3FF42A
:104B2000B7AEAFE64FF00008464632E5229B022BB7
:104B300021DC0E9B04E64FF002085BE4229B022B73
:104B400019DC0E9B63E50024C9F844402146484621
:104B500000F0F4FE4FF0FF3307930E93012308900B
:104B60002394C9F840000A93FFF7EFB93FF43CAB38
:104B7000C0F13C0023E50E9B0793E9E50125FFF713
:104B8000AEB900BFB1F90C302DE9F0419AB20D4633
:104B9000110780463CD46A6843F40063002AAB8165
:104BA00073DDAC6A002C4BD09BB203F48052002121
:104BB00092B2D8F80060C8F80010002A69D02A6DB7
:104BC0005F0705D569682B6B521A0BB1EB6BD21AD4
:104BD0000023E9694046A047441C3CD0B5F90C309D
:104BE000296923F400630022AB81DB0485E8060019
:104BF00049D4296BC8F8006011B305F1400399420C
:104C000002D0404600F04EF900202863BDE8F08154
:104C10002E69AEB190072C680CBF6B6900232E6023
:104C2000A41BAB600AE0234632466F6AE96940463E
:104C3000B8470028A4EB0004064404DD002CF2DC95
:104C40000020BDE8F081AB894FF0FF3043F0400316
:104C5000AB81BDE8F081D8F800201D2AF3D81A4BAB
:104C6000D34003F0010383F00104002BEBD0B5F92E
:104C70000C30296923F400632960D9046C60AB818E
:104C8000B7D5002AB5D12865B3E7EA6B002A88DCDE
:104C9000D6E70123E9694046A047431C024602D0FB
:104CA000AB89AC6A8CE7D8F80030002BF8D01D2B0C
:104CB00001D0162B02D1C8F80060C1E7AB8943F0E0
:104CC0004003AB81BDE8F0810100402010B50446EF
:104CD00082B008B1836B53B1B1F90C0008B902B0CE
:104CE00010BD204602B0BDE81040FFF74BBF019158
:104CF00000F080F80199EFE7014900F0BBB900BF6F
:104D0000516100082DE9F04F074635487D680024C1
:104D100007F53B7204230321F863C7F8E412C7F8D0
:104D2000E822C7F8E04283B02C606C60AC606C662F
:104D3000EC812C616C61AC61AB81214605F15C00BA
:104D4000082200F0A9FDDFF89CB0BE68DFF898A04B
:104D5000DFF89890DFF8988001230922C5F820B089
:104D6000C5F824A0C5F82890C5F82C80ED6121462F
:104D7000F381B28106F15C0034607460B4607466E3
:104D800034617461B4610822019300F085FDFD680F
:104D900012200222F661C6F820B0C6F824A0C6F898
:104DA0002890C6F82C802146A881EA812C606C608E
:104DB000AC606C662C616C61AC6105F15C00082232
:104DC00000F06AFD019BED61C5F820B0C5F824A094
:104DD000C5F82890C5F82C80BB6303B0BDE8F08F00
:104DE000F94C00088D5F0008B15F0008ED5F000816
:104DF0000D600008836B03B17047FFF783BF00BFEE
:104E0000704700BF704700BFF8B50C46224F0646FA
:104E100000F090FDBB685D6825F00305291B01F6D5
:104E2000EF7121F47F6121F00F01A1F58054B4F5F9
:104E3000805F07DB0021304601F096F8BB682B4409
:104E4000984204D0304600F077FD0020F8BD614262
:104E5000304601F089F801300DD0104BBA6819685E
:104E60002D1B45F001053046091B5560196000F007
:104E700063FD0120F8BD0021304601F075F8BA68E5
:104E8000831A0F2BDEDD064C0449246843F001032E
:104E9000001B53600860D5E7940400202C0E00200E
:104EA000A0080020002945D02DE9F0410D4680469C
:104EB00000F040FD55F8047C6A49A5F1080427F08C
:104EC0000103E2188E685068B24220F0030062D0FD
:104ED000FE0750600BD455F8087C01F1080EE41B66
:104EE000A5683B4475456FD0E768EF60BD60151855
:104EF0006D68ED0742D543F001026260E350B3F5FF
:104F0000007F18D2DB0848689D100122013351F858
:104F1000337002FA05F501EBC3022843083AE26058
:104F2000A760486041F83340FC604046BDE8F0416E
:104F300000F002BD70475A0A042A53D89A0902F1B8
:104F400039077F0002F1380501EB870051F827206F
:104F50000838904243494DD0516821F003018B42FB
:104F600002D292689042F7D1D068E060A26084607B
:104F7000D4604046BDE8F04100F0DEBC95683A4F91
:104F80000344BD423FD0D06843F00102E860856031
:104F90006260E350B3E7FF07034407D455F8085CA9
:104FA000641BE268A0682B44C26090602F4A43F003
:104FB00001001268606093428C60B6D32C4B40466F
:104FC0001968FFF721FFB0E711184968C90744D4F1
:104FD00091680344D26843F00100CA609160606048
:104FE000E350A2E7142A17D802F15C077F0002F110
:104FF0005B05A9E7AA104B68012505FA02F21343E5
:105000004B600246B1E743F001024C610C61E56080
:10501000A5606260E35088E7542A06D81A0B02F1B3
:105020006F077F0002F16E058EE7B2F5AA7F06D802
:10503000DA0B02F178077F0002F1770584E740F28E
:105040005450824206D89A0C02F17D077F0002F18B
:105050007C0579E7FE277E2576E743F00102626052
:10506000E35062E7940400209C0400209C08002088
:10507000280E00202DE9F84310F538761ED088461A
:1050800007464FF000097568B468013D10D4A38944
:10509000013D012B08D9B4F90E30013304D021466B
:1050A0003846C04749EA00096B1C04F16804EED198
:1050B0003668002EE7D14846BDE8F883B146484639
:1050C000BDE8F883044A054B1268506B002808BFFE
:1050D0001846F030704700BF90040020A40800205C
:1050E00070B50E46B1F90E1090B0002914461D4659
:1050F00014DB01AA01F0CAF800280FDB029A4FF472
:10510000806302F47042A2F50052B2FA82F24FF4C8
:10511000006052092A60236010B070BDB28900207F
:1051200002F0800292B228601AB14023236010B0CE
:1051300070BD10464FF48063236010B070BD00BF97
:105140008A890B46920706D501F1430201211A60B4
:105150001A6159617047F0B583B001AB6A460C46DD
:105160000546FFF7BDFF00990646284600F02CF8DB
:10517000B4F90C30D0B19DE80600124F43F0800323
:10518000EF63A3812060206161611AB93343A38179
:1051900003B0F0BD2846B4F90E1001F00FFAB4F9CF
:1051A0000C300028F2D043F00103EFE79A05EFD46A
:1051B00004F1430243F002030121A3812260226132
:1051C0006161E5E7F94C00082DE9F04F01F10B05AD
:1051D000162D83B0064640F2A08035F0070500F199
:1051E000C080A94200F2BD8000F0A4FBB5F5FC7FB1
:1051F000C0F090826B0A00F0BB80042B00F2778134
:10520000A80900F1390E4FEA4E013830BE4F07EBC6
:1052100081014C680839A14207D1AEE0002A80F232
:10522000AE80E468A14200F0A880636823F0030325
:105230005A1B0F2AF2DDB4493C6901F1080E74458E
:1052400000F0A881636823F003035A1B0F2A00F3C0
:105250008E81002AC1F814E0C1F810E080F293803A
:10526000B3F5007F80F05C81DB084A684FEAA30950
:105270004FF0010C013351F833800CFA09F901EBBE
:10528000C30C49EA0202ACF1080CC4F80CC0C4F823
:1052900008804A6041F83340C8F80C40831001246C
:1052A0009C4094427CD8144206D120F00300640054
:1052B000144200F10400FAD007EBC009CC46804646
:1052C000DCF80C108C4507D166E1002A80F274816D
:1052D000C9688C4500F060814B6823F003035A1BBA
:1052E0000F2AF2DD0C46CB6854F808CF45F00108D0
:1052F000C1F804800D4442F00101CCF80C30304676
:10530000C3F808C07D613D61C5F80CE0C5F808E050
:105310006960AA5000F010FB1FE0102921D800F0AE
:1053200009FB102506230220774F07EB83035C68F7
:10533000A3F10802944200F038816368E16823F029
:10534000030323445A68A56842F00102E96030462D
:105350008D605A6000F0F0FA0834204603B0BDE8D2
:10536000F08F002420460C23336003B0BDE8F08F9B
:1053700080214FF0400E3F2048E770465BE7234412
:105380005A68E168DFE723445A68304642F0010278
:105390005A60083400F0D0FA204603B0BDE8F08F20
:1053A000BC68636823F00308A84504D3C5EB080371
:1053B0000F2B00F38C80554BDFF860911A68D9F8F9
:1053C00000302A44013304EB080A00F0608102F542
:1053D00080520F3222F47F6222F00F0211463046D3
:1053E000019200F0C1FDB0F1FF3F8346019A00F049
:1053F0005881824500F2FC80454BDA45196811441A
:10540000196000F05381D9F80000DFF810E1013095
:105410001BBFCAEB0B0A5144CEF800B019601BF059
:10542000070100F01781C1F10800C1F580518344E4
:1054300008315A44C2F30B02C2EB01094946304617
:10544000019300F091FD431C019B00F03F81CBEBE9
:1054500000024A4442F001021968BC424944C7F8BC
:1054600008B01960CBF80420DFF8A49016D0B8F18A
:105470000F0F40F2FD806268A8F10C0323F00703D0
:1054800002F00102E0184FF0050E1A430F2B626084
:10549000C0F804E0C0F808E000F21C811D4BBC68B5
:1054A0001A68914288BF19601B4B1A689142626862
:1054B00088BF196022F003029542A2EB050301D8D0
:1054C0000F2B04DC304600F037FA002445E745F0A6
:1054D000010243F00103254462603046BD60083498
:1054E0006B6000F029FA204603B0BDE8F08F142B62
:1054F00071D9542B00F2A480280B00F16F0E4FEAF3
:105500004E016E3082E600BF94040020280E002079
:105510002C0E0020240E0020200E0020A0080020C9
:105520005A0A042A5ED9142A00F2B38002F15C01FF
:1055300049005B3207EB810C57F82110ACF1080CE5
:105540008C45DFF8D88100F088804A6822F0030299
:10555000934202D289688C45F7D1D1F80CC07A68A1
:10556000C4F80CC0A160CCF80840CC6096E645F0C9
:10557000010742F001032544676030464D610D612B
:10558000C5F80CE0C5F808E06B60AA50083400F0DC
:10559000D3F9E2E64A6881E608F1010818F0030F42
:1055A0000CF1080C7FF48CAE30E0DC68A34208BF3D
:1055B00002303FF440AEC0E60C460B445A68C9685E
:1055C00054F8085F42F001025A603046E9608D608D
:1055D00000F0B2F9C1E603F15C0E03F15B004FEAA3
:1055E0004E0113E69A0902F1390149003832A1E768
:1055F000BC424A4B3FF400AF9C68626822F0030251
:105600005AE759F80839994540F0828010F0030FA5
:1056100000F1FF30F5D17B6823EA04037B6064006E
:105620009C423FF6BDAE002C3FF4BAAE1C42404651
:105630007FF442AE64001C4200F10400FAD03BE665
:10564000B3F5AA7F18D8E80B00F1780E4FEA4E01A7
:105650007730DBE54FF48051EBE60121D8F80430D8
:10566000921001FA02F21A43C8F80420614677E763
:105670000123CBF8043025E740F25452934220D85E
:10568000A80C00F17D0E4FEA4E017C30BEE51032D1
:10569000A4E6542A26D81A0B02F16F0149006E3293
:1056A00048E7BC68626822F0030205E7CAF30B0012
:1056B00000287FF4A8AE4244BB6842F001025A6061
:1056C000ECE6FE214FF07F0E7E209FE501224FF099
:1056D0000009C1E604F108013046FFF7E3FBD9F801
:1056E0000010DBE6B2F5AA7F05D8DA0B02F17801EB
:1056F000490077321EE740F254518A4205D89A0C8D
:1057000002F17D0149007C3214E7FE217E2211E77F
:105710007B6884E7E808431C5B0005E694040020EE
:10572000830770B4CDB23DD0531E02B30278AA42B3
:105730001ED0421C04E0D3B10478013BAC4217D028
:1057400012F0030F104602F10102F4D1032B11D81D
:1057500053B30278AA420BD00344421C02E0017802
:10576000A94205D09342104602F10102F7D1002070
:1057700070BC704704460E0206F47F462E4346EA8C
:105780000646226820467240A2F1013121EA020257
:1057900012F0803F04F10404DBD1043B032B2046CC
:1057A000EFD8D5E71346D1E71846E1E7844641EA4A
:1057B000000313F0030349D1403A23D30B6803607D
:1057C0004B6843608B688360CB68C3600B6903617F
:1057D0004B6943618B698361CB69C3610B6A036267
:1057E0004B6A43628B6A8362CB6AC3620B6B03634F
:1057F0004B6B43638B6B8363CB6BC3634030403134
:10580000403ADBD230320BD30B6803604B68436005
:105810008B688360CB68C36010301031103AF3D2CC
:105820000C3205D351F8043B40F8043B043AF9D25A
:10583000043208D0D2071CBF11F8013B00F8013B2D
:1058400001D30B8803806046704700BF082A13D33A
:105850008B07B1D010F00303AED0C3F10403D21A0A
:10586000DB071CBF11F8013B00F8013BA4D331F862
:10587000023B20F8023B9FE7043AD9D3013A11F8E2
:10588000013B00F8013BF9D20B7803704B78437071
:105890008B7883706046704770B4840746D0541E7E
:1058A000002A41D0CDB2034602E0621EE4B31446A2
:1058B00003F8015B9A07F8D1032C2ED9CDB245EA43
:1058C00005250F2C45EA054519D9264603F1100296
:1058D000103E0F2E42F8105C42F80C5C42F8085C57
:1058E00042F8045C02F11002F2D8A4F1100222F096
:1058F0000F0204F00F041032032C13440DD91E467E
:105900002246043A032A46F8045BFAD8221F22F002
:1059100003020432134404F003042CB1C9B21C4442
:1059200003F8011BA342FBD170BC70471446034629
:10593000C2E700BF704700BF704700BFC26C70B5C0
:1059400005460C4652B152F824308BB1196842F822
:105950002410002218461A61DA6070BD2122042149
:1059600000F0B4FBE86402460028ECD1002070BDD2
:10597000012101FA04F6721D2846920000F0A6FBF0
:1059800003460028F2D044608660E2E731B1C36C80
:105990004A6853F82200086043F82210704700BF9D
:1059A000F0B50C4605460E6983B001F1140E0027D0
:1059B000DEF80000013781B202FB0131000C0B0C54
:1059C00002FB003389B201EB0341BE424EF8041BD7
:1059D0004FEA1343ECDC3BB1A268964207DA04EBD2
:1059E0008602013653612661204603B0F0BD61682E
:1059F000284601310193FFF7A1FF0746226904F110
:105A00000C01023292000C30FFF7D0FEEA6C6168A4
:105A1000019B52F82100206042F821403C46DEE71D
:105A2000030C1B04B3B90004102310F07F4F04BF14
:105A30000002083310F0704F04BF0001043310F06F
:105A4000404F04BF80000233002807DB420003D42C
:105A5000202070470023E8E7581C7047184670471D
:105A6000036813F0070207D0D90720D49A0720D47F
:105A70009B0803600220704799B209B91B0C1022E1
:105A800013F0FF0F04BF1B0A0832190704BF1B09DC
:105A90000432990704BF9B080232D90704D45B087B
:105AA00001D120207047013203601046704700206A
:105AB00070475B0803600120704700BF10B50C46BB
:105AC0000121FFF73BFF01224461026110BD00BFCD
:105AD0002DE9F04F0D69166985B0B5420C46914627
