:020000040800F2
:10000000600600201D0200082502000827020008E3
:10001000290200082B0200082D0200080000000041
:100020000000000000000000000000002F02000897
:100030003102000800000000330200083502000809
:1000400037020008370200083702000837020008AC
:10005000370200083702000837020008370200089C
:10006000370200083702000837020008370200088C
:10007000370200083702000837020008370200087C
:1000800037020008370200083702000800000000AD
:10009000000000000000000000000000370200081F
:1000A000370200083702000837020008370200084C
:1000B000370200083702000837020008370200083C
:1000C000370200083702000837020008370200082C
:1000D000370200083702000837020008000000005D
:1000E000370200083702000837020008000000004D
:1000F00000000000000000000000000037020008BF
:10010000000000003702000837020008370200082C
:1001100000000000000000000000000000000000DF
:1001200037020008370200083702000837020008CB
:10013000370200080000000000000000000000007E
:10014000000000000000000000000000370200086E
:10015000370200083702000837020008370200089B
:10016000370200083702000800000000000000000D
:10017000000000000000000000000000000000007F
:10018000000000003702000800000000000000002E
:10019000370200083702000800F002F800F02EF8DD
:1001A0000AA090E8000C82448344AAF10107DA45D2
:1001B00001D100F023F8AFF2090EBAE80F0013F0F6
:1001C000010F18BFFB1A43F0010318471C0200007F
:1001D0002C0200000023002400250026103A28BF2E
:1001E00078C1FBD8520728BF30C148BF0B607047A9
:1001F0001FB500F0F3F81FBD10B510BD00F031F8C9
:100200001146FFF7F5FF00F0CFF800F04FF803B408
:10021000FFF7F2FF03BC00F057F8000009488047E1
:1002200009480047FEE7FEE7FEE7FEE7FEE7FEE7D8
:10023000FEE7FEE7FEE7FEE704480549054A064BF0
:10024000704700004D03000899010008600000207D
:1002500060060020600200206002002070477047A6
:100260007047754600F02CF8AE46050069465346C7
:1002700020F00700854618B020B5FFF7DDFFBDE888
:1002800020404FF000064FF000074FF000084FF0FD
:10029000000B21F00701AC46ACE8C009ACE8C0098E
:1002A000ACE8C009ACE8C0098D46704710B50446FB
:1002B000AFF300802046BDE81040FFF7A8BF000064
:1002C000004870470000002001491820ABBEFEE73F
:1002D00026000200704700001848016841F0805174
:1002E00001601748016841F4404101601348383803
:1002F0000168016001680160016841F4805101609A
:10030000021F10491160111F0A6842F080720A60D2
:100310000A689201FCD50C4A40F202711160016832
:1003200021F003010160016841F0020101600168F0
:10033000C1F381010229FAD1704700004038024020
:100340000070004010640107003C0240124810B5E4
:10035000016841F4700101601048016841F0010139
:1003600001600E4A00210832116002680C4B1A40ED
:100370000260031D0B4A1A60026822F480220260A8
:1003800006480C300160FFF7A7FF03494FF00060FB
:100390008039086010BD000088ED00E000380240A0
:1003A000FFFFF6FE103000240A48016841F0010109
:1003B00001600948016841F480610160416821F0F1
:1003C00020014160816841F48061816020210183C6
:1003D000FDE7000030380240000002404FF040705E
:1003E000E1EE100A70470000F8030008000000204A
:0803F00060060000D4010008C2
:040000050800021DD0
:00000001FF
