:020000040800F2
:1000000060060020D1010008D9010008DB010008CA
:10001000DD010008DF010008E10100080000000028
:10002000000000000000000000000000E3010008E4
:10003000E501000800000000E7010008E9010008F0
:10004000EB010008EB010008EB010008EB010008E0
:10005000EB010008EB010008EB010008EB010008D0
:10006000EB010008EB010008EB010008EB010008C0
:10007000EB010008EB010008EB010008EB010008B0
:10008000EB010008EB010008EB010008EB010008A0
:10009000EB010008EB010008EB010008EB01000890
:1000A000EB010008EB010008EB010008EB01000880
:1000B000EB010008EB010008EB010008EB01000870
:1000C000EB010008EB010008EB010008EB01000860
:1000D000EB010008EB010008EB010008EB01000850
:1000E000EB010008EB010008EB0100080000000034
:1000F0000000000000000000000000000000000000
:100100000000000000000000EB010008EB01000807
:10011000EB010008EB010008EB010008EB0100080F
:10012000EB010008EB010008EB010008EB010008FF
:10013000EB010008EB010008EB010008EB010008EF
:10014000EB010008EB010008EB010008EB010008DF
:1001500000F002F800F02CF80AA090E8000C8244AD
:100160008344AAF10107DA4501D100F021F8AFF28A
:10017000090EBAE80F0013F0010F18BFFB1A43F085
:1001800001031847A4020000B40200000023002469
:1001900000250026103A28BF78C1FBD8520728BF97
:1001A00030C148BF0B6070471FB51FBD10B510BDF3
:1001B00000F031F81146FFF7F7FF00F01DF900F0ED
:1001C0004FF803B4FFF7F2FF03BC00F057F800004C
:1001D0000948804709480047FEE7FEE7FEE7FEE7DB
:1001E000FEE7FEE7FEE7FEE7FEE7FEE70448054917
:1001F000054A064B704700007903000851010008CA
:1002000060000020600600206002002060020020E4
:10021000704770477047754600F02CF8AE460500F1
:100220006946534620F00700854618B020B5FFF711
:10023000DDFFBDE820404FF000064FF000074FF013
:1002400000084FF0000B21F00701AC46ACE8C009F4
:10025000ACE8C009ACE8C009ACE8C0098D467047FD
:1002600010B50446AFF300802046BDE81040FFF70C
:10027000A8BF000000487047000000200149182076
:10028000ABBEFEE726000200704700000848806908
:1002900040F00400064988610648006820F0C0006C
:1002A000044908600846006840F010000860704784
:1002B000001002400008014010B500F001F810BD28
:1002C0000CB50020019000902A48006840F480306E
:1002D0002849086000BF2748006800F400300090FB
:1002E0000198401C0190009818B90198B0F5A06FD2
:1002F000F1D12048006800F4003010B101200090D6
:1003000001E0002000900098012831D11948406890
:100310001849486008464068486008464068486098
:100320000846406820F47C1048600846406840F465
:10033000981048600846006840F08070086000BF70
:100340000C48006800F000700028F9D009484068A7
:1003500020F00300074948600846406840F002006A
:10036000486000BF0348406800F00C000828F9D13D
:100370000CBD00000010024010B51448006840F0A9
:1003800001001249086008464068114908400F49B9
:100390004860084600680F4908400C490860084654
:1003A000006820F4802008600846406820F4FE00C1
:1003B00048604FF41F0088600020C862FFF77CFF90
:1003C0004FF000600449086010BD000000100240BA
:1003D0000000FFF8FFFFF6FE08ED00E006E005492B
:1003E00000E0491E0029FCD1421E90B20028F6D13F
:1003F00070470000808D5B00FFF748FF11E002208E
:10040000084908600120FFF7E9FF4FF40030054973
:1004100008600120FFF7E2FFFFF738FF0520FFF734
:10042000DDFFECE710080140380400080000002060
:08043000600600008C010008C9
:04000005080001D11D
:00000001FF
