:020000040800F2
:10000000DC08002089010008ED010008ED0100086E
:10001000ED010008ED010008ED01000800000000FE
:10002000000000000000000000000000ED010008DA
:10003000ED01000800000000ED0100085D0400086B
:10004000ED010008ED010008ED010008ED010008D8
:10005000ED010008ED010008ED010008ED010008C8
:10006000ED010008ED010008ED010008ED010008B8
:10007000ED010008ED010008ED010008ED010008A8
:10008000ED010008ED010008ED010008ED01000898
:10009000ED010008ED010008ED010008ED01000888
:1000A000ED010008ED010008ED010008ED01000878
:1000B000ED010008ED010008ED010008ED01000868
:1000C000ED010008ED010008ED010008ED01000858
:1000D000ED010008ED010008ED010008ED01000848
:1000E000ED010008ED010008ED010008ED01000838
:1000F000ED010008ED010008ED010008ED01000828
:10010000ED010008ED010008ED010008ED01000817
:10011000ED010008ED010008ED010008ED01000807
:10012000ED010008ED010008ED010008ED010008F7
:10013000ED010008ED010008ED010008ED010008E7
:10014000ED010008ED010008ED010008ED010008D7
:10015000ED010008ED010008ED010008ED010008C7
:10016000ED010008ED010008ED010008ED010008B7
:10017000ED010008ED010008ED010008ED010008A7
:10018000ED010008ED01000880B582B000AF124B10
:100190007B60124B3B600BE07B681A683B681A601F
:1001A0003B6803F104033B607B6803F104037B605D
:1001B0003A680B4B9A42EFD30A480B494FF00002C2
:1001C0008842B8BF40F8042BFADB00F0B9F807F119
:1001D0000807BD4680BD00BF4C120008000000208B
:1001E000C8000020C8000020E000002080B400AF5C
:1001F000FEE700BF80B483B000AF03463960FB71F7
:1002000097F90730002B0DDA0E49FB7903F00F0345
:10021000A3F104033A68D2B24FEA0212D2B2CB1869
:100220001A760AE0084997F907303A68D2B24FEADD
:100230000212D2B2CB1883F8002307F10C07BD4697
:1002400080BC704700ED00E000E100E080B582B0C6
:1002500000AF78607A686FF07F439A4202D94FF01E
:10026000010316E00D4B7A6822F07F4202F1FF3263
:100270005A604FF0FF304FF00F01FFF7BBFF074B05
:100280004FF000029A60054B4FF007021A604FF0E2
:100290000003184607F10807BD4680BD10E000E0E6
:1002A00080B582B000AF4FF480504FF0010100F0F4
:1002B000A9FA4FF001004FF0010100F081FA4FF070
:1002C00002004FF0010100F07BFA4FF004004FF004
:1002D000010100F075FA4FF008004FF0010100F045
:1002E0006FFA00F0E7F800F00BF900F027F94FF093
:1002F000010000F02BFA0F4A3B4692E80300186019
:1003000003F1040319703B46184600F083F90A4BC9
:100310005A68094B1B891046194600F065FB0748CF
:100320004FF000014FF0000200F0CCF907F1080790
:10033000BD4680BD4412000848000020A8000020EF
:1003400080B582B000AF3F4B1A683F4BA3FB02134E
:100350004FEA93131846FFF779FFFFF7A1FF4FF01D
:100360000003FB7100E000BF384B1B78DBB2002BB1
:10037000F9D0364B4FF000021A70354B5A68344BA7
:100380001B891046194600F021FB32484FF000014E
:100390004FF00A0200F0FCFE2E4B4FF001021A70E3
:1003A0002C4B4FF002025A702A4B4FF003029A7006
:1003B000284B4FF00402DA70264B4FF005021A71F9
:1003C000244B4FF004025A71224B4FF003029A71F2
:1003D000204B4FF00202DA711E4B4FF001021A72ED
:1003E0001C4B4FF000025A721A484FF00A0100F0FD
:1003F000F9FD194B5A68184B1B891046194600F035
:10040000E5FA4FF0010000F087F9134B5A68124BE0
:100410001B891046194600F0E7FA00F059FC034624
:1004200003F02003002BF8D04FF0050000F03CFC57
:10043000074B5A68064B1B891046194600F0D4FA40
:1004400092E700BFB4000020D34D6210C800002026
:1004500030000020D40000204800002080B400AF0D
:10046000104B1B6803F101020E4B1A600E4B1B6808
:1004700003F101020C4B1A600B4B1A680B4BA3FBE8
:1004800002134FEA53134FF0640101FB03F3D31A35
:10049000002B03D1064B4FF001021A70BD4680BC01
:1004A000704700BFCC000020D00000201F85EB511A
:1004B000C800002080B500AF0F484FF001014FF099
:1004C000000200F0FFF80D484FF001014FF000026C
:1004D00000F0F8F8084B5A68074B1B89104619467C
:1004E00000F082FA054B5A68044B1B8910461946E6
:1004F00000F07AFA80BD00BF300000203C000020F0
:1005000080B500AF0A484FF001014FF0000200F043
:10051000D9F808484FF000014FF0000200F0D2F87F
:1005200005484FF001014FF0000200F0CBF880BD0C
:1005300048000020540000206000002080B586B0F4
:1005400000AF2E484FF001014FF0020200F0BAF860
:100550002B484FF002014FF0020200F0B3F8294897
:100560004FF002014FF0020200F0ACF826484FF0C5
:1005700002014FF0020200F0A5F824484FF00501F7
:100580004FF0050200F056FA20484FF006014FF0F8
:10059000050200F04FFA1D484FF007014FF0050229
:1005A00000F048FA1A4B1B681B68194A1268526817
:1005B00010464FF00101984707F10403184600F078
:1005C000DBFA4FF48273FB804FF40073FB814FF032
:1005D00020033B820E4B5A6807F10403104619466C
:1005E00000F07EFA0A4B5B6818464FF0010100F0FC
:1005F000F1FA07F11807BD4680BD00BF7800002062
:1006000084000020900000209C0000200000024098
:100610006C00002080B582B000AF78604FF0000021
:1006200000F03AF84FF0010000F076F84FF00100CA
:1006300000F032F84FF0640000F06EF800F026FB96
:100640004FF0FF0000F0D6FB4FF006004FF0000126
:1006500000F068FB4FF0030000F044FB4FF0050092
:1006600000F04CFC4FF00600796800F015FC4FF0EC
:10067000000000F061FC4FF0780000F0A3FC4FF0A8
:10068000010000F07BFC4FF0020000F045F807F19C
:100690000807BD4680BD00BF80B582B000AF0346ED
:1006A000FB71074B5968064B1A89FB7908461146BE
:1006B0001A4600F0A7F907F10807BD4680BD00BF44
:1006C0006000002080B584B000AF786013460A4611
:1006D000FA70BB707B681B681B687A681268526886
:1006E00010464FF00101984707F10803184600F043
:1006F0004FF97B681B89BB60BB787B73FB783B73CE
:100700007B685A6807F108031046194600F09CF808
:1007100007F11007BD4680BD80B483B000AF78609C
:10072000084B084A52689A60074B4FF000021A6063
:10073000054B1A687B689A42FADB07F10C07BD4645
:1007400080BC704710E000E0CC00002080B582B093
:1007500000AF0346FB71094B5968084B1A89FB79B6
:10076000002B0CBF00230123DBB2084611461A46BA
:1007700000F048F907F10807BD4680BD7800002069
:1007800080B582B000AF0346FB71FB799BB20B488A
:10079000194600F04DFA09484FF0010100F056FAF1
:1007A0000346002BF7D0054800F034FA0346DBB2CD
:1007B000184607F10807BD4680BD00BF0030014064
:1007C00080B483B000AF78600B46FB70FB78002BE1
:1007D00007D00B4B0A4A116B7A6841EA02021A638E
:1007E00008E0074B064A116B7A686FEA020201EAD9
:1007F00002021A6307F10C07BD4680BC704700BFB8
:100800000038024080B483B000AF78600B46FB70C4
:10081000FB78002B07D00B4B0A4A516C7A6841EAEF
:1008200002025A6408E0074B064A516C7A686FEA84
:10083000020201EA02025A6407F10C07BD4680BCBD
:10084000704700BF0038024080B487B000AF7860C6
:1008500039604FF000037B614FF000033B614FF0C4
:100860000003FB604FF000037B6187E07B694FF082
:10087000010202FA03F33B613B681A683B6902EA32
:100880000303FB60FA683B699A4273D17B681A687C
:100890007B694FEA43034FF0030101FA03F36FEA68
:1008A00003031A407B681A607B681A683B681B79EF
:1008B00019467B694FEA430301FA03F31A437B6845
:1008C0001A603B681B79012B03D03B681B79022B14
:1008D00034D17B689A687B694FEA43034FF0030188
:1008E00001FA03F36FEA03031A407B689A607B689E
:1008F0009A683B685B7919467B694FEA430301FAC2
:1009000003F31A437B689A607B685A687B699BB2E1
:100910004FF0010101FA03F36FEA03031A407B6809
:100920005A607B685A683B689B7919467B699BB221
:1009300001FA03F39BB21A437B685A607B68DA685A
:100940007B699BB24FEA43034FF0030101FA03F3C3
:100950006FEA03031A407B68DA607B68DA683B68F9
:10096000DB7919467B694FEA430301FA03F31A4323
:100970007B68DA607B6903F101037B617B690F2B84
:100980007FF674AF07F11C07BD4680BC704700BFFF
:1009900080B483B000AF78607B684FF6FF721A6056
:1009A0007B684FF000021A717B684FF000025A71A9
:1009B0007B684FF000029A717B684FF00002DA7199
:1009C00007F10C07BD4680BC704700BF80B483B000
:1009D00000AF78600B467B807B687A881A8307F1CA
:1009E0000C07BD4680BC704780B483B000AF786010
:1009F0000B467B807B687A885A8307F10C07BD46DB
:100A000080BC704780B483B000AF786013460A465C
:100A10007A807B707B78002B03D07B687A881A837E
:100A200002E07B687A885A8307F10C07BD4680BCD8
:100A3000704700BF80B485B000AF786013460A46A7
:100A40007A807B704FF00003FB604FF00003BB60C7
:100A50007A787B8803F007034FEA830302FA03F3F3
:100A6000FB607B884FEAD3039BB21A467B884FEA30
:100A7000D3039BB219467B6801F1080153F821109A
:100A80007B8803F007034FEA83034FF00F0000FA5F
:100A900003F36FEA030319407B6802F1080243F88D
:100AA00022107B884FEAD3039BB21A467B6802F17F
:100AB000080253F82220FB6842EA0303BB607B88EC
:100AC0004FEAD3039BB21A467B6802F10802B96869
:100AD00043F8221007F11407BD4680BC704700BFE1
:100AE00080B485B000AF786039604FF00003FB81BF
:100AF0007B681B88FB81FB8903F44153FB813B68C6
:100B00001A883B685B8842EA03039AB23B689B8879
:100B100042EA03039AB23B68DB8842EA03039AB2D3
:100B20003B681B8942EA03039AB23B685B8942EA4D
:100B300003039AB23B689B8942EA03039AB23B687B
:100B4000DB8942EA03039AB2FB8942EA0303FB8191
:100B50007B68FA891A807B689B8B9BB223F40063C5
:100B60009AB27B689A833B681A8A7B681A8207F17B
:100B70001407BD4680BC704780B483B000AF786076
:100B80007B684FF000021A807B684FF000025A80A9
:100B90007B684FF000029A807B684FF00002DA8099
:100BA0007B684FF000021A817B684FF000025A8187
:100BB0007B684FF000029A817B684FF00002DA8177
:100BC0007B684FF007021A8207F10C07BD4680BC14
:100BD000704700BF80B483B000AF78600B46FB70F5
:100BE000FB78002B08D07B681B889BB243F0400346
:100BF0009AB27B681A8007E07B681B889BB223F05F
:100C000040039AB27B681A8007F10C07BD4680BC8E
:100C1000704700BF80B483B000AF78607B689B8969
:100C20009BB2184607F10C07BD4680BC704700BF59
:100C300080B483B000AF78600B467B807B687A8895
:100C40009A8107F10C07BD4680BC704780B485B01F
:100C500000AF78600B467B804FF00003FB737B682E
:100C60001B899AB27B8802EA03039BB2002B03D054
:100C70004FF00103FB7302E04FF00003FB73FB7BBB
:100C8000184607F11407BD4680BC704780B500AF19
:100C90004FF007004FF0700100F0E0F9034603F059
:100CA0007003DBB2184680BD80B582B000AF03464A
:100CB000FB71FB794FF0010202FA03F3DBB24FF054
:100CC0000700194600F0CAF907F10807BD4680BDC4
:100CD00080B500AF00F098F9034603F07003DBB273
:100CE000184680BD80B582B000AF0346FB714FF05F
:100CF000000000F095F90346DBB223F00C03DAB2F2
:100D0000FB794FEA8303DBB242EA0303DBB2DBB2D7
:100D10004FF00000194600F0A1F907F10807BD46A1
:100D200080BD00BF80B582B000AF02460B46FA71AD
:100D3000BB71FB79002B58DB052B02DDFF2B3DD06F
:100D400054E04FF0020000F06BF90346DAB2FB7991
:100D50004FF0010101FA03F3DBB242EA0303DBB215
:100D6000DBB24FF00200194600F078F94FF00100B5
:100D700000F056F90346DAB2FB794FF0010101FAAF
:100D800003F3DBB26FEA0303DBB202EA0303DAB276
:100D9000BB79002B06D0FB794FF0010101FA03F378
:100DA000DBB201E04FF0000342EA0303DBB2DBB247
:100DB0004FF00100194600F051F917E04FF0020022
:100DC0004FF03F0100F04AF9BB79002B06D04FF0FD
:100DD00001004FF03F0100F041F907E04FF0010042
:100DE0004FF0000100F03AF900E000BF07F10807FA
:100DF000BD4680BD80B582B000AF0346FB71FB7974
:100E0000002B43DB052B02DDFF2B31D03FE04FF001
:100E1000020000F005F90346DAB2FB794FF0010158
:100E200001FA03F3DBB26FEA0303DBB202EA030366
:100E3000DBB2DBB24FF00200194600F00FF94FF0C1
:100E4000010000F0EDF80346DAB2FB794FF0010142
:100E500001FA03F3DBB26FEA0303DBB202EA030336
:100E6000DBB2DBB24FF00100194600F0F7F80EE0FC
:100E70004FF002004FF0000100F0F0F84FF00100D9
:100E80004FF0000100F0EAF800BF00E000BF07F1FA
:100E90000807BD4680BD00BF80B582B000AF0346E5
:100EA0003960FB71FB79062B20D84FF0424202FAE1
:100EB00003F2002A06DB4FF0705202FA03F3002B14
:100EC00016DA07E0FB79184639684FF0000200F0A7
:100ED00009F90EE0FB7903F10A03DAB23B681B78EB
:100EE0001046194600F0BAF800BF02E000BF00E06B
:100EF00000BF07F10807BD4680BD00BF80B582B0C6
:100F000000AF0346FB71FB79A3F10203DBB24FF0A4
:100F10000300194600F0A2F807F10807BD4680BD9E
:100F200080B500AF4FF0030000F07AF8034603F1FC
:100F30000203DBB2184680BD80B582B000AF034625
:100F4000FB714FF0000000F06BF80346DBB223F0BA
:100F50000103DAB2FB79012B14BF00230123DBB2BA
:100F600042EA0303DBB2DBB24FF00000194600F0A7
:100F700075F807F10807BD4680BD00BF80B582B097
:100F800000AF0346FB714FF0000000F049F8034644
:100F9000DBB223F00203DAB2FB79012B02D14FF06E
:100FA000020301E04FF0000342EA0303DBB2DBB2CD
:100FB0004FF00000194600F051F807F10807BD4650
:100FC00080BD00BF80B582B000AF0346FB71FB79E6
:100FD0004FF00500194600F041F807F10807BD463B
:100FE00080BD00BF80B582B000AF78600B46FB705B
:100FF000FB784FF0070079681A4600F073F807F1A4
:101000000807BD4680BD00BF80B500AF4FF0FF00B0
:101010004FF0000100F022F80346184680BD00BFE3
:1010200080B584B000AF0346FB714FF00000FFF7BE
:101030008DFBFB791846FFF7A3FB4FF00000FFF78D
:101040009FFB0346FB734FF00100FFF77FFBFB7B29
:10105000184607F11007BD4680BD00BF80B584B0BB
:1010600000AF02460B46FA71BB714FF00000FFF76C
:101070006DFBFB791F2B0DD8FB7903F12003DBB24D
:101080001846FFF77DFB0346FB73BB791846FFF755
:1010900077FB1CE0FB79E12B13D0FB79E22B10D01E
:1010A000FB79E32B0DD0FB79FF2B0AD0FB79184697
:1010B000FFF766FB0346FB73BB791846FFF760FB3F
:1010C00005E0FB791846FFF75BFB0346FB734FF027
:1010D0000100FFF73BFBFB7B184607F11007BD46FD
:1010E00080BD00BF80B584B000AFB9601346024632
:1010F000FA73FB71FB7B072B2BD801A252F823F06C
:101100002111000821110008531100085311000893
:101110005311000853110008211100084111000863
:10112000FFF7FEFE0346FB714FF00000FFF70EFBDA
:10113000FB7B03F12A03DBB21846FFF721FB09E032
:101140004FF00000FFF702FB4FF0A000FFF718FB85
:1011500000E000BF08E0BB681B78BA6802F101023A
:10116000BA601846FFF70CFBFB79002B0CBF00237D
:101170000123DBB2FA7902F1FF32FA71002BEAD1D6
:101180004FF00100FFF7E2FA07F11007BD4680BDFE
:10119000032AC9B270B408D82AB10346121803F85A
:1011A000011B9342FBD170BC70478218044601E0DA
:1011B00004F8011B14F0030FFAD14FF0013303FBC5
:1011C00001F31FE044F8403C44F83C3C44F8383C10
:1011D00044F8343C44F8303C44F82C3C44F8283C77
:1011E00044F8243C44F8203C44F81C3C44F8183CA7
:1011F00044F8143C44F8103C44F80C3C44F8083CD7
:1012000044F8043C161B254640343F2EDADC2C46BD
:1012100007E044F8103C44F80C3C44F8083C44F81F
:10122000043C161B254610340F2EF2DC01E045F875
:10123000043B541B032CFADC01E005F8011B95422A
:0C124000FBD3B0E7E2E423E478000000F8
:10124C00C107000801000000C107000802000000EF
:10125C00C107000804000000C107000808000000D6
:10126C000508000810000000050800080010000028
:10127C0018000020000C024000800F001800002015
:10128C00000C024000100C00000000200000024086
:10129C0008000300000000200000024004000200CF
:1012AC000000002000000240020001002800002085
:1012BC00003001400500000000000020000002404A
:1012CC001000040000000020000002402000050077
:1012DC00000000200000024040000600000000203A
:1012EC0000000240800007000000002000000240C7
:1012FC0001000000007A030A00000000000000005A
:08130C000102030406070809B1
:0400000508000000EF
:00000001FF
