:020000040800F2
:10000000DC08002089010008ED010008ED0100086E
:10001000ED010008ED010008ED01000800000000FE
:10002000000000000000000000000000ED010008DA
:10003000ED01000800000000ED0100084107000884
:10004000ED010008ED010008ED010008ED010008D8
:10005000ED010008ED010008ED010008ED010008C8
:10006000ED010008ED010008ED010008ED010008B8
:10007000ED010008ED010008ED010008ED010008A8
:10008000ED010008ED010008ED010008ED01000898
:10009000ED010008ED010008ED010008ED01000888
:1000A000ED010008ED010008ED010008ED01000878
:1000B000ED010008ED010008ED010008ED01000868
:1000C000ED010008ED010008ED010008CD03000876
:1000D000ED010008ED010008ED010008ED01000848
:1000E000ED010008ED010008ED010008ED01000838
:1000F000ED010008ED010008ED010008ED01000828
:10010000ED010008ED010008ED010008ED01000817
:10011000ED010008ED010008ED010008ED01000807
:10012000ED010008ED010008ED010008ED010008F7
:10013000ED010008ED010008ED010008ED010008E7
:10014000ED010008ED010008ED010008ED010008D7
:10015000ED010008ED010008ED010008ED010008C7
:10016000ED010008ED010008ED010008ED010008B7
:10017000ED010008ED010008ED010008ED010008A7
:10018000ED010008ED01000880B582B000AF124B10
:100190007B60124B3B600BE07B681A683B681A601F
:1001A0003B6803F104033B607B6803F104037B605D
:1001B0003A680B4B9A42EFD30A480B494FF00002C2
:1001C0008842B8BF40F8042BFADB00F069F807F169
:1001D0000807BD4680BD00BFAC1400080000002029
:1001E000C8000020C8000020E000002080B400AF5C
:1001F000FEE700BF80B483B000AF03463960FB71F7
:1002000097F90730002B0DDA0E49FB7903F00F0345
:10021000A3F104033A68D2B24FEA0212D2B2CB1869
:100220001A760AE0084997F907303A68D2B24FEADD
:100230000212D2B2CB1883F8002307F10C07BD4697
:1002400080BC704700ED00E000E100E080B582B0C6
:1002500000AF78607A686FF07F439A4202D94FF01E
:10026000010316E00D4B7A6822F07F4202F1FF3263
:100270005A604FF0FF304FF00F01FFF7BBFF074B05
:100280004FF000029A60054B4FF007021A604FF0E2
:100290000003184607F10807BD4680BD10E000E0E6
:1002A00080B582B000AF00F037FC404B1A68404B7D
:1002B000A3FB02134FEA93131846FFF7C7FF034649
:1002C000002B00D0FEE74FF480504FF0010100F00A
:1002D000B5FA4FF001004FF0010100F08DFA4FF038
:1002E00002004FF0010100F087FA4FF004004FF0D8
:1002F000010100F081FA4FF008004FF0010100F019
:100300007BFA00F0B5F800F0D9F82A4B5A68294B6F
:100310001B891046194600F083FB00F0EDF84FF002
:10032000010000F02FFA244A3B4692E803001860CF
:1003300003F1040319703B46184600F04FF91F48BB
:100340004FF000014FF0000200F0B6F94FF0F60355
:10035000FB714FF0060000F06DFD00E000BF00F003
:100360007DFD034603F04003002BF7D0144800F056
:1003700047FF134B1B78012B14BF00230123BB71D4
:10038000BB79002B0DD00F4B59680E4B1A89BB79E6
:10039000084611461A4600F051FB0B4B4FF0140271
:1003A0001A604FF0060000F045FDD8E7B4000020C9
:1003B000D34D621048000020A4140008A8000020BB
:1003C000D40000203C000020CC00002080B584B088
:1003D00000AF23484FF0010100F0FEFC0346012B63
:1003E00032D11F4B9B899BB2FB734FF0060000F08C
:1003F00021FD1C4B4FF014021A601B4B5A681A4B1C
:100400001B891046194600F0FDFA04E007F10403C9
:10041000184600F0F5FE00F0BFFE034683F001032E
:10042000DBB2002BF2D13B79012B14BF0023012357
:10043000BB730E4B59680D4B1A89BB7B084611469E
:100440001A4600F0FBFA07E0084B5A68074B1B8975
:100450001046194600F0E4FA07F11007BD4680BDCA
:1004600000300140CC000020300000203C00002083
:1004700080B500AF0F484FF001014FF0000200F0CF
:100480001BF90D484FF001014FF0000200F014F984
:10049000084B5A68074B1B891046194600F0C0FAF2
:1004A000054B5A68044B1B891046194600F0B8FAF0
:1004B00080BD00BF300000203C00002080B500AFB0
:1004C0000A484FF001014FF0000200F0F5F808482B
:1004D0004FF000014FF0000200F0EEF805484FF039
:1004E00001014FF0000200F0E7F880BD4800002055
:1004F000540000206000002080B586B000AF314875
:100500004FF001014FF0020200F0D6F82E484FF0F4
:1005100002014FF0020200F0CFF82C484FF0020128
:100520004FF0020200F0C8F829484FF002014FF0E6
:10053000020200F0C1F827484FF005014FF0050214
:1005400000F094FA23484FF006014FF0050200F046
:100550008DFA20484FF007014FF0050200F086FAAF
:100560001D4B1B681B681C4A1268526810464FF0EE
:100570000101984707F10403184600F0A3FB4FF46C
:100580008273FB804FF40073FB814FF020033B82AA
:10059000114B5A6807F104031046194600F046FB58
:1005A0000D4B5B6818464FF0010100F0D9FB0A4B78
:1005B0005B6818464FF0010100F0B2FB07F1180725
:1005C000BD4680BD780000208400002090000020FF
:1005D0009C000020000002406C00002080B582B02A
:1005E00000AF78604FF0000000F050F84FF00100CD
:1005F00000F08CF84FF0010000F048F84FF0640074
:1006000000F084F800F008FC4FF0FF0000F0B8FCA8
:100610004FF000004FF0000100F04AFC4FF00300E3
:1006200000F026FC4FF0050000F02EFD4FF000001A
:10063000796800F0F7FC4FF0010000F057FD4FF033
:1006400000004FF00A0100F031FD4FF0780000F09B
:1006500093FD4FF0010000F06BFD4FF0050000F03E
:1006600055F8094B5A68084B1B89104619464FF03C
:10067000010200F0E3F94FF0820000F047F807F1C3
:100680000807BD4680BD00BF4800002080B582B08D
:1006900000AF0346FB71074B5968064B1A89FB797B
:1006A000084611461A4600F0C9F907F10807BD4689
:1006B00080BD00BF6000002080B584B000AF7860CE
:1006C00013460A46FA70BB707B681B681B687A6821
:1006D0001268526810464FF00101984707F108036D
:1006E000184600F071F97B681B89BB60BB787B738F
:1006F000FB783B737B685A6807F10803104619467C
:1007000000F0BEF807F11007BD4680BD80B483B08D
:1007100000AF7860084B084A52689A60074B4FF068
:1007200000021A60054B1A687B689A42FADB07F1EF
:100730000C07BD4680BC704710E000E0C8000020F8
:1007400080B500AF0C4B1B6803F101020A4B1A6025
:100750000A4B1B68002B06DD084B1B6803F1FF32B8
:10076000064B1A6007E0064B5A68054B1B8910467A
:10077000194600F055F980BDC8000020CC000020CB
:100780003C00002080B582B000AF0346FB71094BEE
:100790005968084B1A89FB79002B0CBF00230123F1
:1007A000DBB2084611461A4600F048F907F108077F
:1007B000BD4680BD7800002080B582B000AF034602
:1007C000FB71FB799BB20B48194600F0F7FA094818
:1007D0004FF0010100F000FB0346002BF7D0054865
:1007E00000F0DEFA0346DBB2184607F10807BD4603
:1007F00080BD00BF0030014080B483B000AF78609E
:100800000B46FB70FB78002B07D00B4B0A4A116B91
:100810007A6841EA02021A6308E0074B064A116B44
:100820007A686FEA020201EA02021A6307F10C0712
:10083000BD4680BC704700BF0038024080B483B022
:1008400000AF78600B46FB70FB78002B07D00B4B9A
:100850000A4A516C7A6841EA02025A6408E0074B7E
:10086000064A516C7A686FEA020201EA02025A648F
:1008700007F10C07BD4680BC704700BF003802403E
:1008800080B487B000AF786039604FF000037B61BF
:100890004FF000033B614FF00003FB604FF000039B
:1008A0007B6187E07B694FF0010202FA03F33B6151
:1008B0003B681A683B6902EA0303FB60FA683B691C
:1008C0009A4273D17B681A687B694FEA43034FF001
:1008D000030101FA03F36FEA03031A407B681A600D
:1008E0007B681A683B681B7919467B694FEA4303AA
:1008F00001FA03F31A437B681A603B681B79012BEA
:1009000003D03B681B79022B34D17B689A687B69E2
:100910004FEA43034FF0030101FA03F36FEA0303C5
:100920001A407B689A607B689A683B685B791946D5
:100930007B694FEA430301FA03F31A437B689A6029
:100940007B685A687B699BB24FF0010101FA03F39F
:100950006FEA03031A407B685A607B685A683B68F9
:100960009B7919467B699BB201FA03F39BB21A4348
:100970007B685A607B68DA687B699BB24FEA430305
:100980004FF0030101FA03F36FEA03031A407B6897
:10099000DA607B68DA683B68DB7919467B694FEA85
:1009A000430301FA03F31A437B68DA607B6903F1BE
:1009B00001037B617B690F2B7FF674AF07F11C0786
:1009C000BD4680BC704700BF80B483B000AF786084
:1009D0007B684FF6FF721A607B684FF000021A7155
:1009E0007B684FF000025A717B684FF000029A71E9
:1009F0007B684FF00002DA7107F10C07BD4680BC3E
:100A0000704700BF80B483B000AF78600B467B8036
:100A10007B687A881A8307F10C07BD4680BC704753
:100A200080B483B000AF78600B467B807B687A88A7
:100A30005A8307F10C07BD4680BC704780B483B071
:100A400000AF786013460A467A807B707B78002B73
:100A500003D07B687A881A8302E07B687A885A839D
:100A600007F10C07BD4680BC704700BF80B485B05D
:100A700000AF786013460A467A807B704FF000031F
:100A8000FB604FF00003BB607A787B8803F00703BC
:100A90004FEA830302FA03F3FB607B884FEAD30338
:100AA0009BB21A467B884FEAD3039BB219467B68F8
:100AB00001F1080153F821107B8803F007034FEA86
:100AC00083034FF00F0000FA03F36FEA03031940AA
:100AD0007B6802F1080243F822107B884FEAD303B7
:100AE0009BB21A467B6802F1080253F82220FB6889
:100AF00042EA0303BB607B884FEAD3039BB21A46EA
:100B00007B6802F10802B96843F8221007F1140764
:100B1000BD4680BC704700BF80B487B000AF4FF0C7
:100B200000033B614FF000037B614FF00203FB6069
:100B30004FF00003BB604FF002037B60364B9B68B5
:100B400003F00C033B613B69042B07D0082B09D051
:100B5000002B47D1314B324A1A6047E02F4B314AC4
:100B60001A6043E02C4B5B6803F480034FEA935315
:100B7000BB60294B5B6803F03F037B60BB68002BC5
:100B80000FD0284A7B68B2FBF3F2234B596847F633
:100B9000C07301EA03034FEA931303FB02F37B6183
:100BA0000EE01F4A7B68B2FBF3F21B4B596847F615
:100BB000C07301EA03034FEA931303FB02F37B6163
:100BC000154B5B6803F440334FEA134303F1010311
:100BD0004FEA4303FB607A69FB68B2FBF3F20F4B09
:100BE0001A6003E00D4B0E4A1A6000BF0A4B9B6867
:100BF00003F0F0034FEA13130B4AD35CDBB23B6103
:100C0000064B1A683B6922FA03F2044B1A6007F19B
:100C10001C07BD4680BC704700380240B40000206D
:100C20000024F40040787D01B800002080B485B035
:100C300000AF786039604FF00003FB817B681B8850
:100C4000FB81FB8903F44153FB813B681A883B68B5
:100C50005B8842EA03039AB23B689B8842EA03033B
:100C60009AB23B68DB8842EA03039AB23B681B896D
:100C700042EA03039AB23B685B8942EA03039AB2F1
:100C80003B689B8942EA03039AB23B68DB8942EAEC
:100C900003039AB2FB8942EA0303FB817B68FA896A
:100CA0001A807B689B8B9BB223F400639AB27B68AB
:100CB0009A833B681A8A7B681A8207F11407BD463B
:100CC00080BC704780B483B000AF78607B684FF021
:100CD00000021A807B684FF000025A807B684FF058
:100CE00000029A807B684FF00002DA807B684FF048
:100CF00000021A817B684FF000025A817B684FF036
:100D000000029A817B684FF00002DA817B684FF025
:100D100007021A8207F10C07BD4680BC704700BF6E
:100D200080B483B000AF78600B46FB70FB78002B7B
:100D300008D07B681B889BB243F040039AB27B6863
:100D40001A8007E07B681B889BB223F040039AB2AD
:100D50007B681A8007F10C07BD4680BC704700BF56
:100D600080B483B000AF78600B46FB70FB78002B3B
:100D700008D07B689B889BB243F004039AB27B68DF
:100D80009A8007E07B689B889BB223F004039AB2A9
:100D90007B689A8007F10C07BD4680BC704700BF96
:100DA00080B483B000AF78607B689B899BB21846A3
:100DB00007F10C07BD4680BC704700BF80B483B00C
:100DC00000AF78600B467B807B687A889A8107F158
:100DD0000C07BD4680BC704780B485B000AF78601A
:100DE0000B467B804FF00003FB737B681B899AB234
:100DF0007B8802EA03039BB2002B03D04FF0010370
:100E0000FB7302E04FF00003FB73FB7B184607F116
:100E10001407BD4680BC704780B500AF4FF0070097
:100E20004FF0700100F026FA034603F07003DBB2C6
:100E3000184680BD80B582B000AF0346FB71FB79D8
:100E40004FF0010202FA03F3DBB24FF0070019463C
:100E500000F010FA07F10807BD4680BD80B500AF6D
:100E600000F0DEF9034603F07003DBB2184680BDE4
:100E700080B582B000AF0346FB714FF0000000F078
:100E8000DBF90346DBB223F00C03DAB2FB794FEA5D
:100E90008303DBB242EA0303DBB2DBB24FF00000B4
:100EA000194600F0E7F907F10807BD4680BD00BF0D
:100EB00080B582B000AF02460B46FA71BB71FB7978
:100EC000002B58DB052B02DDFF2B3DD054E04FF00B
:100ED000020000F0B1F90346DAB2FB794FF00101EC
:100EE00001FA03F3DBB242EA0303DBB2DBB24FF0F9
:100EF0000200194600F0BEF94FF0010000F09CF925
:100F00000346DAB2FB794FF0010101FA03F3DBB2D9
:100F10006FEA0303DBB202EA0303DAB2BB79002B08
:100F200006D0FB794FF0010101FA03F3DBB201E0D7
:100F30004FF0000342EA0303DBB2DBB24FF00100E3
:100F4000194600F097F917E04FF002004FF03F010B
:100F500000F090F9BB79002B06D04FF001004FF064
:100F60003F0100F087F907E04FF001004FF000016A
:100F700000F080F900E000BF07F10807BD4680BD22
:100F800080B582B000AF0346FB71FB79002B43DBD9
:100F9000052B02DDFF2B31D03FE04FF0020000F0C7
:100FA0004BF90346DAB2FB794FF0010101FA03F382
:100FB000DBB26FEA0303DBB202EA0303DBB2DBB2AC
:100FC0004FF00200194600F055F94FF0010000F013
:100FD00033F90346DAB2FB794FF0010101FA03F36A
:100FE000DBB26FEA0303DBB202EA0303DBB2DBB27C
:100FF0004FF00100194600F03DF90EE04FF00200FD
:101000004FF0000100F036F94FF001004FF0000101
:1010100000F030F900BF00E000BF07F10807BD464F
:1010200080BD00BF80B582B000AF03463960FB7160
:10103000FB79062B20D84FF0424202FA03F2002A35
:1010400006DB4FF0705202FA03F3002B16DA07E0CA
:10105000FB79184639684FF0000200F0CDF90EE038
:10106000FB7903F10A03DAB23B681B781046194694
:1010700000F000F900BF02E000BF00E000BF07F190
:101080000807BD4680BD00BF80B582B000AF0346F3
:10109000FB71FB79A3F10203DBB24FF003001946A9
:1010A00000F0E8F807F10807BD4680BD80B582B0C2
:1010B00000AF02460B46FA71BB71FB7903F11103D5
:1010C000DAB2BB791046194600F0D4F807F10807E8
:1010D000BD4680BD80B500AF4FF0030000F0ACF816
:1010E000034603F10203DBB2184680BD80B582B02F
:1010F00000AF0346FB714FF0000000F09DF803467F
:10110000DBB223F00103DAB2FB79012B14BF002319
:101110000123DBB242EA0303DBB2DBB24FF0000093
:10112000194600F0A7F807F10807BD4680BD00BFCB
:1011300080B582B000AF0346FB714FF0000000F0B5
:101140007BF80346DBB223F00203DAB2FB79012B12
:1011500002D14FF0020301E04FF0000342EA030323
:10116000DBB2DBB24FF00000194600F083F807F164
:101170000807BD4680BD00BF80B582B000AF034602
:10118000FB71FB794FF00500194600F073F807F189
:101190000807BD4680BD00BF80B500AF00F024F851
:1011A0000346072B14BF00230123DBB2184680BD82
:1011B00080B582B000AF4FF00000FFF7E3FA4FF0C8
:1011C0006000FFF7F9FA4FF00000FFF7F5FA034669
:1011D000FB714FF00100FFF7D5FAFB79184607F1D4
:1011E0000807BD4680BD00BF80B500AF00F018F80D
:1011F000034603F00E034FEA6303DBB2184680BDDB
:1012000080B582B000AF78604FF00800796800F0D8
:1012100075F80346184607F10807BD4680BD00BFB4
:1012200080B500AF4FF0FF004FF0000100F022F852
:101230000346184680BD00BF80B584B000AF0346AA
:10124000FB714FF00000FFF79DFAFB791846FFF79E
:10125000B3FA4FF00000FFF7AFFA0346FB734FF00D
:101260000100FFF78FFAFB7B184607F11007BD4618
:1012700080BD00BF80B584B000AF02460B46FA7156
:10128000BB714FF00000FFF77DFAFB791F2B0DD8E3
:10129000FB7903F12003DBB21846FFF78DFA034612
:1012A000FB73BB791846FFF787FA1CE0FB79E12B4B
:1012B00013D0FB79E22B10D0FB79E32B0DD0FB7917
:1012C000FF2B0AD0FB791846FFF776FA0346FB732B
:1012D000BB791846FFF770FA05E0FB791846FFF76F
:1012E0006BFA0346FB734FF00100FFF74BFAFB7BF1
:1012F000184607F11007BD4680BD00BF80B584B019
:1013000000AF03463960FB71FB79082B42D801A27C
:1013100052F823F039130008391300089513000818
:101320009513000895130008951300083913000859
:10133000951300085D130008FFF7CCFE0346FB730E
:10134000FB7BBB734FF00000FFF71CFAFB7903F146
:101350000A03DBB21846FFF72FFA21E0FFF744FF3C
:101360000346FB71FB79062B0ED8FFF721FF0346DE
:10137000FB73FB7BBB734FF00000FFF703FA4FF0EA
:101380006100FFF719FA04E04FF00003BB73BB7B69
:10139000FB7305E04FF00003BB73BB7BFB7300BF27
:1013A0000BE04FF00000FFF707FA03461A463B68D0
:1013B0001A703B6803F101033B60FB7B002B0CBF01
:1013C00000230123DBB2FA7B02F1FF32FA73002B18
:1013D000E7D14FF00100FFF7D5F9FB794FEA03237E
:1013E0009AB2BB7B9BB242EA03039BB29BB2184604
:1013F00007F11007BD4680BD80B584B000AFB9606D
:1014000013460246FA73FB71FB7B072B2BD801A214
:1014100052F823F03514000835140008671400084A
:1014200067140008671400086714000835140008E2
:1014300055140008FFF74EFE0346FB714FF0000005
:10144000FFF7A0F9FB7B03F12A03DBB21846FFF795
:10145000B3F909E04FF00000FFF794F94FF0A00056
:10146000FFF7AAF900E000BF08E0BB681B78BA6884
:1014700002F10102BA601846FFF79EF9FB79002BD2
:101480000CBF00230123DBB2FA7902F1FF32FA71BB
:10149000002BEAD14FF00100FFF774F907F11007B4
:0C14A000BD4680BDE2E423E478000000BB
:1014AC00F907000801000000F9070008020000001D
:1014BC00F907000804000000F90700080800000004
:1014CC003D080008100000003D0800080010000056
:1014DC0018000020000C024000800F0018000020B3
:1014EC00000C024000100C00000000200000024024
:1014FC00080003000000002000000240040002006D
:10150C000000002000000240020001002800002022
:10151C0000300140050000000000002000000240E7
:10152C001000040000000020000002402000050014
:10153C0000000020000002404000060000000020D7
:10154C000000024080000700000000200000024064
:10155C0001000000007A030A0000000000000000F7
:08156C0001020304060708094F
:0400000508000000EF
:00000001FF
