:020000040800F2
:1000000018110020710A00086D0A00086D0A000826
:100010006D0A00086D0A00086D0A00080000000063
:100020000000000000000000000000006D0A000851
:100030006D0A0008000000006D0A00086D0A000843
:100040006D0A00086D0A00086D0A00086D0A0008B4
:100050006D0A0008F11F0008110500085505000889
:1000600099050008DD050008210600086D0A000852
:100070006D0A00086D0A00086D0A00086D0A000884
:100080006D0A00086D0A00086D0A00086D0A000874
:100090006D0A00086D0A00086D0A00086506000870
:1000A0006D0A00086D0A00086D0A00086D0A000854
:1000B0006D0A00086D0A00086D0A00086D0A000844
:1000C0006D0A00086D0A00086D0A00085501000855
:1000D000AD010008D5270008012800082D280008D8
:1000E000CD0600086D0A00086D0A00086D0A0008B8
:1000F0006D0A00086D0A00086D0A00086D0A000804
:100100006D0A00086D0A00086D0A00080502000863
:1001100059280008852800086D0A00086D0A0008A3
:100120006D0A00086D0A00086D0A00086D0A0008D3
:100130006D0A00086D0A00086D0A00086D0A0008C3
:100140006D0A00086D0A00086D0A00086D0A0008B3
:100150005FF808F1114B10B41A6854060BD510491A
:1001600009681B680F4B1C687CB10023A446194624
:10017000184610BC6047900609D50B491B680B68F0
:100180000B60084B1C68002CEFD110BC7047D106E7
:10019000E8D5196821F010011960E3E70830014043
:1001A0000C3001408804002000300140114B10B495
:1001B0001A6854060BD5104909681B680F4B5C6818
:1001C00074B10023A4461946184610BC6047900637
:1001D00008D50B4B19681960084B5C68002CF0D1EE
:1001E00010BC7047D106E9D5196821F010011960DB
:1001F000E4E700BF083800400C38004088040020C5
:1002000000380040114B10B41A6854060BD5104941
:1002100009681B680F4B9C6874B10023A4461946FB
:10022000184610BC6047900608D50B4B196819603A
:10023000084B9C68002CF0D110BC7047D106E9D562
:10024000196821F010011960E4E700BF083C004084
:100250000C3C004088040020003C0040B1F5007FC9
:1002600003680DD023F400730360036813F0040FD8
:10027000436814BF43F0040323F004034360704752
:1002800043F400730360036843F4807303607047B2
:1002900070B5044603681C4E23F0870303600068B2
:1002A000B44242EA00020D46226022D002F00CFA6B
:1002B000B0FBF5F301335B08013B022B17D9042B8C
:1002C0000CD9082B1AD9102B16D9202B18D9402B52
:1002D00018D9802B8CBF3822302200E008222368F6
:1002E00023F03803236023681343236070BD00228A
:1002F000F5E702F0F9F9DBE71822F0E71022EEE764
:100300002022ECE72822EAE70030014000F1080350
:100310001A689207FCD5C1601A68D207FCD5C0687C
:10032000704700BF62B3F0B54FF6FF7E0D460A443A
:1003300000F1080300F10C06FF27046824050FD420
:100340001C68A407FCD537601C68E407FCD534683A
:10035000013505F8014C954201F10201EDD1F0BDE6
:100360001C68A407FCD5C6F800E01C68E407FCD5AF
:100370003468013595420C8001F10201DDD1F0BDF8
:10038000704700BFC2B1F0B40D460A4400F1080343
:1003900000F10C06046827050FD40F781C68A40729
:1003A000FCD537601C68E707FCD501319142346801
:1003B00005F10205EED1F0BC70472F881C68A40738
:1003C000FCD537601C68E407FCD5013191423468E4
:1003D00005F10205DED1EEE700F1080213689B0784
:1003E000FCD5C160704700BF836813F002031ABFD9
:1003F000C16001201846704700F108021368DB074E
:10040000FCD5C3680B607047836813F001031DBF00
:10041000C36801200B601846704700BF436819434A
:10042000416070470A4B98420ED003F574439842DE
:1004300007D0A3F57843984200D07047054B596028
:100440007047044B19607047024B9960704700BFBA
:10045000003C00408804002080687047836843F0B7
:1004600010038360704700BF8068C0F3C0107047FE
:10047000436823F0030343604368194341607047B6
:10048000436823EA01014160704700BFFFF7F8BFEE
:10049000036843F040030360704700BF036823F024
:1004A00040030360704700BF036823F48073036058
:1004B0000368194301607047436823F004034360F5
:1004C0004368194341607047036823F40073036075
:1004D00003681943016070478068C0F340007047AB
:1004E000806800F001007047016170470069704743
:1004F0008069704740697047036843F400530360A4
:10050000704700BF036823F400530360704700BFC7
:10051000F8B50E4B0E4C1F681A6804F1400542F006
:1005200001021A6002E00834AC420DD02388012B8E
:10053000F9D166680023002EF5D01A4639461846D0
:100540000834B047AC42F1D1F8BD00BF14040140FB
:1005500094040020F8B50E4B0E4C1F681A6804F185
:10056000400542F002021A6002E00834AC420DD0AD
:100570002388022BF9D166680023002EF5D01A4695
:10058000394618460834B047AC42F1D1F8BD00BF37
:100590001404014094040020F8B50E4B0E4C1F6863
:1005A0001A6804F1400542F004021A6002E00834BF
:1005B000AC420DD02388042BF9D166680023002EAD
:1005C000F5D01A46394618460834B047AC42F1D146
:1005D000F8BD00BF1404014094040020F8B50E4B90
:1005E0000E4C1F681A6804F1400542F008021A60B8
:1005F00002E00834AC420DD02388082BF9D166689C
:100600000023002EF5D01A46394618460834B04764
:10061000AC42F1D1F8BD00BF1404014094040020A5
:10062000F8B50E4B0E4C1F681A6804F1400542F0F5
:1006300010021A6002E00834AC420DD02388102B5F
:10064000F9D166680023002EF5D01A4639461846BF
:100650000834B047AC42F1D1F8BD00BF14040140EA
:1006600094040020F8B5174B1B68980603D459066C
:100670001CD5402500E02025124A134C136804F1D4
:1006800040062B43136002E00834B4420DD02388A7
:100690009D42F9D167680023002FF5D01A4619460C
:1006A00018460834B847B442F1D1F8BD1A0601D54E
:1006B0008025E1E713F4807F0CBF4FF400754FF401
:1006C0008075D9E714040140940400201F4B2DE9E4
:1006D000F041D3F8008018F4806F05D118F4006F52
:1006E0001FD04FF4006501E04FF48065174A184CA5
:1006F000136804F140062B43136002E00834B4424F
:100700000DD023889D42F9D167680023002FF5D0D2
:100710001A46414618460834B847B442F1D1BDE8FC
:10072000F08118F4805F0AD118F4005F0AD118F440
:10073000804F0CBF4FF400454FF48045D6E74FF48F
:100740008055D3E74FF40055D0E700BF14040140B3
:1007500094040020072930B411D901F180410839EF
:10076000456889000F248C4025EA040444601A433C
:10077000436802FA01F11943416030BC70470568D3
:1007800089000F248C4025EA0404046004681A439D
:1007900002FA01F12143016030BC70472DE9F843B2
:1007A00081460E4602F0030802F00C0700240125E2
:1007B00002E00134102C0CD005FA04F33342F8D0D7
:1007C000214643463A4648460134FFF7C3FF102C02
:1007D000F2D1BDE8F88300BF072909D901F18041B2
:1007E0000839890043680F2088401840C840704786
:1007F000890003680F2088401840C840704700BF38
:1008000010B40023012404FA03F20A4202D1013396
:10081000102BF8D1194610BCFFF7DEBF2DE9F04FC1
:1008200002F0010383B0C0F3852002F0020BDFF871
:10083000A090DFF8A080DFF8A0C00238019300226A
:100840004FF00F0E4FF0010A11E02B43C9F80030B2
:10085000019B93B3D8F800302B43C8F80030DCF884
:1008600000301D43CCF800500132102A2AD0174C1A
:1008700022F003031C4421FA02F502F003039B005B
:10088000ED070EFA03F700FA03F3EDD526680AFA2E
:1008900002F526EA07062660266833432360D9F866
:1008A0000030BBF1000FD0D10AFA02F523EA0503AC
:1008B000C9F80030019B002BCCD1D8F8003023EAD6
:1008C0000503CAE703B0BDE8F08F00BF0800014090
:1008D000080401400C04014000040140024A13686E
:1008E00023EA0101116070470004014070B40D4D0E
:1008F00041EA0041002355F833400A4EA1424FEA35
:10090000C30005D044B10133082BF4D170BC70474B
:100910003044426070BC70473418626046F833104F
:1009200070BC704794040020014B1868704700BFEA
:1009300014040140024A136819431160704700BF54
:100940001404014080680840704700BF8068704709
:1009500012F0010FC26800F10C0314BF114322EA28
:1009600001011960704700BFC160704701617047A5
:1009700041617047836941F4803203F480338361BD
:10098000816182618161826183698369704700BF8F
:10099000F8B51A4BC2F3007453F8246022F0704784
:1009A000530F002421FA04F5012D02D00134102C3C
:1009B000F8D16BB1012B16D0032B1AD0042B0CD01D
:1009C000336823EA0703336033683B433360F8BD81
:1009D00021461A46FFF7BEFEF2E7214603230C220A
:1009E000FFF7B8FEECE7214600230422FFF7B2FE32
:1009F000E6E721460822FFF7ADFEE1E77036000882
:100A0000124B98421FD00CD9114B984213D003F5CA
:100A10008063984215D0A3F5006398420DD0002062
:100A20007047A3F50063984209D003F580639842AC
:100A3000F5D108487047084870470848704708488B
:100A40007047084870470848704700BF00100140D1
:100A500000180140080000104000001020000010A5
:100A6000040000108000001010000010FEE700BF1E
:100A7000114A124B9A420DD2D043114918440B46E9
:100A800020F003000430084453F8041B834242F86A
:100A9000041BF9D10B490C4A91420BD2C8430244C2
:100AA00022F0030204320B460A44002143F8041BDF
:100AB0009342FBD102F080BD00000020880400209A
:100AC0003C3A000888040020140D0020082829D88A
:100AD000F8B54501083505F5807607461021304602
:100AE00001F04EF9304601F02DF904460028F9D105
:100AF0001F2105F5007001F043F90C4B0122198804
:100B0000BA4021EA020203EB47011F4405F5407594
:100B10001A808C803C75284601F014F90028FAD11F
:100B20000120F8BD4FF0FF30704700BFD404002013
:100B300008287ED804292DE9F8430D4675D81F46AC
:100B400001238B4013F0160F6FD017F0060F65D1FD
:100B500006469146002F59D0012951D0022958D07C
:100B60004FFA87F830467401FFF7B0FF083408F0F9
:100B7000F0012943204601F003F9B9F1000F0CD12F
:100B80004FF6F0712C4AB2F8009009F101039BB2C4
:100B90008B4208BF4FF4404313804FEA192104F5FC
:100BA000806001F0EDF804F580755FFA89F104F5D5
:100BB000A06001F0E5F82846012101F0E1F828469F
:100BC00001F0C0F80028FAD11C4B07F001079D8BFB
:100BD00019880122B740B2402F4321EA020203EBF9
:100BE0004605991904F540749F831A80A8800875FA
:100BF000204601F0A7F80028FAD070B2BDE8F883CB
:100C000017F0210F0AD079B28846ABE739468846FB
:100C1000A8E7BA0606D579B20029F5DB6FF0050022
:100C2000BDE8F883FB06F6D4EDE76FF00400BDE8FD
:100C3000F8834FF0FF30704700000020D4040020FC
:100C4000082838D870B5440108340646204601F01B
:100C500079F800F00F00012827D104F540752846E7
:100C600001F070F8132823D104F580742046022186
:100C700001F086F8204601F065F80028FAD12846F0
:100C800001F060F8142808D0204601F05BF830B17C
:100C9000284601F057F81428F6D1012070BD3046DF
:100CA000FFF714FF6FF0030070BD6FF0040070BD1C
:100CB0006FF0020070BD4FF0FF307047082866D813
:100CC0002DE9F041440108340746204690460D4680
:100CD00001F038F800F00F0001284CD104F54076FF
:100CE000304601F02FF8132854D12B786A78A97870
:100CF00002EB032201EB0222013B03EB022303334D
:100D00004CD8B8F1000F32D02946042204F54060D7
:100D100001F07EF84FEA182104F5805001F030F818
:100D200004F580755FFA88F104F5885001F028F821
:100D30002846042101F024F8284601F003F8002891
:100D4000FAD1184B9B8B43FA07F7FA0711D404F535
:100D5000007404E0204600F0F5FF03070FD430468E
:100D600000F0F0FF1728F5D10120BDE8F0816FF009
:100D70000A00BDE8F0816FF00400BDE8F081204674
:100D8000082100F0FDFF6FF00C00BDE8F0814FF08E
:100D9000FF3070476FF00200BDE8F0816FF00B008C
:100DA000BDE8F081D404002008283CD8F8B54401FF
:100DB00004F108050646284600F0C4FF00F00F00C5
:100DC00001282DD105F580742046082100F0D8FFB8
:100DD000204600F0B7FF0028FAD1144A01211488F8
:100DE000938BB14024EA010133411180DA0710D41A
:100DF00005F5407705F5007404E0204600F0A2FFF9
:100E0000030707D4384600F09DFF0028F5D10120E4
:100E1000F8BDF8BD3046FFF759FE6FF00C00F8BD85
:100E20006FF00400F8BD4FF0FF307047D40400208D
:100E300008287AD82DE9F84F4FEA401A0AF1080A33
:100E40000546504616468B4600F07CFF00F00F002A
:100E500001286DD1002E6FD00AF54078404600F091
:100E600071FF172801D01C2849D1394F3B882B41ED
:100E7000D90735D40AF5F85000F064FF800280B23B
:100E8000864228BF06464FF0010909FA05F92846AF
:100E900000F0E8FF0446404600F054FF172801D058
:100EA0001C2830D1BB8B13EA090F25D0B44220D3C4
:100EB000594628460AF5807A324601F01FF8504616
:100EC000202100F05DFF504600F03CFF0028FAD1E1
:100ED0003B88304649EA0309A7F80090BDE8F88F3F
:100EE0000AF50074204600F02DFFC20612D4030755
:100EF00026D40020BDE8F88FB442C8D3D8E76FF0FD
:100F00000600BDE8F88F2846FFF7E0FD6FF0060009
:100F1000BDE8F88F2046102100F032FF3B88012207
:100F2000AA4023EA02033B80A4E74FF0FF3070475A
:100F30006FF00400BDE8F88F6FF00D00BDE8F88F8A
:100F40002846FFF7C3FD6FF00C00BDE8F88F00BF27
:100F5000D4040020082861D82DE9F04F4601083656
:100F600083B0054630461446009100F0EBFE00F0D9
:100F70000F07012F55D1002C56D006F5F05000F088
:100F8000E1FE800280B28442234628BF0346DFF898
:100F9000A0900193AF4006F5407806F5F85A284630
:100FA00000F086FF0446404600F0CCFE17280CD027
:100FB0001C282BD174B9284600F054FF83465046B4
:100FC00000F0C0FEBBEB802F20D0B9F81C303B42B4
:100FD00019D0A4B1019B00999C4228BF1C46A4B221
:100FE000284606F58076224600F0B6FF30464021BE
:100FF00000F0C6FE304600F0A5FE0028FAD12046DB
:1010000003B0BDE8F08F002CC9D0E3E72846FFF716
:101010005DFD6FF0060003B0BDE8F08F4FF0FF30CC
:1010200070476FF00400EBE76FF00D00E8E700BFDA
:10103000D40400202DE9F84F0828BDF8286000F2FC
:101040008C804701083705463846984614468B463B
:1010500000F078FE00F00F00022802D0042840F0D3
:101060008880002C00F08980D8F80030002B00F038
:101070008880002E75D007F54079484600F062FE62
:10108000422801D0222870D10422414607F5406051
:1010900000F0BEFE310A07F5805000F071FEF1B29B
:1010A00007F5885000F06CFE07F5F85000F04AFE96
:1010B000800286B2A642284628BF264600F0D2FE0D
:1010C0004FF0010804464846DFF8C0A008FA05F8CA
:1010D00000F038FE90B3BAF81C3013EA080F22D0A3
:1010E000B4422FD359462846324607F5807400F0A3
:1010F00005FF2046202100F043FE204600F022FE9E
:101100000028FAD107F5007701E003071DD438461F
:1011100000F018FEC206F8D53846102100F030FE67
:101120003046BDE8F88FB442DCD2284600F09AFE83
:101130000446484600F006FE0028CCD16FF00300BC
:10114000BDE8F88F0020BDE8F88F3846082100F090
:1011500017FE6FF00C00BDE8F88F4FF0FF30BDE8D0
:10116000F88F6FF00A00BDE8F88F6FF00600BDE859
:10117000F88F6FF00400BDE8F88F6FF00D00BDE848
:10118000F88F6FF00B00BDE8F88F00BFD40400208B
:10119000082800F2C0802DE9F04F4601083687B0DC
:1011A0000546304603930192029100F0CBFD00F01A
:1011B0000F03022B834602D0042B40F0D080019B0A
:1011C000002B00F0CF806C4F4FEA450A07EB0A0373
:1011D0009B88BBB9284600F06BFE06F540794FF0BE
:1011E00001080446484608FA05F800F0ABFD00285F
:1011F00041D0BB8B13EA080F32D024B9204607B088
:10120000BDE8F08F00240BF0070B7B190022BBF127
:10121000020F1A75DFF8608144D0BBF1040F2FD0A4
:1012200021462846D04400F0C5FE06F58076A8F891
:1012300004404021304600F0A3FD304600F082FD1E
:101240000028FAD15744BB884B4A1B1B9BB2BB807A
:10125000002BD3D015442B7D43F001032B75CDE734
:10126000002CD0D1284600F023FE0446484600F06A
:1012700069FD0028BDD16FF0030007B0BDE8F08F15
:10128000D044B8F8044006F58076002C46D0019B87
:101290000299A34228BF234628461A461C4600F05E
:1012A0005BFEC6E7D044B8F8044006F58076002C13
:1012B000EDD104A92846082200F04EFE3046402118
:1012C00000F05EFD304600F03DFD0028FAD19DF8AB
:1012D00017309DF816409DF8141003EB0424A4B2B7
:1012E00007EB0A039DF810009DF815209C80039BD6
:1012F00002EB012218709DF8111003989DF812302E
:1013000041709DF813108370C17010987B19802173
:1013100002801975BBE74FF0FF30704704A92846DB
:10132000022200F019FE3046402100F029FD30462F
:1013300000F008FD0028FAD140F2EA519DF8113082
:101340009DF8104007EB0A0203EB0424A4B28C4280
:101350009480094B09D82B4480221A7597E76FF0C7
:1013600004004CE76FF00D0049E72846FFF7AEFB9D
:101370006FF47A7043E700BFD4040020082859D8DE
:1013800010B503461446072957D8DFE801F0101EB0
:101390002630343E4804400100F53050083000F05B
:1013A000D1FC00F01F0020706FF0090010BD207804
:1013B000012845D0002840D1254901208A8B00FA18
:1013C00003F322EA03038B8310BD214A0120928B91
:1013D00042FA03F30340237010BD400100F5F850BA
:1013E000083000F0AFFC80022080012010BD4001D9
:1013F00000F5F050F4E721781F291ED8400100F5D0
:10140000027000F0BDFC012010BD400100F502702B
:1014100000F098FC00F01F002070012010BD217822
:101420001F290AD8400100F53050083000F0A8FC10
:10143000012010BD4FF0FF3070476FF0090010BD64
:10144000034900FA03F38A8B13438B8310BD00BF5B
:10145000D4040020082800F28680013970B51546B2
:10146000062900F28680DFE801F0151E273740507C
:101470000400400100F10804204600F063FC00F085
:101480000F06012E65D104F53C50297800F078FC58
:10149000304670BD400100F5B0500830117800F0C2
:1014A0006FFC012070BD400100F5A8500830117894
:1014B00000F066FC012070BD1188400100F10804B5
:1014C00004F59050090A00F05BFC04F59850297867
:1014D00000F056FC012070BD4001114600F60840A6
:1014E000042200F095FC012070BD1188400100F13C
:1014F000080404F58050090A00F042FC04F5885005
:10150000297800F03DFC012070BD400100F1080485
:10151000204600F017FC00F00F00012819D104F557
:101520003C5000F00FFC08BB04F5807528462221D2
:1015300004F5007400F024FC04E0204600F002FCF6
:10154000030709D4284600F0FDFB0028F5D101204F
:1015500070BD6FF0040070BD2046082100F010FC43
:101560006FF00C0070BD4FF0FF3070476FF001005E
:1015700070BD6FF0090070BD082800F2938070B54F
:10158000154604460C2900F28A80DFE801F0323B60
:10159000444D62668877070A0E17250000F062FC4A
:1015A0002880204600F084FC2880600100F542700D
:1015B00000F0C8FB01232870184670BD40010830B8
:1015C00000F0C0FB0128064673D03D48012300EB24
:1015D000440082882A80EFE74001083000F0B2FB27
:1015E00000F00F03012B61D135482044027D2A70A1
:1015F000E2E74001083000F0A5FB20F00F00287062
:101600000123D9E7400100F5B050083000F09AFB03
:1016100001232870D0E7400100F5A850083000F001
:1016200091FB01232870C7E7400100F1080404F58D
:10163000905000F087FB04F5985000F083FB287071
:1016400004F540602946042200F0BAFB0123184645
:1016500070BD400100F10804F2E7400100F1080408
:1016600004F5805000F06EFB064604F5885000F04B
:1016700069FB00EB0620288001239DE7400100F173
:101680000804204600F05EFB00F00F06012E0DD18D
:1016900004F53C5000F056FB334628808CE76FF091
:1016A000010389E74FF0FF33184670476FF00403DA
:1016B00082E7204600F0FCFB334628807CE700BF31
:1016C000D4040020704700BF007870470170704755
:1016D00000207047704700BF704700BF704700BFD1
:1016E000704700BF054B18B111B19860D9607047C1
:1016F0000349044A9960DA60704700BF0400002083
:10170000DD160008E1160008054B18B111B118618B
:10171000596170470349044A19615A61704700BF13
:1017200004000020D9160008C5160008074B1A88C7
:10173000D20500D4FEE718B111B19861D9617047A4
:101740000349044A9961DA61704700BF0400002030
:10175000C9160008CD160008074B1A88920500D458
:10176000FEE718B111B19861D96170470349044A85
:101770009961DA61704700BF04000020D1160008AB
:10178000D516000800B587B004A906224FF41060F2
:1017900000F016FB01A904224FF4807000F010FB4A
:1017A00002A904224FF4A06000F00AFB042203A95E
:1017B0004FF4706000F004FB8021002000F0E0FA9C
:1017C000002000F0BFFA04A906224FF4106000F0D8
:1017D0001FFB01A904224FF4807000F019FB02A93D
:1017E00004224FF4A06000F013FB03A904224FF47D
:1017F000706000F00DFB07B05DF804FB70B50446A7
:101800000E46FFF7BFFFBCB1651E2A46E01D002350
:1018100012F8011F0B4482425BB2F9D1102BD8BFE2
:10182000012423DCE00000F5F850043415F8011F12
:1018300000F0A6FA212CF5D1B6B1751E2A4607365E
:10184000002312F8010F0344B2425BB2F9D1102B0E
:101850000CDC0124E00000F5F050043415F8011F01
:1018600000F08EFA212CF5D1002070BD4FF0FF3032
:1018700070BD00BF10B504464FF4A85004F0F0014D
:1018800000F07EFA210A4FF4B850BDE8104000F095
:1018900077BA00BF10B54FF4A85000F053FA0446D1
:1018A0004FF4B85000F04EFA000204F0F00480B299
:1018B000204480B210BD00BF10B504464FF4B050B4
:1018C000E1B200F05DFA210A4FF4C050BDE81040CB
:1018D00000F056BA10B54FF4B05000F033FA044699
:1018E0004FF4C05000F02EFA04EB002080B210BD7F
:1018F00008B54FF4385000F025FA00F0010008BD9B
:1019000008B54FF4385000F01DFA10F0300F14BF36
:101910000120002008BD00BF08B54FF4385000F08A
:1019200011FA00F07F014FF4385000F029FA4FF41B
:10193000385000F007FABDE8084060F07F01C9B2F6
:101940004FF4385000F01CBA08B502784378012AE9
:101950000CBF40210021012B1DD0C378012B8378BF
:101960000BD0012B08BF41F010014FF4385000F0AC
:1019700007FABDE80840FFF7CFBF012B0CBF41F0CD
:10198000180141F008014FF4385000F0F9F9BDE8B2
:101990000840FFF7C1BF41F03801C9B24FF43850D9
:1019A00000F0EEF9BDE80840FFF7B6BF10B50446F9
:1019B0004FF4385000F0C6F9C0F3801300F038003F
:1019C0002028237021D038281FD000236370A0F175
:1019D0001003DBB2102B07D8012202FA03F303F045
:1019E000013323F080739BB90023A3700838C0B281
:1019F000182807D8012303FA00F000F0013020F482
:101A0000807000B90023E37010BD01236370DEE72E
:101A1000A270EBE710B504464FF4385000F092F98D
:101A2000C0F38003C0F34000E370A07010BD00BF9E
:101A300010B504464FF4385000F084F9430623D51E
:101A4000012C00F0C70110D041F038014FF438509C
:101A500000F096F9FFF760FF4FF4385000F072F98C
:101A600010F0380F10D0002010BD41F030014FF4BD
:101A7000385000F085F9FFF74FFF4FF4385000F071
:101A800061F910F0300FEED14FF0FF3010BD00BF04
:101A900038B50C460F287DD8DFE800F0282C340834
:101AA000393E43505E6D71760B0E131F0888FFF7A9
:101AB000E1FE0023184638BD0878BDE83840FFF73E
:101AC000B7BF4FF4385000F03DF910F0300F14BF9D
:101AD0000122002200232270ECE74FF4385000F07E
:101AE00031F900F0010020700023E3E7FFF74AFE20
:101AF0000023DFE700294CD008312046BDE83840FC
:101B0000FFF77CBEFFF7C6FE00232080D2E70888DF
:101B1000FFF7D2FE0023CDE7FFF7DCFE0023208095
:101B2000C8E709884FF49850090A00F029F921788C
:101B30004FF4A05000F024F90023BBE74FF4985075
:101B400000F000F905464FF4A05000F0FBF800EB60
:101B5000052020800023ADE7104A002190780B4635
:101B60002070D07860701079A0705079E070927910
:101B7000617122719EE7FFF7CFFE00239AE70846C6
:101B8000FFF7E2FE002395E70846FFF70FFF00236B
:101B900090E7B2E74FF0FF338CE700BF040000206E
:101BA00070B50446014606224FF4106000F030F98B
:101BB00004F10E0104224FF4807000F029F904F1C1
:101BC0000A0104224FF4A06000F022F9A11D0422B2
:101BD0004FF4706000F01CF9054BA67CE57C207D7D
:101BE000617DA27D1E705D709870D9701A7170BD94
:101BF000F404002038B50446014606224FF4106074
:101C000000F0DEF804F10E0104224FF4807000F0C1
:101C1000D7F804F10A0104224FF4A06000F0D0F8D4
:101C2000A11D04224FF4706000F0CAF8054B1D7826
:101C300058789978DA781B79A574E0742175627503
:101C4000A37538BDF404002038B530F03A050BD147
:101C50000446284600F076F844EA0001C9B2284656
:101C600000F08EF8284638BD4FF0FF3038BD00BF79
:101C7000002000F067B800BF10B504464FF4D850FC
:101C8000217800F07DF861884FF4C850090A00F00F
:101C900077F8A1784FF4D050BDE8104000F070B84C
:101CA00038B505464FF4D85000F04CF828704FF482
:101CB000C85000F047F804464FF4D05000F042F806
:101CC00000EB0420688038BD00B583B0052835D806
:101CD000DFE800F00B131B212C030846FFF7E0FFA1
:101CE0000023184603B05DF804FB0846FFF758FFD1
:101CF0000023184603B05DF804FB0846FFF77AFF9F
:101D00000023184603B05DF804FB087803B05DF8C3
:101D100004EBFFF799BF0020019100F013F801993F
:101D200000230870184603B05DF804FB0846FFF76F
:101D3000A3FF0023184603B05DF804FB4FF0FF3308
:101D4000CFE700BF38B505460C4CA3689847236918
:101D50009847E369C5F307409847E369C5F307204F
:101D60009847E8B2E3699847A369984705466369CD
:101D70009847E3689847284638BD00BF0400002014
:101D800070B50E460D4C40F00405A36898472369D2
:101D90009847C5F30740E3699847C5F30720E3690F
:101DA0009847E8B2E36998473046E3699847636922
:101DB0009847E368BDE87040184700BF0400002062
:101DC0002DE9F04107461646104D0C46AB68984782
:101DD0002B699847EB69C7F307409847EB69C7F34E
:101DE00007209847F8B2EB6998474EB1013EB6B26A
:101DF0002644013CAB69984704F8010FB442F9D17D
:101E00006B699847EB68BDE8F04118470400002073
:101E10002DE9F0411646124D40F00407AB680C4620
:101E200098472B699847C7F30740EB699847C7F372
:101E30000720EB699847F8B2EB6998474EB1013E2D
:101E4000B6B22644013C14F8010FEB699847B4423E
:101E5000F9D16B699847EB68BDE8F041184700BFBE
:101E6000040000204001F8B500F1080606F500570F
:101E7000002506F5045601E0A54217D03846FFF7C5
:101E800061FF04023046FFF75DFFA4B2204484B234
:101E9000002CF1D03846FFF755FF05023046FFF71A
:101EA00051FFADB2284485B2A542E7D12846F8BD1E
:101EB0004001F8B500F1080606F51857002506F5AB
:101EC0001C5601E0A54217D03846FFF73BFF04023D
:101ED0003046FFF737FFA4B2204484B2002CF1D083
:101EE0003846FFF72FFF05023046FFF72BFFADB254
:101EF000284485B2A542E7D12846F8BD02B970470B
:101F00002DE9F047860006F101084FEAC80808F5F8
:101F10001059484617468A46FFF714FF08F514582B
:101F200005464046FFF70EFF00EB052084B202365F
:101F300020023C44514600EBC6003A46A4B2FFF7EB
:101F400067FF4846210AFFF71BFFE1B24046BDE8A4
:101F5000F047FFF715BF00BF02B970472DE9F04702
:101F6000860006F101084FEAC80808F520594846DE
:101F700017468A46FFF7E6FE08F524580546404610
:101F8000FFF7E0FE00EB052084B2033620023C445C
:101F9000514600EBC6003A46A4B2FFF711FF48468F
:101FA000210AFFF7EDFEE1B24046BDE8F047FFF73A
:101FB000E7BE00BF4001F8B500F1080606F520575E
:101FC00038460D46FFF7BEFE06F524560446304659
:101FD000FFF7B8FE284400EB0424A4B23846210AD7
:101FE000FFF7CEFEE1B23046BDE8F840FFF7C8BECD
:101FF000064A10B4064B14681A682CB10023A44694
:102000001946184610BC604710BC7047FC040020FD
:1020100008100240014B1860704700BFFC0400200C
:1020200001387FF4FDAF704708B5094B020F53F834
:10203000223082B21968C0F304408240114310205C
:102040001960FFF7EDFF186820EA0200186008BD6C
:1020500078360008064B020F03EB8203D96882B280
:102060000B68C0F3044002FA00F0184308607047A0
:1020700078360008074B020F03EB8203D96882B25F
:102080000B68C0F3044002FA00F023EA0000086085
:10209000704700BF78360008134B98421FD0134B8F
:1020A000134A002103E0904206D053F80C2C0C3365
:1020B0000131002AF7D170470E4A01EB410102EBD2
:1020C00081010B6A190F02EB8101C9689AB2C3F34F
:1020D000044302FA03F30A6813430B60704706498E
:1020E0004FF40073F7E700BF00240140AC3600084E
:1020F000002801407836000818100240134B98421F
:1021000020D0134B134A002103E0904206D053F82D
:102110000C2C0C330131002AF7D170470E4801EB2B
:10212000410100EB81010B6A9AB2190FC3F304431A
:1021300002FA03F3DB4300EB8100C26811680B4035
:1021400013607047054A6FF40073F7E700240140FD
:10215000AC3600080028014078360008181002400C
:102160000C4B984214D00C4B0C4A002103E09042D7
:1021700006D053F80C2C0C330131002AF7D17047EC
:10218000074B01EB410103EB8101086AFFF74CBFEC
:102190000448FBE700240140AC3600080028014059
:1021A00078360008000200100B4B984212D00B4BFF
:1021B0000B4A002103E0904205D053F80C2C0C335D
:1021C0000131002AF7D1074B01EB410103EB8101FB
:1021D000486A70472220704700240140AC3600084E
:1021E0000028014078360008A14BF0B51E68A14DCB
:1021F00046F001061E602E689F4CA04F34402C60B4
:102200001C689F4E24F0847424F480341C601C6885
:10221000C1F3072E24F480241C602B68002423F4CF
:10222000FE032B603B6883B003F41F033B60AEF1F9
:1022300004030C2B35683460924C84BF0823236060
:10224000914B98BFC4F800E00B40012B71D0C0F057
:102250008E80B3F1011F6CD08C4B8D4D1C68A84251
:1022600044F020041C6000F2A7801C6824F00704DE
:102270001C601C681C607F4B82421C6824F47F54E5
:1022800024F030041C6034D035D8C90340F1E2801A
:10229000B0FBF2F102FB1104002C40F0C980186879
:1022A0008A1E40F4803119601968920421F4781173
:1022B0001960196802F470120A431A606D4B6C4A77
:1022C000184619681960196841F48051196011683D
:1022D00041F08071116012681A6822F003021A60DE
:1022E0001A6842F002021A60036803F00C03082B1C
:1022F000FAD103B0F0BDB2FBF0F100FB1122002ACD
:10230000F7D10823012202FA03F0084206D113F1A3
:10231000FF33EED302FA03F00842F8D05D49554A84
:102320000B4493F8D811136843EA0113136003B008
:10233000F0BD4F4B1A681D4622F480321A601A68AD
:1023400022F400321A601A6842F480321A6001E006
:10235000002B3DD12B68019A03F400330132019226
:10236000019AB2F5A06FF3D1002B31D1FEE7404BBB
:102370001D461C6844F001041C602B689E07FCD5B8
:102380003C4B1D461C6824F003041C601C681C6048
:102390002B6813F00C0FFBD1CD0704D5344C236808
:1023A00023F001032360CC017FF556AF304C236846
:1023B00043F0807323604FE7374CA0422BD81C6852
:1023C00024F007041C601C6844F001041C6052E700
:1023D000284B1D461A6822F003021A601A6842F060
:1023E00001021A602B6803F00C03042BFAD1236856
:1023F0002A4A02FB03F2CB0704D51D4C236823F0C5
:1024000001032360CF017FF527AF194C236823F028
:102410008073236020E7224CA0423FF62CAF1C685B
:1024200024F007041C601C6844F002041C6022E7CE
:102430004000B0FBF2F102FB110000287FF459AF1D
:1024400018688A1E40F4403119601968920421F41A
:1024500070112DE74000B0FBF2F102FB11000028E3
:102460007FF447AF18688A0420F4741120E700BF96
:1024700000100240041002400000FFF0081002406B
:102480002C10024024000020030001000020024024
:1024900000366E0178360008006CDC0240420F0006
:1024A00000A24A04024A136843EA00201060704701
:1024B00008100240024A136823EA002010607047A7
:1024C00008100240024A136843EA00401060704757
:1024D00008100240014B1868C0B270470810024053
:1024E000024B186800F07C40704700BF2410024087
:1024F000024A136843F0807313607047241002404F
:10250000074B1A46196821F0807121F0010119600A
:1025100019680843186013689B07FCD5704700BF13
:1025200024100240064B1A46196821F00101196077
:1025300019680843186013689B07FCD5704700BFF3
:1025400020100240030F012B24D0ABB1022B29D065
:102550002B4A904247D02B4A904235D02A49C2B2EA
:1025600001EB8303D3F8E411C0F304400B6802FAD3
:1025700000F0184308607047244BC1B21A68C0F3DA
:10258000044022F070621A601A6801FA00F01043E9
:10259000186070471E4BC1B21A68C0F3044022F4A1
:1025A0004072F0E71B4BC2B210B4C0F304401C6889
:1025B00042F00101814024EA01011960196882405A
:1025C0000A431A6010BC7047012912D9082912D990
:1025D0004FF440430D4A116821F4404111601168E5
:1025E0000B43136070470C4A136843F001031360F8
:1025F00070470023EEE74B08013B9B03EAE700BF6F
:10260000070E0830170E083878360008041002400C
:10261000201002402C10024024100240014B024ABC
:102620001A60FEE70CED00E00400FA05704700BFF9
:10263000024A136843F4803313607047201002404D
:102640001B4910B40B6803F00C03042B24D0082B97
:1026500016D10A680B68C2F38342DB0302F1020160
:1026600020D5144C144A2068144B126803FB00F365
:1026700002F00F020132B3FBF2F201FB02F201E0C1
:102680000F4A0C4C0A4B1B68C3F3031323441879FD
:1026900010BC22FA00F07047064C084A206802FB82
:1026A00000F2EFE7074A034C02FB01F2EAE700BF42
:1026B00004100240240000202C10024040420F0071
:1026C00000127A0000093D0008B5FFF7B9FF044B7E
:1026D000044A1B68C3F3022313441B79D84008BD86
:1026E000041002402400002008B5FFF7A9FF044BA6
:1026F000044A1B68C3F3C22313441B79D84008BDA6
:102700000410024024000020024A136843F480733E
:102710001360704700700040024A136823F480730E
:102720001360704700700040044B1A6822F0F002FA
:102730001A601A6810431860704700BF00700040AC
:10274000024A136843F480731360704704700040BA
:10275000024A136823F480731360704704700040CA
:10276000074B00F001001A68064922F003021A60C4
:102770001A68104318600B6843F004030B6070473D
:102780000070004010ED00E0074B08491A6842F065
:1027900004021A601A6842F002021A600B6843F0E1
:1027A00004030B60704700BF0070004010ED00E0B4
:1027B000024B186800F00700704700BF047000402B
:1027C000034A8000136800F030001843106070471F
:1027D00000700040084B09481A68196810B4046872
:1027E00021EA020119602CB10023A44619461846BB
:1027F00010BC604710BC7047003801400005002045
:10280000084B09481A68196810B4446821EA0201A3
:1028100019602CB10023A4461946184610BC604725
:1028200010BC70470044004000050020084B0948D8
:102830001A68196810B4846821EA020119602CB181
:102840000023A4461946184610BC604710BC7047C8
:102850000048004000050020084B09481A68196824
:1028600010B4C46821EA020119602CB10023A44607
:102870001946184610BC604710BC7047004C004019
:1028800000050020084B09481A68196810B404694B
:1028900021EA020119602CB10023A446194618460A
:1028A00010BC604710BC704700500040000500207D
:1028B000C36823F4C0631943C1607047C06800F463
:1028C000C0607047F8B5304B054698420F46144635
:1028D0003AD02E4B98424FD02D4B984250D02D4B92
:1028E00098420CBF2C482D48FFF79EFB2B6904F43F
:1028F000405223F440532B612A61EB6804F4B05436
:1029000023F4B05323F00C03EB60EC60FFF7DCFE24
:1029100005F10C0600EB800000EB8000BA00B0FB74
:10292000F2F21F4B6424A3FB0201490901FB1422AC
:1029300012013232A3FB0223C3F3431343EA011310
:1029400032683268AB60F8BD1648FFF76DFB164B76
:10295000164E1A6804F4405122F440521A6019606D
:10296000336804F4B05423F4B05323F00C03336001
:102970003460FFF7B9FECDE70D48FFF755FBB5E72B
:102980000C48FFF751FBB1E700380140004400401C
:1029900000480040004C00400800102010001020AB
:1029A0001F85EB5100400010103801400C380140E9
:1029B000020010200400102070B504461E46456930
:1029C00025F006054561FFF77DFF6269002E22F0C4
:1029D0000402626103DA636943F00403636170BD5A
:1029E00042F20C02C36811400B43C360704700BF42
:1029F00003685B06FCD5C94342F20C02C3680A4077
:102A00001340C360704700BF036923F4F0430361C0
:102A1000436923F028034361436943F002034361A0
:102A2000704700BF436923F002034361704700BF52
:102A300070B504461E46456925F006054561FFF759
:102A400041FFA269002E22F0FF02A261A26942F0BA
:102A50000102A261626922F0040262610CDAA269D9
:102A60009DF8103022F0FF02A261A2691343A36116
:102A7000636943F00403636170BD00BF036923F41D
:102A800060530361436923F02A034361036943F4FC
:102A900080430361704700BF036923F480430361EF
:102AA000704700BF38B5044615460022FFF70AFFFD
:102AB000236923F460532361636923F02A0363616C
:102AC000236943F480432361236923F020032361B6
:102AD000256138BD03689B064CBF40684FF0FF304E
:102AE000704700BF03689B06FCD54068704700BF75
:102AF000036813F080031ABF416001201846704735
:102B000003681B06FCD54160704700BF5AB130B462
:102B1000051D8C1811F8012B03681B06FCD5A1427A
:102B20002A60F7D130BC7047C36843F00103C3602B
:102B3000704700BFB1F1401F1DD01B4B99421FD001
:102B4000B1F1801F21D0B1F1201F0FD0B1F1101FC2
:102B500020D0164B994222D0154B994243690CBFA5
:102B600043F0010343F4806343617047C36843F05B
:102B70002003C3607047C36843F04003C3607047DD
:102B8000C36843F48073C3607047C36843F0800335
:102B9000C3607047C36843F01003C36070470369A4
:102BA00043F0400303617047000101002010000161
:102BB00001200E00B1F1401F1DD01B4B99421FD0C8
:102BC000B1F1801F21D0B1F1201F0FD0B1F1101F42
:102BD00020D0164B994222D0154B994243690CBF25
:102BE00023F0010323F4806343617047C36823F03B
:102BF0002003C3607047C36823F04003C36070477D
:102C0000C36823F48073C3607047C36823F08003F4
:102C1000C3607047C36823F01003C3607047036943
:102C200023F0400303617047000101002010000100
:102C300001200E00114B98421CD00AD8A3F5006366
:102C4000984214D003F5806398420FD10C4B9960E1
:102C500070470C4B984206D003F56843984204D164
:102C6000074B19607047064B196170477047044B5A
:102C700059607047024BD960704700BF004C00405C
:102C8000000500200050004000680004704700BFAD
:102C90006FEA114101607047036923F00F0303617C
:102CA0000369194301617047C36823F40063C3607B
:102CB000C3681943C16070478369090223F47F43E5
:102CC0008361836989B2194381617047036923F481
:102CD00090430361436923F022034361436943F056
:102CE00008034361704700BF436923F00803436151
:102CF000704700BF0369802923F48043036143695F
:102D000023F008034361436923F002034361C3686E
:102D100043F48053C360C36843F48063C3600369B2
:102D200023F44053036103690CBF43F4805343F41D
:102D300040530361436943F020034361704700BF80
:102D4000436923F020034361704700BF036941F4E6
:102D5000006123F480430361436923F00803436166
:102D6000436923F0220343610369194301617047FA
:102D7000036923F400630361704700BF436919438B
:102D800041617047FFF7FABF436923EA01014161DE
:102D9000704700BFFFF7F8BF704700BF0170012008
:102DA000704700BF0B7810B453B1024602F8013BE4
:102DB00011F8013F141A002BF8D1204610BC7047BF
:102DC0001C46FAE7092B70B51E4602F1FF35044692
:102DD00013D8002D1BDD0B46411904F8013BA1421D
:102DE000FBD110460B4BA3FB0623DB0803EB83034D
:102DF000A6EB430330330B7070BD064B2A46A3FB92
:102E00000653DB08FFF7DEFF21180130EAE7014631
:102E10000120E7E7CDCCCCCCF8B5002B04460F461B
:102E200027DB092B1E4602F1FF3219DC002A37DDB1
:102E300011462546013905F8017BFBD1012AB8BFAF
:102E40000122002B144426DB501C164BA3FB062347
:102E5000DB0803EB8303A6EB430330332370F8BD99
:102E6000104BA3FB0653DB08FFF7D6FF04440130E9
:102E7000EBE75E42092E02F1FF3508DD094B2A46D9
:102E8000A3FB0653DB085B42FFF7C6FFEEE7023AFF
:102E9000002ACDDC00222D23901C04F8013BD4E74E
:102EA0000120D2E7CDCCCCCC2DE9F04182B0089EF8
:102EB000551E5FEA161E044698461ED1002D24DDDD
:102EC0000F46431904F8017BA342FBD1104606F0DC
:102ED0000F06092E0CD9B8F1000F04D157361E7019
:102EE00002B0BDE8F08137361E7002B0BDE8F08157
:102EF00030361E7002B0BDE8F081CDF800E02A4601
:102F0000FFF7D2FF23180130E1E703460120DEE797
:102F10002DE9F0410F4682B09E46064608B10023D7
:102F20000370002513785BB1BD4280F09780252B9C
:102F30000ED033700132137801350136002BF3D1F6
:102F4000AF4240F28B802846337002B0BDE8F0817A
:102F50005178252935D0302938D00B46541CA3F19F
:102F60003002092A4FF0200136D8002202EB8202FB
:102F700003EB420214F8013F303AA3F13000092874
:102F800002F0FF02F2D910462844874238BF7A1B6C
:102F9000A3F1580338BFD2B2202B66D8DFE803F084
:102FA000596565656565656565656551476565650F
:102FB000654765656565656565656538652E656543
:102FC0001F003170023201350136ABE79378941C53
:102FD000A3F13002092AC8D900200246D4E7DEF85E
:102FE0000030009300230EF104083046FFF75CFF29
:102FF000C6460346621C1E44054493E7DEF80030D3
:1030000030460EF10408FFF7DDFEC6460346F1E741
:10301000DEF800100EF1040E0B785BB3324602F8B6
:10302000013B11F8013F901B002BF8D1E1E7DEF8DE
:10303000003030460EF10408FFF7EEFEC6460346A8
:10304000D8E7DEF80020012332700EF1040E184696
:10305000D0E7DEF8003000930123C4E70023681EA8
:1030600006F8013C02B0BDE8F0814FF0FF3002B03D
:10307000BDE8F0811846BDE70CB410B582B004ACD1
:1030800054F8042B23460194FFF742FF02B0BDE839
:10309000104002B0704700BF13460A466421FFF794
:1030A00037BF00BF30B59BB0134604460A4601A89F
:1030B0006421FFF72DFF632817DC9DF8040058B149
:1030C0000A4A01AB1268002091688C4206D0D5688C
:1030D000AC4203D04FF0FF301BB030BD13F8015F9E
:1030E0000130002DF1D11BB030BDFEE740000020C3
:1030F000034B0A461B6801469868FFF7D3BF00BF21
:10310000400000200EB400B582B003AB53F8041B9E
:103110001A460193FFF7C6FF02B05DF804EB03B057
:10312000704700BF0FB400B5074A83B004AB53F833
:10313000041B10681A4680680193FFF7B3FF03B0C1
:103140005DF804EB04B07047400000200EB410B5E9
:1031500083B005AC54F8042B642123460194FFF797
:10316000D7FE03B0BDE8104003B0704703782BB121
:10317000002310F8012F0133002AFAD118467047B6
:10318000054B1B689A688A4204D0DB68994218BFD5
:103190004FF0FF30704700BF400000200378ABB114
:1031A0000B4A30B415680023AC688C4206D0EA683C
:1031B000914203D030BC4FF0FF30704710F8012F20
:1031C0000133002AF1D1184630BC704718467047C9
:1031D00040000020002210210148FDF7B9BB00BFCC
:1031E00000080140012210210148FDF7B1BB00BFDA
:1031F0000008014001460148FDF788B80030014051
:1032000008B5FF210248FDF781F8C0B208BD00BF34
:103210000030014070B5214C86B021460020FEF7F9
:1032200053FD21460120FEF74FFD04A90820FEF7BB
:103230002FFC04A91A48FFF775FFE0786679257915
:10324000A378627821788DE861001648FFF76AFF5D
:10325000607A237AE279A17900901348FFF762FF40
:10326000607C237CE27BA17B00901048FFF75AFF33
:10327000607B237BE27AA17A00900D48FFF752FF32
:10328000607D237DE27CA17C00900A48FFF74AFF25
:103290000948FFF76BFF06B070BD00BF7004002047
:1032A0007838000890380008B8380008CC38000892
:1032B000E0380008F4380008083900082DE9F0412A
:1032C00044010834064604F540700F461546FEF7E3
:1032D00039FD1C2843D8DFE800F045424242424213
:1032E00042424242424242424242424242564242AA
:1032F000421B424242420F0031463348FFF712FF61
:103300003046FDF751FD012805464FD0BDE8F0815C
:1033100004F500742046FEF715FDC3073DD4304682
:10332000FEF7C6FDD8B1B0F5006F28BF4FF40060BE
:103330001FFA80F8424639463046FDF70BFE00285A
:10334000E4DD0024C4EB0802391992B23046FDF7DF
:103350006FFD051E2C44A4B22FDB4445F2D10120A1
:10336000BDE8F08131461948FFF7DCFE2A4600230C
:1033700001213046FDF7DCFB8642C7D131461448B7
:10338000FFF7D0FEEBE72A4631461248FFF7CAFEA8
:103390003046FDF755FCBDE8F08131460E48FFF799
:1033A000C1FE20460121FEF7EBFCB8E731460B4891
:1033B000FFF7B8FE2846BDE8F0813046FDF786FBF2
:1033C0002846BDE8F08100BF3039000864390008A4
:1033D000743900084C3900082039000840390008C9
:1033E0002DE9F0410646400184B000F54270884660
:1033F0001546FEF7A7FC0446002836D0222830D117
:103400003046FEF755FD60B30246B0F5006F28BFA9
:103410004FF400620DF10A01009192B203AB4146F4
:103420003046FDF7B5FE071E32DDBFB2CFB1002436
:1034300001E0A74215D0BDF80A303A1B009308EB13
:10344000040192B203AB3046FDF7F4FD051E2C4497
:10345000A4B2EEDA31462A461148FFF763FE284649
:1034600000E0012004B0BDE8F08131460D48FFF7CF
:1034700059FE23462A4602213046FDF759FB864273
:10348000F0D12A4631460848FFF74CFE0120E9E713
:1034900031463A460548FFF745FE3846E2E700BFA9
:1034A0009C390008B4390008C43900088039000884
:1034B00038B538493848FEF797FEFFF7C1F8374A64
:1034C0003223A2FB0020800903FB00F0344CFEF7FE
:1034D000A7FD344D3448FEF7BDFD032210212046E0
:1034E000FDF75CF92846FEF79FFD2846FEF7B2FD82
:1034F0002E4D20464FF0C0424FF40071FDF748FAC0
:1035000020464FF000524FF48061FDF741FA00224F
:1035100028464FF4E131FFF7D5F942F20C01284675
:10352000FFF75EFA4FF01020FEF77EFD4FF01020FF
:10353000FEF790FD20464FF0C0422021FDF728FA0B
:1035400020464FF0C0428021FDF722FA20464FF07E
:1035500000524021FDF71CFAFFF772F804F52054E1
:10356000410804222046FCF793FE4FF400712046E8
:103570000022FCF773FE2046FCF78AFFFFF760F895
:1035800003460B490B48A1FB0331BDE83840890CC9
:10359000FFF7C8BD0108010000A24A04D34D621024
:1035A00000080140004000100400001000380140F5
:1035B00083DE1B43DC39000810B5244B86B09A68C3
:1035C00018685968DB6802AC0FC4FFF771FF204927
:1035D0002048FEF799F820492048FEF7BDF802A9D7
:1035E0000120FEF755FA013003D127E09DF807309E
:1035F0006BB90DF107010F20FEF74AFA0130F5D142
:103600001748FFF7B3FD9DF80730002BF1D0FFF707
:1036100001FE07E0134940F6B8320120FFF7E0FE53
:10362000011E0FDB0F4941F288320020FFF746FEF2
:10363000011EEFDA0C48FFF775FDEBE70B48FFF7CB
:1036400095FDFEE70848FFF76DFDEBE768380008D9
:10365000E5310008D5310008F531000801320008D5
:10366000083A000814050020243A0008EC39000844
:10367000040001401C000140281002400C100240D0
:103680001010024014100240181002401C1002409A
:10369000201002400024014000020010220000001F
:1036A0000028014000040010220000000000024039
:1036B00001000000000011090004024002000000A7
:1036C000000011090008014004000010000003116F
:1036D000000C014008000010000003110010014020
:1036E0001000001000000311001401402000001021
:1036F00000000311001801404000001000000311F9
:10370000001C014080000010000003110020014057
:1037100000010010000003110054004020001020A0
:103720002F300000005800404000102031320000CF
:1037300000280040008000301339000000300140B4
:10374000001000103300000000380040004000204E
:1037500034000000003C00400080002043000000D6
:10376000002C014000080010000029080000004063
:10377000010000202C000000000400400200002096
:103780002D00000000080040040000202E00000072
:10379000000C004008000020420000000010004023
:1037A000100000204600000000140040200000200F
:1037B000470000000034014000200010000000001D
:1037C000004C0140080010100000000000500140B3
:1037D00010001010000000000054014020001010E4
:1037E0000000000000180040400000200000000021
:1037F000001C00408000002000000000002000406D
:1038000000010020000000000038014000400010CE
:103810003500000000440040020010203600000087
:10382000004800400400102037000000004C004019
:10383000080010204400000000500040100010203C
:1038400045000000002C004000080020100000008F
:103850000F0E0D0C000B0A090800000004100240B6
:10386000201002402C100240020202020202020258
:1038700002020202020202020D0A3D3D3D202573B2
:10388000204E455420434F4E46203D3D3D0D0A00FD
:103890004D41433A20253032583A253032583A25A6
:1038A0003032583A253032583A253032583A25309D
:1038B00032580D0A000000005349503A2025642E6A
:1038C00025642E25642E25640D0A00004741523AD6
:1038D0002025642E25642E25642E25640D0A000003
:1038E0005355423A2025642E25642E25642E2564E6
:1038F0000D0A0000444E533A2025642E25642E25DF
:10390000642E25640D0A00003D3D3D3D3D3D3D3D9D
:103910003D3D3D3D3D3D3D3D3D3D3D3D3D3D0D0044
:1039200025643A436F6E6E65637465640D0A00002A
:1039300025643A436C6F7365576169740D0A000022
:1039400025643A436C6F7365640D0A0025643A4C34
:10395000697374656E2C20706F7274205B25645DD2
:103960000D0A000025643A4C425453746172740D80
:103970000A00000025643A4F70656E65640D0A0008
:1039800025643A207265637666726F6D2065727287
:103990006F722E20256C640D0A00000025643A2009
:1039A00073656E64746F206572726F722E20256C61
:1039B000640D0A0025643A4C425553746172740DCB
:1039C0000A00000025643A4F70656E65642C207013
:1039D0006F7274205B25645D0D0A000048434C4BF8
:1039E000203D2025644D487A0D0A000057495A436E
:1039F00048495020496E697469616C697A65642030
:103A00006661696C2E0D0000556E6B6E6F776E20CF
:103A1000504859204C696E6B207374617574732E15
:103A20000D000000534F434B4554204552524F5216
:0C3A3000203A20256C640D0A0000000004
:103A3C0000C000000102573535303000DD1600089B
:103A4C00E1160008D9160008C5160008C9160008AA
:103A5C00CD1600080800000000000000010203045D
:103A6C00010203040607080902040608000000000E
:103A7C0048000020000000000000000000000000D2
:103A8C000100000000000000000000000000000029
:103A9C00000000000000000000000000000000001A
:103AAC00000000000000000000000000000000000A
:103ABC0000000000000000000000000000000000FA
:103ACC0000000000000000000000000000000000EA
:103EAC000708DC00ABCDC0A8007BFFFFFF00C0A85B
:083EBC000001000000000100FC
:0400000508000000EF
:00000001FF
