:020000040800F2
:1000000060060020A1010008A9010008AB0100085A
:10001000AD010008AF010008B101000800000000B8
:10002000000000000000000000000000B301000814
:10003000B501000800000000B7010008B901000880
:10004000BB010008BB010008BB010008BB010008A0
:10005000BB010008BB010008BB010008BB01000890
:10006000BB010008BB010008BB010008BB01000880
:10007000BB010008BB010008BB010008BB01000870
:10008000BB010008BB010008BB0100080000000024
:10009000000000000000000000000000BB0100089C
:1000A000BB010008BB010008BB010008BB01000840
:1000B000BB010008BB010008BB010008BB01000830
:1000C000BB010008BB010008BB010008BB01000820
:1000D000BB010008BB010008BB010008BB01000810
:1000E000BB010008BB010008BB01000800000000C4
:1000F0000000000000000000000000000000000000
:1001000000000000000000000000000000000000EF
:100110000000000000000000BB010008BB01000857
:1001200000F002F800F02CF80AA090E8000C8244DD
:100130008344AAF10107DA4501D100F021F8AFF2BA
:10014000090EBAE80F0013F0010F18BFFB1A43F0B5
:1001500001031847C4020000D40200000023002459
:1001600000250026103A28BF78C1FBD8520728BFC7
:1001700030C148BF0B6070471FB51FBD10B510BD23
:1001800000F031F81146FFF7F7FF00F02DF900F00D
:100190004FF803B4FFF7F2FF03BC00F057F800007C
:1001A0000948804709480047FEE7FEE7FEE7FEE70B
:1001B000FEE7FEE7FEE7FEE7FEE7FEE70448054947
:1001C000054A064B7047000045030008210100085E
:1001D0006000002060060020600200206002002015
:1001E000704770477047754600F02CF8AE46050022
:1001F0006946534620F00700854618B020B5FFF742
:10020000DDFFBDE820404FF000064FF000074FF043
:1002100000084FF0000B21F00701AC46ACE8C00924
:10022000ACE8C009ACE8C009ACE8C0098D4670472D
:1002300010B50446AFF300802046BDE81040FFF73C
:10024000A8BF0000004870470000002001491820A6
:10025000ABBEFEE726000200704710B500F002F8C2
:1002600010BD00000CB500200190009033480068DC
:1002700040F480303149086000BF3048006800F425
:10028000003000900198401C0190009818B9019826
:10029000B0F5A06FF1D12948006800F4003010B12A
:1002A0000120009001E0002000900098012843D137
:1002B0002348006840F010002149086008460068A3
:1002C00020F0030008600846006840F00200086063
:1002D0001A4840681949486008464068486008461E
:1002E000406840F4806048600846406820F47C1014
:1002F00048600846406840F4E810486008460068D6
:1003000040F08070086000BF0C48006800F000708A
:100310000028F9D00948406820F0030007494860E8
:100320000846406840F00200486000BF034840684B
:1003300000F00C000828F9D10CBD000000100240AC
:100340000020024010B51148006840F001000F493C
:100350000860084640680E4908400C494860084655
:1003600000680C490840094908600846006820F404
:10037000802008600846406820F4FE0048604FF482
:100380001F008860FFF769FF10BD000000100240E9
:100390000000FFF8FFFFF6FE1048806940F01400EF
:1003A0000E4988610E48406840F033000C494860AF
:1003B0000846406820F0CC0048600A48006820F0F9
:1003C0000300084908600846006820F00C00086037
:1003D0000846006840F008000860704700100240BE
:1003E000001001400008014000220FE0FFF7D4FF99
:1003F0000748006800F0010222B14FF4407005493F
:10040000086103E04FF0407002490861EEE7000028
:1004100008080140001001402804000800000020E6
:08042000600600005C01000809
:04000005080001A14D
:00000001FF
