:020000040800F2
:10000000C80F0020E1010008E9010008EB01000829
:10001000ED010008EF010008F101000800000000F8
:10002000000000000000000000000000F3010008D4
:10003000F501000800000000F7010008F9010008C0
:10004000FB010008FB010008FB010008FB010008A0
:10005000FB010008FB010008FB010008FB01000890
:10006000FB010008FB010008FB010008FB01000880
:10007000FB010008FB010008FB010008FB01000870
:10008000FB010008FB010008FB0100080000000064
:10009000000000000000000000000000FB0100085C
:1000A000FB010008FB010008FB010008FB01000840
:1000B000FB010008FB010008FB010008FB01000830
:1000C000FB010008FB010008FB010008FB01000820
:1000D000FB010008FB010008FB010008FB01000810
:1000E000FB010008FB010008FB0100080000000004
:1000F0000000000000000000000000000000000000
:1001000000000000000000000000000000000000EF
:100110000000000000000000FB010008FB010008D7
:1001200000F002F800F04DF80AA090E8000C8244BC
:100130008344AAF10107DA4501D100F042F8AFF299
:10014000090EBAE80F0013F0010F18BFFB1A43F0B5
:1001500001031847C42B0000E42B0000103A24BF11
:1001600078C878C1FAD8520724BF30C830C144BF1C
:1001700004680C607047000000230024002500265E
:10018000103A28BF78C1FBD8520728BF30C148BFFA
:100190000B607047642900F09F80782900F0D880B8
:1001A000732900F03382002070471FB59DE80300DB
:1001B00000F07EFD00F05CFA1FBD10B500F0C1FA42
:1001C00010BD00F024FB1146FFF7EFFF01F07AFCB1
:1001D00000F014FD03B4FFF7F0FF03BC00F0FAFEDB
:1001E0000948804709480047FEE7FEE7FEE7FEE7CB
:1001F000FEE7FEE7FEE7FEE7FEE7FEE70448054907
:10020000054A064B70470000CD1100082101000887
:10021000C8090020C80F0020C80B0020C80B002010
:100220000FB4044910B503AA029800F0F3F910BC0A
:100230005DF814FBC008002070B5044685690068AD
:10024000C10601D5302600E02026C00707D070BDCA
:10025000D4E9012130469047206A401C20626D1E7F
:10026000F6D570BD70B5044685690078C00707D122
:1002700070BDD4E9012120209047206A401C2062F3
:100280006D1EF6D570BD70B50C460546012A05D029
:100290002878800600D5EA69002302E0012305E002
:1002A0005B1C934202D2E05C0028F9D1A869E618F1
:1002B000C01AA861286A184428622846FFF7BCFFC4
:1002C00004E0D5E9012114F8010B9047B442F8D3BA
:1002D0002846FFF7C7FF70BD2DE9F0410646002410
:1002E00010687529314616A510D0AFF3008000289C
:1002F00002DA404213A507E031688A0701D512A54A
:1003000002E0490704D511A5012401E0AFF3008004
:1003100000210A2206F1240709E0B0FBF2FCB0FB41
:10032000F2F302FB1C00303078541846491C0028B8
:10033000F3D123462A463046BDE8F04100F0FBB831
:10034000000000002D0000002B0000002000000035
:1003500070B504460D4621461068AFF30080218831
:10036000090502D50F4A7A4402E00E4A7A440E3259
:10037000002104F1240305E000F00F060009965D5A
:100380005E54491C0028F7D120780023000704D5CB
:10039000702D02D009B1022311322046BDE8704011
:1003A00000F0C9B8662900002DE9F05F89460446CF
:1003B0004FF0000ADFF874B1FB44C0F820A02046DB
:1003C000E1688847002874D0252806D0D4E90121A7
:1003D0009047206A401C2062F1E700265F462046D5
:1003E000E16888472028054607DB312D05D27819BA
:1003F00010F8200C08B10643F1E7B00701D526F04C
:100400000406C4F81CA00027C4F818A02A2D09D09F
:10041000284600F0CFFF38B304EB8708303DC8F81A
:10042000185019E059F8041B204604EB870291612B
:10043000E1688847012F054618D1E069002820DAD5
:1004400026F020061DE0D8F8180000EB800005EB30
:1004500040003038C8F818002046E1688847054653
:1004600000F0A8FF0028EED1012F0AD02E2D08D1D0
:100470002046E16888477F1C0546022F46F020068B
:10048000C4DBA069002803DA404246F00106A061FF
:10049000F00701D026F010066C2D0BD0682D09D086
:1004A0004C2D39D06A2D35D0742D35D07A2D33D0DE
:1004B00016E038E0E1682F4620468847B8420546F6
:1004C00009D16C2F26D04FF48060E16806432046A6
:1004D0008847054604E06C2F1AD04FF4807006431D
:1004E0000DB3A5F14100192802D8203546F4006665
:1004F0004A462946204626604E46FFF74BFE80B10D
:1005000001280BD0F61D26F0070000F1080956E778
:100510004020E4E78020D8E70020D6E706F1040970
:100520004DE7284652E7206ABDE8F09F3C290000CD
:100530007047704770472DE9F0470D46994692463F
:10054000044600F124080168880604D5E06921F01A
:100550001001216000E00120A84201DD471B00E0FE
:100560000027A1697A1902EB0900081AA061207816
:10057000C00602D42046FFF75FFE002608E0D4E95B
:1005800001211AF806009047206A401C761C206260
:100590004E45F4DB2078C0060AD52046FFF74CFE16
:1005A00006E0D4E9012130209047206A401C2062F7
:1005B000381EA7F10107F4DC07E0D4E9012118F89F
:1005C00005009047206A401C2062281EA5F1010505
:1005D000F3DC2046FFF746FE2078000602D5022015
:1005E000BDE8F0870120FBE710B5436913B1AFF315
:1005F000008001E0FFF747FE012010BD127800F1F6
:1006000024010A7000224A700122EDE711684FF0C0
:10061000FF32E9E7074B70B50D467B4400F011F857
:100620000446284600F020F810B14FF0FF3070BDAE
:10063000204670BD5710000001694A1C026108780D
:10064000704700B58FB0CDE9013100210591054912
:100650007944CDE9031011466846FFF7A5FE0FB0B7
:1006600000BD0000E5FFFFFF007B00F08000704749
:1006700010B54248542100F0D1FA4148542100F00D
:10068000CDFA4048542100F0C9FA3F493B483C4A62
:100690003F4B08603D490A603A491960531C0365A5
:1006A000481C1065012008653B48344A39A178444C
:1006B00000F008FA20B9384878440A3800F0A7FA60
:1006C00037482F4A35A1784400F0FCF920B9344866
:1006D00078440A3800F09BFA32482A4A2FA178441D
:1006E00000F0F0F920B92F4878440A3800F08FFA6A
:1006F00040232248DC000021224600F0BFF920B14F
:1007000025487844543800F082FA1D482246402398
:10071000002100F0B3F920B121487844543800F0AA
:1007200076FA184822461023002100F0A7F9002885
:1007300006D01C487844BDE81040563800F067BA2F
:1007400010BD104870B5006D20F001040B4800F09A
:100750002FFA0B4800F02CFA0A4800F029FA09E0B9
:10076000206D20F00105204600F022FA204600F01E
:1007700073F82C46002CF3D170BD00006C080020EB
:10078000C008002014090020500000205400002060
:10079000580000207200000057260000770000007B
:1007A000432600002F2600000EB5CDE9000100F021
:1007B000F1FB029069460120ABBE0EBD08B569464B
:1007C00000900220ABBE08BD1FB58DE8070069464A
:1007D0000520ABBE04B010BD1FB58DE80F00694603
:1007E0000620ABBEF6E708B5694600900920ABBE0F
:1007F00008BD1CB5CDE9000169460A20ABBE1CBD91
:10080000704708B5694600900C20ABBE08BD754620
:1008100000F02CFAAE4605006946534620F007006A
:10082000854618B020B5FFF7E9FCBDE820404FF041
:1008300000064FF000074FF000084FF0000B21F0CA
:100840000701AC46ACE8C009ACE8C009ACE8C00997
:10085000ACE8C0098D46704770B50446051F00F02E
:100860000BFA0068002C14BF446870BD002C18BF40
:10087000AC423CBF20466468F8D301680A18AA421B
:1008800018BF456003D12A680546114401602868F5
:100890004119A1421CBF6C6070BD6168696021682C
:1008A0000844286070BD2DE9F04705460C46C8682D
:1008B00020F4201040F48000C860800602D508466D
:1008C00000F027FBE06841F282014FF0FF39014060
:1008D000022903D0204600F0C5FAB5E000F420411B
:1008E000B1F5004F0FD1C00306D56168E06A8842B8
:1008F00000D80846606006E02069E06260606069D8
:10090000FFF77FFFA061A0680022EEB200280DDA99
:10091000E1688B050AD4C043A06041F490302260A6
:10092000E0606068411C61600670A5E0E068904688
:10093000226040F40050E060206968BB6069FFF706
:1009400052FF012704F12405A0B1A08910F4407FD3
:1009500008D0E06900F0DBF9206118B1E06840F4EC
:10096000006016E0E7612561E06820F4407040F423
:1009700080600EE0E06900F0CAF900282061F1D043
:10098000E06840F4006010F4407FE06002D140F481
:100990008070E06020696060E06825696FF0010A9E
:1009A000C1051FD56168E06A884200D80846411B2E
:1009B00004D02246284600F05FFAF0BBE06801024E
:1009C00003D5E562C4E9015854E0691CE162616045
:1009D000E16940F48030491EC4E9021030462E70AF
:1009E000BDE8F087010202D500F480320AE06068B9
:1009F000411C61600670E0680A2E40F48030E060BF
:100A000006D00022E16A6068814203D90B4602E009
:100A10000122F7E70346A7895B1B7F0503D4E7693B
:100A20009F4200DDE2B1814200D80146E5620F1A23
:100A3000C4E90158002B09DD00E005E02246194613
:100A4000284600F019FA08B14846C9E747B1A0693D
:100A5000E5626560C01BA061E06840F01000E060E6
:100A6000E068000208D56168A069E562491B084496
:100A70006560A0615046B3E73046B1E770B5C46821
:100A8000A50713D0650211D4B2F5807F09D0B2F565
:100A9000007F06D0B2F5806F08D1012300F1240158
:100AA00006E05D1E6FF07F46B54201D3012070BDA8
:100AB0000161C361416024F470611143C160002091
:100AC00070BD00002DE9F0410C4607461646104661
:100AD00000F06EF82078611C61280AD0722802D0DC
:100AE00077283CD102E00125002405E002250424FA
:100AF00002E0082448F2020511F8010B2B2806D069
:100B0000622809D011F8010C74280AD00BE045F0D6
:100B1000030544F00204EFE745F0040544F0010446
:100B2000EAE744F0100438462146FFF73DFE411C39
:100B300015D00021316171604FF40071F560F161F1
:100B40007061200704D530460222002100F00EF922
:100B5000306D40F0010030653046BDE8F081002086
:100B6000FBE72DE9F0410D460646104C206DC1070C
:100B700004D0410804D020F00104F7E722460EE03B
:100B8000542000F0C4F807000ED0206D47F001019A
:100B9000084354212065384600F040F83A4629467B
:100BA0003046BDE8F0418DE70020D6E76C08002014
:100BB0002DE9F04704464FF000094FF0FF37C568B4
:100BC000D4E90486A80707D0204600F07FF9304614
:100BD000FFF7F4FD002802DA3846BDE8F087280563
:100BE00002D54046FFF738FE4C21204600F016F8AB
:100BF000206D20F0010020654846EEE710B5044660
:100C0000AFF300802046BDE81040FFF7E3BA10B50F
:100C100000F0A6F9BDE8104000F09CB94FF00002CA
:100C200000B5134694469646203922BFA0E80C50E2
:100C3000A0E80C50B1F12001BFF4F7AF090728BFBD
:100C4000A0E80C5048BF0CC05DF804EB890028BF39
:100C500040F8042B08BF704748BF20F8022B11F062
:100C6000804F18BF00F8012B704700000048704704
:100C70006809002070470000004870477009002094
:100C8000704770477047704738B504460A460020E1
:100C90006946AFF30080002808BF38BD02460099BE
:100CA000204600F0A4F9012038BD012000F0F3B97E
:100CB000F8B5AFF30080054600200C46102000BFB9
:100CC0000646A819A0420DD9324669460020AFF366
:100CD0000080070008BF00F0DEF90098A04218BFAE
:100CE0000546C419FFF7C8FF05600746F01D20F050
:100CF00007004619284600F073F9B44208BFF8BD52
:100D0000A21B31463868BDE8F84000F070B970B5F4
:100D10000646FFF7B1FF056806F10B0020F0070457
:100D2000B4429CBF002070BD2B466A68BAB11068FF
:100D3000A04210D304F1080188423CBF50685860BB
:100D400007D35168101941601168091B0160586090
:100D50001460101D70BD13465268002AE7D1214669
:100D60002846FFF791FF0028DED170BD2DE9F04144
:100D7000044616460D464769007B80072ED038464C
:100D8000FFF731FD50BB3EB3012E02D0022E25D11C
:100D900004E0204600F045F905441DE03846FFF721
:100DA00030FDE168002841F01001E16005DA2046DD
:100DB00000F058F80120BDE8F081C9030BD5626846
:100DC000E16A914200D81146A26911442269891A48
:100DD000814200DD08460544002D01DA0220EAE7E1
:100DE000E16A6068E268814206D29103E06203D55D
:100DF00022F4003141F01002A6690027AE4213DC54
:100E0000E16A814201D90B4600E0034603EB060C80
:100E10002369ACEB030CAC4506DD814201D98C465D
:100E200000E084469C4505D1A760276042F0200081
:100E3000A5620DE0AD1BE669AE1B8142A66000D93C
:100E40000846C01A281A20605819606022F0200055
:100E500003490840E060002084F84870ABE70000D8
:100E6000BFCFD7FFC16821F4001141F08001C160FC
:100E700000218160016070472DE9F04781461446EA
:100E80000E464FF0FF383248D5685769054209D001
:100E90003846A169FFF7ADFC002811DB2C48C043A0
:100EA0000540E5602B46324649463846FFF78CFC44
:100EB000A16920F00042B21A11440028A16103D0B8
:100EC0002046FFF7CFFF4046BDE8F08770B50446E7
:100ED0000569C06A6168884200D80846E16821F463
:100EE0002011E160C90312D5A84208D02246411B57
:100EF0002846FFF7C1FF10B14FF0FF3070BD002052
:100F0000E562C4E90150E06820F48030E060002030
:100F100070BD10B50446C06820F02000E060A16AF2
:100F2000A06988420DD02046FFF7D0FFE06820F48A
:100F3000405040F01000E060A06AA0612069E062CB
:100F4000606044F24001E0688843E06010BD00004A
:100F500010000200002801D000F03CB870470000EB
:100F600010B5014602A000F07DF8012010BD000080
:100F700053494752545245443A2052656469726558
:100F800063743A2063616E2774206F70656E3A2037
:100F90000000000010B5431C02E010F8011B71B105
:100FA0008107FAD14FF0013202C88C1A8C4314EA3F
:100FB000C211F9D0C01A0A0603D0C01E10BDC01A53
:100FC00010BD0A0401D0801E10BD0902FCD0401ED5
:100FD00010BD000001491820ABBEFEE7260002004C
:100FE00000210160C0E901107047102070470346DE
:100FF00040688C46002818BF88423CBF03464068C2
:10100000F8D318681844884207D00CF1030020F088
:101010000700001D411A521A0146081D0A60FFF719
:101020001BBC10B50146C268900703D0900607D5D7
:10103000886A0AE000F03EF801210160881E10BDB8
:101040008B69486818440B69C01A91F848301BB185
:1010500091F84910401A10BD1103FCD50028FADDA3
:10106000401E10BD70B505460C460A2000E06D1C00
:1010700000F018F835B128780028F8D102E0641C97
:1010800000F010F814B120780028F8D1BDE87040C5
:101090000A2000F007B810B500F010F8BDE81040C5
:1010A000FFF758BF08B569468DF800000320ABBEB6
:1010B00008BD0000004870476809002010B50128ED
:1010C00005D0002103A0FFF7CDFF012010BD09A12D
:1010D000F8E7000053494752544D454D3A204F75AB
:1010E00074206F662068656170206D656D6F727920
:1010F000000000003A2048656170206D656D6F72D8
:101100007920636F727275707465640010B500F0B9
:1011100001F810BD0CB50020019000902A4800682D
:1011200040F480302849086000BF2748006800F478
:10113000003000900198401C0190009818B9019867
:10114000B0F5A06FF1D12048006800F4003010B174
:101150000120009001E0002000900098012831D18A
:101160001948406818494860084640684860084681
:10117000406848600846406820F47C104860084693
:10118000406840F4981048600846006840F080705D
:10119000086000BF0C48006800F000700028F9D01B
:1011A0000948406820F00300074948600846406845
:1011B00040F00200486000BF0348406800F00C00A7
:1011C0000828F9D10CBD00000010024010B51248EB
:1011D000006840F0010010490860084640680F4967
:1011E00008400D494860084600680D4908400A4912
:1011F00008600846006820F48020086008464068BF
:1012000020F4FE0048604FF41F0088600020C86290
:10121000FFF77CFF10BD0000001002400000FFF847
:10122000FFFFF6FE014600BF0948008900F00100FB
:101230000028F9D00648818100BF0548008900F0E8
:1012400002000028F9D002488089C0B2704700002F
:101250000030014070B504461049886880470F4946
:101260000869804700BF0D48C169C4F3074088473B
:101270000A48C169C4F307208847E0B2074AD16928
:101280008847064988698047054604494869804778
:101290000249C8688047284670BD00002800002029
:1012A0002DE9F04104460E4617460025A84614498C
:1012B0008868804712490869804700BF1048C169A3
:1012C000C4F3074088470E48C169C4F30720884724
:1012D000E0B20B4AD169884700BF06E00849886937
:1012E00080477055681C85B200BFBD42F6DB0449DB
:1012F000486980470249C8688047BDE8F08100001E
:101300002800002070B504460D46104988688047C3
:101310000E490869804744F004040C48C169C4F3CD
:10132000074088470948C169C4F307208847E0B2ED
:10133000064AD16988470548C16928468847034954
:10134000486980470149C868804770BD280000206F
:101350002DE9F04104460E4617460025A8461449DB
:101360008868804712490869804744F0040410489F
:10137000C169C4F3074088470D48C169C4F3072019
:101380008847E0B20A4AD169884700BF06E0705D2D
:10139000074AD1698847681C85B200BFBD42F6DBA9
:1013A0000349486980470249C8688047BDE8F08121
:1013B0002800002030380A2801D201207047002080
:1013C0007047000010B5044600BF082C02DD4FF046
:1013D000FF3010BD00BFA100491C4FF4807202EB2A
:1013E000C1001021FFF78EFF00BFA100491C4FF480
:1013F000807202EBC100FFF72DFF0028F5D1A1009C
:10140000491C4FF4007202EBC1001F21FFF77AFF65
:101410000120A0400B49098881430A48018000202F
:10142000094921F814000949085500BFA100491CC9
:101430004FF4407202EBC100FFF70CFF0028F5D11A
:101440000120C6E71C0000205C0800201E000020D0
:1014500070B505460C46062D1CD2DFE805F00307E3
:101460000B0F1317204601F0C7FA16E0204601F0D3
:1014700017FA12E0207801F0EBFA70BD01F03EFAA5
:1014800020700AE0204601F0F6FA06E0204601F05E
:101490003AFA02E04FF0FF30EFE700BF0020ECE740
:1014A0002DE9FC4106460C460025002000900190E5
:1014B000102E79D2DFE806F0080B1A161E2226320B
:1014C0003F5154585C5D616C01F0EBFA6FE01CB168
:1014D0000094009808300190DDE9000101F027FA3E
:1014E000BDE8FC81208801F097F960E001F0AEF9D9
:1014F00020805CE0208801F06FFA58E001F0BBF931
:10150000208054E0208801124FF49850FFF7FAFE33
:1015100021784FF4A050FFF7F5FE48E04FF4A050BB
:10152000FFF798FE07464FF49850FFF793FE07EB3E
:10153000002020803BE01F48807820701D48C07844
:1015400060701C480079A0701A484079E070194812
:10155000807920710020607129E001F038FB26E0DD
:10156000204601F04EFB22E0204601F0D9FA1EE0B1
:101570001DE0207801F071FBB2E701F01AFBC5B263
:1015800068B2401C10B94FF0FF30A9E725700EE09B
:1015900001F002FBC5B268B2401C18B94FF0FF3031
:1015A0009EE701E0257002E04FF0FF3098E700BFB2
:1015B000002095E72800002010B5044600BF082C45
:1015C00002DD4FF0FF3010BD00BF00BFA100491C7D
:1015D000002202EBC100FFF73DFE00F00F000128E2
:1015E00002D06FF00400EEE700BFA100491C4FF4E9
:1015F000807202EBC1000821FFF784FE00BFA1004A
:10160000491C4FF4807202EBC100FFF723FE002853
:10161000F5D10120A0401549098881431348018074
:101620000120A04012490988084008B10020CAE7FB
:1016300010E0A100491C4FF4007202EBC100FFF75B
:1016400009FE00F0080028B12046FFF7BBFE6FF04E
:101650000C00B8E7A100491C4FF4407202EBC10036
:10166000FFF7F8FD0028E4D10120ACE71C000020C2
:101670001A0000208A68002A01DCFFF714B9521E04
:101680008A604A68C0B2531C4B601070704770B5D6
:1016900004460025002600BFA100491C4FF4185243
:1016A00002EBC100FFF7D6FD0646A100491C4FF42E
:1016B000185202EBC10101F58070FFF7CBFD00EB82
:1016C000062086B2AEB1A100491C4FF4185202EBBD
:1016D000C100FFF7BFFD0546A100491C4FF4185299
:1016E00002EBC10101F58070FFF7B4FD00EB0520AE
:1016F00085B2B542D0D1284670BD70B504460025EC
:10170000002600BFA100491C4FF4005202EBC100AB
:10171000FFF7A0FD0646A100491C4FF4005202EB62
:10172000C10101F58070FFF795FD00EB062086B240
:10173000AEB1A100491C4FF4005202EBC100FFF70B
:1017400089FD0546A100491C4FF4005202EBC1017E
:1017500001F58070FFF77EFD00EB052085B2B542F4
:10176000D0D1284670BD10B5044600BF082C02DD5C
:101770004FF0FF3010BD00BF00BFA100491C002288
:1017800002EBC100FFF766FD00F00F00012802D058
:101790006FF00400EEE700BF00BFA100491C4FF44A
:1017A000407202EBC100FFF755FD132802D06FF025
:1017B0000200DFE700BFA100491C4FF4807202EB7A
:1017C000C1000221FFF79EFD00BFA100491C4FF49C
:1017D000807202EBC100FFF73DFD0028F5D10EE05D
:1017E000A100491C4FF4807202EBC100FFF732FDEB
:1017F00028B92046FFF7E6FD6FF00300BAE7A10025
:10180000491C4FF4407202EBC100FFF723FD14287E
:10181000E6D10120AEE700002DE9F04705468846F5
:10182000914600260027A900491C4FF4407202EBA4
:10183000C100FFF70FFD002868D0132858D01728E3
:1018400002D01C2877D142E0A900491C4FF4007255
:1018500002EBC100FFF7FEFC00F0010060B1294679
:1018600037A0FEF7DDFCA900491C4FF4007202EB23
:10187000C1000121FFF746FD2846FFF708FF061EBD
:1018800024DDB6F5006F01DD4FF4006632464146B7
:10189000284600F039FA0446002C02DC2046BDE858
:1018A000F087002710E0F01B82B208EB0701284602
:1018B00000F01CFC0446002C04DA2846FFF782FDE9
:1018C0002046ECE7381987B2BE42ECD134E0294615
:1018D0001FA0FEF7A5FC2846FFF76EFE0446012870
:1018E00001D02046DBE729461DA0FEF799FC23E046
:1018F0004A4629461DA0FEF793FC2846FFF733FF12
:101900000446012801D02046C9E715E029461DA05C
:10191000FEF786FC00234A460121284600F08EFD92
:101920000446A84202D02046B9E704E0294619A09F
:10193000FEF776FC00E000BF00BF0120AFE700002B
:1019400025643A436F6E6E65637465640D0A00002A
:1019500025643A436C6F7365576169740D0A000022
:1019600025643A436C6F7365640D0A0025643A4C34
:10197000697374656E2C20706F7274205B25645DD2
:101980000D0A000025643A4C425453746172740D80
:101990000A00000025643A4F70656E65640D0A0008
:1019A0002DE9FE43074688469146B900491C4FF48D
:1019B000407202EBC100FFF74DFC00283BD022280B
:1019C0004ED13846FFF763FE051E33DDB5F5006FD7
:1019D00001DD4FF4006501A802AB2A4641460090A4
:1019E000384600F021FA0446002C07DC224639462E
:1019F0001DA0FEF715FC2046BDE8FE83A5B200261B
:101A000016E0BDF804000090A81B82B208EB0601A6
:101A100002AB384600F02AFC0446002C06DA2246C7
:101A2000394618A0FEF7FCFB2046E5E7301986B2E0
:101A3000AE42E6D115E0394618A0FEF7F1FB0023CF
:101A40004A460221384600F0F9FC0446B84201D06B
:101A50002046D1E74A46394614A0FEF7E1FB00E0F4
:101A600000BF00BF0120C7E725643A207265637696
:101A700066726F6D206572726F722E20256C640D18
:101A80000A00000025643A2073656E64746F206557
:101A900072726F722E20256C640D0A0025643A4C18
:101AA000425553746172740D0A00000025643A4F68
:101AB00070656E65642C20706F7274205B25645DA8
:101AC0000D0A000086B00024224B0FCBCDE9032382
:101AD000CDE9010100F06AFD1F49204800F0D8FA65
:101AE0001F49204800F0E8FA01A90120FFF7D8FCBF
:101AF000401C20B91CA0FEF793FB00BFFEE700BF0F
:101B000005A90F20FFF7CCFC401C10B91DA0FEF763
:101B100087FB9DF814000028F2D000F04FF817E082
:101B200041F288321E490020FFF776FE041E03DAD8
:101B300021461CA0FEF774FB40F6B832184901207C
:101B4000FFF72EFF041E03DA214616A0FEF768FBFE
:101B5000E6E70000C02C000841280008C929000859
:101B6000152B0008BF29000857495A4348495020FF
:101B7000496E697469616C697A6564206661696C33
:101B80002E0D0A00556E6B6E6F776E2050485920EF
:101B90004C696E6B207374617574732E0D0A0000AE
:101BA0005C000020534F434B4554204552524F5246
:101BB000203A20256C640D0A0000000000B585B0B5
:101BC00025490020FFF744FC23490120FFF740FC92
:101BD00003A90820FFF764FC03A920A0FEF720FB5F
:101BE0001D48417900791C4AD278CDE90020029144
:101BF00019488378427801781EA0FEF711FB164839
:101C0000407A00901448037AC279817923A0FEF7C4
:101C100007FB1148407C00900F48037CC27B817B0E
:101C200023A0FEF7FDFA0C48407B00900A48037B96
:101C3000C27A817A23A0FEF7F3FA0748407D00902C
:101C40000548037DC27C817C23A0FEF7E9FA27A02A
:101C5000FEF7E6FA05B000BD000000200D0A3D3D8C
:101C60003D202573204E455420434F4E46203D3D98
:101C70003D0D0A004D41433A20253032583A253077
:101C800032583A253032583A253032583A253032D7
:101C9000583A253032580D0A000000005349503A96
:101CA0002025642E25642E25642E25640D0A00004F
:101CB0004741523A2025642E25642E25642E256442
:101CC0000D0A00005355423A2025642E25642E2526
:101CD000642E25640D0A0000444E533A2025642EDC
:101CE00025642E25642E25640D0A00003D3D3D3DF2
:101CF0003D3D3D3D3D3D3D3D3D3D3D3D3D3D3D3D14
:101D00003D3D0D0A000000002DE9F04704468846DD
:101D100016460027002500BF082C02DD681EBDE81E
:101D2000F08700BF00BFA100491C002202EBC100E8
:101D3000FFF790FA00F00F00012802D06FF00400C6
:101D4000EDE700BF00BF16B96FF00D00E7E700BF79
:101D5000A100491C4FF4F05202EBC100FFF77AFAE0
:101D60004FF6FF7101EA8025B54200DA2E4638E0D1
:101D70002046FFF78CFC0546A100491C4FF4407239
:101D800002EBC100FFF766FA0746172F1ED01C2F83
:101D900016D105B126E02046FFF7AFFC8146A10031
:101DA000491C4FF4F85202EBC100FFF753FAB9EBAC
:101DB000802F0BD12046FFF705FB6FF00600AEE742
:101DC0002046FFF7FFFA6FF00600A8E70120A040C9
:101DD00014490988084010B10DB900209FE705B1EA
:101DE00000E0C5E700BFB54200DA2E463246414664
:101DF000204600F055FCA100491C4FF4807202EB14
:101E0000C1004021FFF77EFA00BFA100491C4FF43A
:101E1000807202EBC100FFF71DFA0028F5D13046B1
:101E20007DE700001A0000202DE9FC4704468A46A1
:101E300016461F46DDF82880002500BF082C02DD6D
:101E4000681EBDE8FC8700BFA100491C002202EB10
:101E5000C100FFF7FFF9814600F00F00022802D011
:101E6000042802D100E000BF02E06FF00400E8E7C0
:101E700000BF00BF16B96FF00D00E2E700BF814858
:101E800030F81400E8B91AE02046FFF700FC0546D8
:101E9000A100491C4FF4407202EBC100FFF7DAF9D0
:101EA00010B96FF00300CCE70120A0407649098803
:101EB000084010B10DB90020C3E705B100E0E3E729
:101EC00000BF00207149085509F00700022802D020
:101ED00004287DD157E06B4830F81400E8BB082295
:101EE0006946204600F0DCFBA100491C4FF48072DB
:101EF00002EBC1004021FFF705FA00BFA100491C19
:101F00004FF4807202EBC100FFF7A4F90028F5D16D
:101F10009DF8000038709DF8010078709DF802006F
:101F2000B8709DF80300F8709DF80400A8F8000050
:101F30009DF8050098F8001000EB0120A8F80000BB
:101F40009DF806004F4921F814009DF8070011F88C
:101F5000141000EB01204B4900E004E021F81400CC
:101F600080204A490855474830F81400B04201DD46
:101F7000354602E0434830F814502A465146204680
:101F800000F08EFB55E03F4830F81400A8BB022259
:101F90006946204600F084FBA100491C4FF4807282
:101FA00002EBC1004021FFF7ADF900BFA100491CC1
:101FB0004FF4807202EBC100FFF74CF90028F5D115
:101FC0009DF800002F4921F814009DF8010000E061
:101FD00027E011F8141000EB01202A4921F8140021
:101FE000084630F8140040F2EA51884206DD2046E7
:101FF000FFF7E8F96FF47A7023E702E080202349C5
:102000000855204830F81400B04201DD354602E0A2
:102010001C4830F814502A465146204600F040FB38
:1020200007E02946204600F07DFB164820F81450B2
:1020300000BF00BFA100491C4FF4807202EBC10039
:102040004021FFF75FF900BFA100491C4FF48072E7
:1020500002EBC100FFF7FEF80028F5D1094830F87F
:102060001400401B074921F81400084630F81400FA
:1020700028B10648005D40F0010004490855284693
:10208000DFE600005C0800201A0000201E0000208F
:1020900000B131B9054A064B1A61064B044A536137
:1020A00002E0034A10615161704700003F280008B8
:1020B000280000203D28000800BF094A128802F4C9
:1020C0000072002AF9D000B131B9064A044B9A6176
:1020D000054B034AD36102E0014A9061D161704728
:1020E000280000209D2A0008A12A00082DE9F041BF
:1020F0000446884615460026002700BF082C02DD4E
:10210000701EBDE8F08100BF00BFA100491C002285
:1021100002EBC100FFF79EF800F00F00012802D08B
:102120006FF00400EDE700BF00BF15B96FF00D00C0
:10213000E7E700BFA100491C4FF4407202EBC10069
:10214000FFF788F80646172E04D01C2E02D06FF039
:102150000600D6E70120A04042490988084040B364
:10216000A100491C4FF4007202EBC100FFF772F8A6
:1021700000F01F0606F0100080B1A100491C4FF4CA
:10218000007202EBC1001021FFF7BCF80120A04053
:10219000344909888143334801800AE006F0080089
:1021A00028B12046FFF70EF96FF00C00A9E70020D8
:1021B000A7E7A100491C4FF4F85202EBC100FFF75A
:1021C00049F84FF6FF7101EA8027BD4200DD3D4628
:1021D00023E02046FFF791FA0746A100491C4FF47F
:1021E000407202EBC100FFF735F80646172E07D004
:1021F0001C2E05D02046FFF7E5F86FF0060080E7BB
:102200000120A04018490988084018B1BD4201DDED
:10221000002076E7BD4200DC00E0DAE700BF2A4696
:102220004146204600F0B1FAA100491C4FF48072EB
:1022300002EBC1002021FFF765F800BFA100491C97
:102240004FF4807202EBC100FFF704F80028F5D1CB
:102250000120A04003490988084302490880284614
:102260004FE700001C0000201A0000202DE9F04775
:1022700004468A4616461D46DDF820900027B846DB
:1022800000BF082C02DD781EBDE8F08700BFA1006A
:10229000491C002202EBC100FEF7DCFF00F00F003A
:1022A000022802D0042802D100E000BF02E06FF053
:1022B0000400E9E700BF00BF16B96FF00D00E3E7C7
:1022C00000BF2878697860F31F210846A97860F379
:1022D0001F210846E97860F31F210846286810B9D5
:1022E0006FF00B00D0E7B9F1000F02D16FF00A00D8
:1022F000CAE7A100491C4FF4407202EBC100FEF78F
:10230000A9FF0746422F04D0222F02D06FF006000B
:10231000BAE7A100491C4FF4406202EBC10004225D
:102320002946FFF715F84FEA2921A200521C4FF465
:10233000805303EBC200FEF7E5FF09F0FF01A200A6
:10234000521C4FF4805303EBC20202F58070FEF77B
:10235000D9FFA100491C4FF4F85202EBC100FEF76F
:1023600079FF4FF6FF7101EA8028464500DD4646B9
:102370001CE02046FFF7C1F98046A100491C4FF43C
:10238000407202EBC100FEF765FF10B96FF0030069
:102390007AE70120A04028490988084018B146453D
:1023A00001DD002070E7464500DC00E0E1E700BF0A
:1023B00032465146204600F0E8F9A100491C4FF48E
:1023C000807202EBC1002021FEF79CFF00BFA1003C
:1023D000491C4FF4807202EBC100FEF73BFF00285E
:1023E000F5D125E0A100491C4FF4007202EBC100B9
:1023F000FEF730FF00F01F0707F0100048B1A10002
:10240000491C4FF4007202EBC1001021FEF77AFF65
:102410000FE007F0080058B1A100491C4FF400720A
:1024200002EBC1000821FEF76DFF6FF00C002BE7F7
:10243000D8E700BF304627E71A0000202DE9F04119
:1024400004460E4617461D4600BF082C03DD4FF01C
:10245000FF30BDE8F08100BF012E04D0022E03D072
:10246000042E03D101E000BF00BF02E06FF00400C2
:10247000EFE700BF05F0060010B16FF00500E8E7D8
:1024800005B3012E02D0022E1AD106E005F021007C
:1024900010B96FF00500DCE713E005F0200028B16B
:1024A00005F0800010B96FF00500D2E705F01000CC
:1024B00028B105F0800010B96FF00500C9E700E011
:1024C00000BF00BF2046FEF77DFF05F0F00242EAA4
:1024D0000601A200521C002303EBC200FEF712FF0C
:1024E0007FB92D4807880088401C2B490880084682
:1024F00000884FF6F071884203D14FF440402649DE
:1025000008803912A200521C4FF4806303EBC20012
:10251000FEF7F8FEF9B2A200521C4FF4806303EB01
:10252000C20202F58070FEF7EDFEA100491C4FF4D7
:10253000807202EBC1000121FEF7E4FE00BFA100A2
:10254000491C4FF4807202EBC100FEF783FE0028A5
:10255000F5D105F00100A0401049098808430F4952
:1025600008800120A0400E49098881430C48018061
:1025700000200C4921F814000B49085500BFA100A8
:10258000491C4FF4407202EBC100FEF763FE0028C5
:10259000F5D060B25DE70000180000201A000020AE
:1025A0001C0000205C0800201E00002035488069C7
:1025B00040F01500334988613348006833490840CA
:1025C0003149086008460068314908432E490860CF
:1025D000084600682F4908432B49086008460068F0
:1025E00020F0407008600846006840F08060086095
:1025F0002448806940F48050224988612648008838
:1026000020F03800244908800846008820F00200A5
:1026100008800846008820F00100088008460088ED
:1026200020F4006008800846008820F080000880C0
:102630000846008840F4007008800846008840F48E
:10264000807008800846808840F004008880084632
:10265000008840F0040008801720088207200882C4
:102660000846008840F0400008800C48406820F090
:10267000CC000A4948600846406840F03300486092
:10268000704700000010024000080140FFFF333F88
:10269000000088800000333000300140001001400D
:1026A0002DE9F04704460F4616460025A8460EB908
:1026B000BDE8F087A100491C4FF4205202EBC10194
:1026C00001F58070FEF7C6FD8146A100491C4FF45C
:1026D000205202EBC100FEF7BDFD09EB002085B2E0
:1026E0002902A000C01C01EBC00832463946404612
:1026F000FEF7D6FDA81985B22912A200521C4FF48C
:10270000205303EBC200FEF7FDFDE9B2A200521C0C
:102710004FF4205303EBC20202F58070FEF7F2FD86
:1027200000BFC5E72DE9F04104460E460025A10093
:10273000491C4FF4205202EBC10101F58070FEF7F5
:1027400089FD0746A100491C4FF4205202EBC1004D
:10275000FEF780FD07EB002085B2A81985B229128B
:10276000A200521C4FF4205303EBC200FEF7CAFD37
:10277000E9B2A200521C4FF4205303EBC20202F54F
:102780008070FEF7BFFDBDE8F0812DE9F0470446FB
:102790000F4616460025A8460EB9BDE8F087A100F1
:1027A000491C4FF4105202EBC10101F58070FEF795
:1027B00051FD8146A100491C4FF4105202EBC100AB
:1027C000FEF748FD09EB002085B22902A000801C1D
:1027D00001EBC008324639464046FEF7B9FDA8195C
:1027E00085B22912A200521C4FF4105303EBC20011
:1027F000FEF788FDE9B2A200521C4FF4105303EB20
:10280000C20202F58070FEF77DFD00BFC5E70146FC
:10281000087870470170704770B50446E5B226121B
:1028200005F0F0014FF4A850FEF76CFD31464FF46F
:10283000B850FEF767FD70BD70477047704770472E
:1028400010200149086070471008014070B500264B
:10285000002400254FF4A850FEF7FCFC00F0F00621
:102860004FF4B850FEF7F6FC0446254606EB05206B
:1028700085B2284670BD70B50026002400254FF4AF
:10288000B050FEF7E7FC06464FF4C050FEF7E2FCFE
:102890000446254606EB052085B2284670BD00009B
:1028A00010B50446062221464FF41060FEF7F8FCEE
:1028B000042204F10E019001FEF7F2FC042204F15F
:1028C0000A014FF4A060FEF7EBFC0422A11D4FF4B7
:1028D0007060FEF7E5FC07480078A0740548417871
:1028E000E17481782175C178617503480078A0751D
:1028F00010BD0000480000204C00002010B5002052
:10290000FEF7A8FC10BD70B504464FF4D850FEF792
:10291000A1FC20704FF4D050FEF79CFC05464FF40C
:10292000C850FEF797FC05EB0020608070BD2DE9D4
:10293000F04105460E46002700F0B3F8F5B100BFA0
:10294000002404E0285D384447B2601C44B2082CDF
:10295000F8DB102F03DD4FF0FF30BDE8F0810024DD
:102960000AE0295DA200521C4FF4F85303EBC200A9
:10297000FEF7C8FC601C44B2082CF2DBEEB1002765
:10298000002404E0305D384447B2601C44B2082C97
:10299000F8DB102F02DD4FF0FF30DEE700240AE005
:1029A000315DA200521C4FF4F05303EBC200FEF75E
:1029B000A9FC601C44B2082CF2DB0020CDE710B566
:1029C000FF20FEF72FFC10BD4FF480100149086076
:1029D000704700001008014070B50446E5B22612A9
:1029E00029464FF4B050FEF78DFC31464FF4C050ED
:1029F000FEF788FC70BD000010B504460622214693
:102A00004FF41060FEF7A4FC042204F10E019001C3
:102A1000FEF79EFC042204F10A014FF4A060FEF7C9
:102A200097FC0422A11D4FF47060FEF791FCA07C7E
:102A300005490870E07C4870207D8870607DC87012
:102A4000A07D0249087010BD480000204C00002005
:102A500070B50446002524F03A0008B1681E70BD28
:102A60000020FEF7F7FB0546254329460020FEF728
:102A700049FC0020F3E710B5044621784FF4D85004
:102A8000FEF740FC608801124FF4C850FEF73AFC94
:102A9000A1784FF4D050FEF735FC10BD00207047F0
:102AA000704700B585B0062269464FF41060FEF706
:102AB000F7FB042204A99001FEF7F2FB042203A90C
:102AC0004FF4A060FEF7ECFB042202A94FF4706003
:102AD000FEF7E6FB80210020FEF714FC0020FEF745
:102AE000B9FB062269464FF41060FEF731FC042260
:102AF00004A99001FEF72CFC042203A94FF4A06066
:102B0000FEF726FC042202A94FF47060FEF720FCB9
:102B100005B000BD10B504462046FEF783FB10BD8E
:102B200070B5044600254FF43850FEF793FB054678
:102B3000C5F38010207005F03800202802D0382816
:102B400003D100BF0120607002E00020607000BF70
:102B500000BF05F03800102805D0182802D0202822
:102B600004D100BF00BF0120A07002E00020A070CF
:102B700000BF00BF05F03800082805D0182802D093
:102B8000202804D100BF00BF0120E07002E0002037
:102B9000E07000BF00BF70BD10B54FF43850FEF7B5
:102BA00059FB00F0010008B1012400E00024204698
:102BB00010BD10B500244FF43850FEF74BFB00F069
:102BC000300008B1012400E00024204610BD10B5FB
:102BD0004FF43850FEF73EFB044624F080042146B3
:102BE0004FF43850FEF78EFB4FF43850FEF732FBAF
:102BF000044644F0800421464FF43850FEF782FB2F
:102C000010BD70B5054600242878012802D144F093
:102C1000400401E024F040046878012802D144F027
:102C2000380412E0E878012808D1A878012802D1F8
:102C300044F0180409E044F0080406E0A8780128EC
:102C400002D144F0100400E000BF21464FF4385098
:102C5000FEF758FBFFF7BBFF70BD70B505460024BB
:102C60004FF43850FEF7F6FA044604F0400010B96D
:102C70004FF0FF3070BD24F03804012D02D144F034
:102C8000300401E044F0380421464FF43850FEF798
:102C900039FBFFF79CFF4FF43850FEF7DBFA044690
:102CA000012D04D104F0300030B10020E2E704F03F
:102CB000380008B10020DDE74FF0FF30DAE7000010
:102CC00002020202020202020202020202020202E4
:102CD0003031323334353637383941424344454652
:102CE000403058003031323334353637383961624C
:102CF000636465664030780004000008000000004E
:102D00000000000200010000103A7474003A74746C
:102D1000003A747400000000382D00080000002004
:102D20005C0000005C010008942D00085C0000209D
:102D30006C0F0000780100080008DC00ABCDC0A8D3
:102D4000007BFFFFFF00C0A8000AC0A8000A010026
:102D500000C00000000000000000000000000000B3
:102D60000102573535303000392800083B2800086B
:102D70003F2800083D2800080F28000815280008F3
:102D80000000000000000000000000000000000043
:042D9000000000003F
:04000005080001E10D
:00000001FF
