:020000040800F2
:100000001804002025010008810100088101000872
:100010008101000881010008810100080000000042
:100020000000000000000000000000008101000846
:100030008101000800000000810100088101000822
:100040008101000881010008810100088101000888
:100050008101000881010008810100088101000878
:100060008101000881010008810100088101000868
:100070008101000881010008810100088101000858
:1000800081010008810100088101000800000000D2
:1000900000000000000000000000000081010008D6
:1000A0008101000881010008810100088101000828
:1000B000810100088101000881010008290400086D
:1000C000E90300088101000881010008810100089E
:1000D00081010008810100088101000881010008F8
:1000E0008101000881010008810100080000000072
:1000F0000000000000000000000000000000000000
:1001000000000000000000000000000000000000EF
:1001100000000000000000008101000881010008CB
:100120005FF808F180B582B000AF104B7B60104BD8
:100130003B6007E03B681A1D3A607A68111D7960E0
:1001400012681A603B680B4A9342F3D30A480B4982
:100150004FF000028842B8BF40F8042BFADB00F0F1
:1001600013F800F067FA0837BD4680BDE8060008BE
:1001700000000020000000200000002014000020EB
:1001800080B400AFFEE700BF80B500AF164A164B43
:100190001B6843F0010313601349134B5A68134B58
:1001A00013404B60104A104B1B6823F0847323F4F8
:1001B000803313600C4A0C4B1B6823F480231360BC
:1001C000094A094B5B6823F4FE035360064B4FF466
:1001D0001F029A60044B0022DA6200F00BF8044B15
:1001E0004FF000629A6080BD001002400000FFF8EE
:1001F00000ED00E080B500AF00F002F880BD00BF68
:1002000080B483B000AF00237B6000233B60304AA2
:100210002F4B1B6843F4803313602D4B1B6803F492
:1002200000333B607B6801337B603B68002B03D16C
:100230007B68B3F5A06FF0D1254B1B6803F4003346
:10024000002B02D001233B6001E000233B603B68B0
:10025000012B37D11E4A1E4B5B6853601C4A1C4B56
:100260005B6853601A4A1A4B5B685360184A184B14
:100270005B6823F47C135360154A154B5B6843F4A9
:1002800098135360124A124B1B6843F0807313603B
:1002900000BF0F4B1B6803F00073002BF9D00C4A12
:1002A0000B4B5B6823F003035360094A084B5B6800
:1002B00043F00203536000BF054B5B6803F00C037F
:1002C000082BF9D10C37BD465DF8047B704700BFA1
:1002D0000010024080B483B000AF0346FB710849B0
:1002E00097F907305B09FA7902F01F02012000FA42
:1002F00002F241F823200C37BD465DF8047B7047BD
:1003000000E100E080B500AF344A344B9B6943F014
:1003100001039361314A314BDB6943F40013D3612C
:100320002E4A2E4B9B6943F0080393612C4A2C4BB9
:100330001B6843F040731360294A294B1B6843F044
:1003400040631360264A264B1B6843F040531360FA
:10035000234A234B1B6843F040431360214B002288
:100360001A80204A1F4B1B889BB243F480639BB2C8
:1003700013801C4A1B4B9B889BB243F018039BB213
:100380009380184A174B9B889BB243F400739BB22F
:100390009380144A134B9B889BB243F480739BB2A7
:1003A0009380104B78229A830E4B19221A840D4A9F
:1003B0000C4B9B889BB243F400739BB29380094A19
:1003C000084B1B889BB243F001039BB21380202093
:1003D000FFF780FF1F20FFF77DFF80BD0010024068
:1003E000000C01400054004080B400AF0D4B9B8ACC
:1003F0009BB203F48063002B0FD00A4A094B1B8881
:100400009BB243F400739BB21380064A054B9B8A50
:100410009BB223F480639BB29382BD465DF8047B5C
:10042000704700BF0054004080B483B000AF4E4B13
:100430009B8A9BB27B604C4B1B8B9BB23B607B6867
:1004400003F00103002B04D0474B484A127892B2C4
:100450001A827B6803F00203002B2CD07B6803F028
:100460008003002B11D0404A414B1B681B789BB284
:1004700013823F4B1B6801333D4A13603D4B1B7891
:10048000013BDAB23B4B1A7068E03B4B1B78012B07
:1004900008D8354A344B1B889BB223F480639BB247
:1004A00013805BE0304A304B1B889BB243F480637F
:1004B0009BB2138052E07B6803F08003002B1DD0B9
:1004C0002C4B1B78002B08D1274A274B1B889BB24B
:1004D00043F400739BB2138040E0234A244B1B6813
:1004E0001B789BB21382224B1B680133204A136096
:1004F000204B1B78013BDAB21E4B1A707B6803F06D
:100500004003002B2AD01C4B1B78022B07D1164A24
:10051000154B1B889BB223F480639BB21380164B50
:100520001B78012B12D1104A0F4B1B889BB243F44E
:1005300080639BB213800C4A0B4B1B889BB243F425
:1005400000739BB21380084B1B8A07E0064B1B8A83
:10055000094B1B78013BDAB2074B1A700C37BD46CA
:100560005DF8047B704700BF00540040100000207D
:100570000C000020000000200100002080B483B0A7
:1005800000AF03463960FB711346BB710D4ABB795E
:1005900013700D4A3B681360FB795B00DBB243F0DC
:1005A0000103DBB2DAB2094B1A70094A084B1B8807
:1005B0009BB243F480739BB213800C37BD465DF849
:1005C000047B704701000020040000201000002080
:1005D0000054004080B400AF134A134B9B6943F0B2
:1005E00014039361114A114B5B6843F0030353609A
:1005F0000E4A0E4B5B6823F00C0353600B4A0B4B07
:100600005B6843F030035360084A084B5B6823F093
:10061000C0035360064A064B1B6823F003031360B4
:10062000BD465DF8047B7047001002400010014099
:100630000008014080B588B000AF07F11003002228
:100640001A60043300221A60043300221A80023335
:1006500001237B740223BB740323FB74FFF752FE58
:10066000FFF7B8FF0923FB760023FB6102E0FB697B
:100670000133FB61FB691A4A9342F8D95523BB76D3
:10068000B97E3A1DFB7E084611461A46FFF776FFF3
:100690005A23BB76134B4FF400721A610023FB619F
:1006A00002E0FB690133FB61FB690D4A9342F8D913
:1006B000B97E3A1DFB7E084611461A46FFF75EFFDB
:1006C000084B4FF400725A610023FB6102E0FB69A2
:1006D0000133FB61FB69024A9342F8D9DAE700BFB4
:0806E0003F420F000010014031
:0400000508000000EF
:00000001FF
